{
  "contractName": "Bank",
  "abi": [
    {
      "anonymous": false,
      "inputs": [
        {
          "indexed": true,
          "internalType": "address",
          "name": "previousOwner",
          "type": "address"
        },
        {
          "indexed": true,
          "internalType": "address",
          "name": "newOwner",
          "type": "address"
        }
      ],
      "name": "OwnershipTransferred",
      "type": "event"
    },
    {
      "inputs": [],
      "name": "BSCV",
      "outputs": [
        {
          "internalType": "contract IBSCV",
          "name": "",
          "type": "address"
        }
      ],
      "stateMutability": "view",
      "type": "function",
      "constant": true
    },
    {
      "inputs": [],
      "name": "owner",
      "outputs": [
        {
          "internalType": "address",
          "name": "",
          "type": "address"
        }
      ],
      "stateMutability": "view",
      "type": "function",
      "constant": true
    },
    {
      "inputs": [],
      "name": "renounceOwnership",
      "outputs": [],
      "stateMutability": "nonpayable",
      "type": "function"
    },
    {
      "inputs": [],
      "name": "totalWithdrawals",
      "outputs": [
        {
          "internalType": "uint256",
          "name": "",
          "type": "uint256"
        }
      ],
      "stateMutability": "view",
      "type": "function",
      "constant": true
    },
    {
      "inputs": [
        {
          "internalType": "address",
          "name": "newOwner",
          "type": "address"
        }
      ],
      "name": "transferOwnership",
      "outputs": [],
      "stateMutability": "nonpayable",
      "type": "function"
    },
    {
      "inputs": [
        {
          "internalType": "address",
          "name": "_to",
          "type": "address"
        },
        {
          "internalType": "uint256",
          "name": "_amount",
          "type": "uint256"
        }
      ],
      "name": "withdraw",
      "outputs": [],
      "stateMutability": "nonpayable",
      "type": "function"
    },
    {
      "inputs": [
        {
          "internalType": "contract IBSCV",
          "name": "_bscv",
          "type": "address"
        }
      ],
      "name": "setBSCV",
      "outputs": [],
      "stateMutability": "nonpayable",
      "type": "function"
    }
  ],
  "bytecode": "0x608060405234801561001057600080fd5b5060006100216100c460201b60201c565b9050806000806101000a81548173ffffffffffffffffffffffffffffffffffffffff021916908373ffffffffffffffffffffffffffffffffffffffff1602179055508073ffffffffffffffffffffffffffffffffffffffff16600073ffffffffffffffffffffffffffffffffffffffff167f8be0079c531659141344cd1fd0a4f28419497f9722a3daafe3b4186f6b6457e060405160405180910390a3506100cc565b600033905090565b610b06806100db6000396000f3fe608060405234801561001057600080fd5b506004361061007d5760003560e01c80638da5cb5b1161005b5780638da5cb5b146100c8578063f2fde38b146100e6578063f3fef3a314610102578063f95981281461011e5761007d565b80631dfc21851461008257806360464627146100a0578063715018a6146100be575b600080fd5b61008a61013a565b604051610097919061087f565b60405180910390f35b6100a8610160565b6040516100b591906108da565b60405180910390f35b6100c6610166565b005b6100d06102a0565b6040516100dd919061082d565b60405180910390f35b61010060048036038101906100fb9190610703565b6102c9565b005b61011c6004803603810190610117919061072c565b610472565b005b61013860048036038101906101339190610791565b6105e7565b005b600160009054906101000a900473ffffffffffffffffffffffffffffffffffffffff1681565b60035481565b61016e6106a7565b73ffffffffffffffffffffffffffffffffffffffff1661018c6102a0565b73ffffffffffffffffffffffffffffffffffffffff16146101e2576040517f08c379a00000000000000000000000000000000000000000000000000000000081526004016101d9906108ba565b60405180910390fd5b600073ffffffffffffffffffffffffffffffffffffffff1660008054906101000a900473ffffffffffffffffffffffffffffffffffffffff1673ffffffffffffffffffffffffffffffffffffffff167f8be0079c531659141344cd1fd0a4f28419497f9722a3daafe3b4186f6b6457e060405160405180910390a360008060006101000a81548173ffffffffffffffffffffffffffffffffffffffff021916908373ffffffffffffffffffffffffffffffffffffffff160217905550565b60008060009054906101000a900473ffffffffffffffffffffffffffffffffffffffff16905090565b6102d16106a7565b73ffffffffffffffffffffffffffffffffffffffff166102ef6102a0565b73ffffffffffffffffffffffffffffffffffffffff1614610345576040517f08c379a000000000000000000000000000000000000000000000000000000000815260040161033c906108ba565b60405180910390fd5b600073ffffffffffffffffffffffffffffffffffffffff168173ffffffffffffffffffffffffffffffffffffffff1614156103b5576040517f08c379a00000000000000000000000000000000000000000000000000000000081526004016103ac9061089a565b60405180910390fd5b8073ffffffffffffffffffffffffffffffffffffffff1660008054906101000a900473ffffffffffffffffffffffffffffffffffffffff1673ffffffffffffffffffffffffffffffffffffffff167f8be0079c531659141344cd1fd0a4f28419497f9722a3daafe3b4186f6b6457e060405160405180910390a3806000806101000a81548173ffffffffffffffffffffffffffffffffffffffff021916908373ffffffffffffffffffffffffffffffffffffffff16021790555050565b61047a6106a7565b73ffffffffffffffffffffffffffffffffffffffff166104986102a0565b73ffffffffffffffffffffffffffffffffffffffff16146104ee576040517f08c379a00000000000000000000000000000000000000000000000000000000081526004016104e5906108ba565b60405180910390fd5b600160009054906101000a900473ffffffffffffffffffffffffffffffffffffffff1673ffffffffffffffffffffffffffffffffffffffff166323b872dd3084846040518463ffffffff1660e01b815260040161054d93929190610848565b602060405180830381600087803b15801561056757600080fd5b505af115801561057b573d6000803e3d6000fd5b505050506040513d601f19601f8201168201806040525081019061059f9190610768565b5080600260006003548152602001908152602001600020600043815260200190815260200160002081905550600360008154809291906105de90610984565b91905055505050565b6105ef6106a7565b73ffffffffffffffffffffffffffffffffffffffff1661060d6102a0565b73ffffffffffffffffffffffffffffffffffffffff1614610663576040517f08c379a000000000000000000000000000000000000000000000000000000000815260040161065a906108ba565b60405180910390fd5b80600160006101000a81548173ffffffffffffffffffffffffffffffffffffffff021916908373ffffffffffffffffffffffffffffffffffffffff16021790555050565b600033905090565b6000813590506106be81610a74565b92915050565b6000815190506106d381610a8b565b92915050565b6000813590506106e881610aa2565b92915050565b6000813590506106fd81610ab9565b92915050565b60006020828403121561071557600080fd5b6000610723848285016106af565b91505092915050565b6000806040838503121561073f57600080fd5b600061074d858286016106af565b925050602061075e858286016106ee565b9150509250929050565b60006020828403121561077a57600080fd5b6000610788848285016106c4565b91505092915050565b6000602082840312156107a357600080fd5b60006107b1848285016106d9565b91505092915050565b6107c381610906565b82525050565b6107d281610960565b82525050565b60006107e56026836108f5565b91506107f0826109fc565b604082019050919050565b60006108086020836108f5565b915061081382610a4b565b602082019050919050565b61082781610956565b82525050565b600060208201905061084260008301846107ba565b92915050565b600060608201905061085d60008301866107ba565b61086a60208301856107ba565b610877604083018461081e565b949350505050565b600060208201905061089460008301846107c9565b92915050565b600060208201905081810360008301526108b3816107d8565b9050919050565b600060208201905081810360008301526108d3816107fb565b9050919050565b60006020820190506108ef600083018461081e565b92915050565b600082825260208201905092915050565b600061091182610936565b9050919050565b60008115159050919050565b600061092f82610906565b9050919050565b600073ffffffffffffffffffffffffffffffffffffffff82169050919050565b6000819050919050565b600061096b82610972565b9050919050565b600061097d82610936565b9050919050565b600061098f82610956565b91507fffffffffffffffffffffffffffffffffffffffffffffffffffffffffffffffff8214156109c2576109c16109cd565b5b600182019050919050565b7f4e487b7100000000000000000000000000000000000000000000000000000000600052601160045260246000fd5b7f4f776e61626c653a206e6577206f776e657220697320746865207a65726f206160008201527f6464726573730000000000000000000000000000000000000000000000000000602082015250565b7f4f776e61626c653a2063616c6c6572206973206e6f7420746865206f776e6572600082015250565b610a7d81610906565b8114610a8857600080fd5b50565b610a9481610918565b8114610a9f57600080fd5b50565b610aab81610924565b8114610ab657600080fd5b50565b610ac281610956565b8114610acd57600080fd5b5056fea2646970667358221220c84e8013479cb24bf0ac959ca4ad5c77a4440249c9576049b7e2d1473963f97964736f6c63430008040033",
  "immutableReferences": {},
  "source": "pragma solidity 0.8.4;\r\nimport \"@openzeppelin/contracts/access/Ownable.sol\";\r\nimport './interfaces/IBSCV.sol';\r\nimport './interfaces/IBANK.sol';\r\n\r\n\r\ncontract Bank is Ownable,IBANK{\r\n    IBSCV public BSCV;\r\n\r\n    mapping(uint256 => mapping(uint256 => uint256))withdrawStatement; \r\n\r\n    uint256 public totalWithdrawals;\r\n\r\n    function withdraw(address _to,uint256 _amount)external override onlyOwner{\r\n        BSCV.transferFrom(address(this),_to,_amount);\r\n        withdrawStatement[totalWithdrawals][block.number]=_amount;\r\n        totalWithdrawals ++;\r\n    }  \r\n\r\n    function setBSCV(IBSCV _bscv)public onlyOwner{\r\n       BSCV = _bscv;\r\n    }\r\n}",
  "sourcePath": "C:/Users/Bharath/Desktop/fortunetta-contracts/contracts/BANK.sol",
  "compiler": {
    "name": "solc",
    "version": "0.8.4+commit.c7e474f2.Emscripten.clang"
  },
  "schemaVersion": "3.4.1",
  "updatedAt": "2021-07-05T14:08:43.102Z",
  "networkType": "ethereum",
  "devdoc": {
    "kind": "dev",
    "methods": {
      "owner()": {
        "details": "Returns the address of the current owner."
      },
      "renounceOwnership()": {
        "details": "Leaves the contract without owner. It will not be possible to call `onlyOwner` functions anymore. Can only be called by the current owner. NOTE: Renouncing ownership will leave the contract without an owner, thereby removing any functionality that is only available to the owner."
      },
      "transferOwnership(address)": {
        "details": "Transfers ownership of the contract to a new account (`newOwner`). Can only be called by the current owner."
      }
    },
    "version": 1
  },
  "userdoc": {
    "kind": "user",
    "methods": {},
    "version": 1
  }
}