{
  "contractName": "BSCV",
  "abi": [
    {
      "inputs": [
        {
          "internalType": "contract IBANK",
          "name": "_bank",
          "type": "address"
        }
      ],
      "stateMutability": "nonpayable",
      "type": "constructor"
    },
    {
      "anonymous": false,
      "inputs": [
        {
          "indexed": true,
          "internalType": "address",
          "name": "owner",
          "type": "address"
        },
        {
          "indexed": true,
          "internalType": "address",
          "name": "spender",
          "type": "address"
        },
        {
          "indexed": false,
          "internalType": "uint256",
          "name": "value",
          "type": "uint256"
        }
      ],
      "name": "Approval",
      "type": "event"
    },
    {
      "anonymous": false,
      "inputs": [
        {
          "indexed": true,
          "internalType": "address",
          "name": "previousOwner",
          "type": "address"
        },
        {
          "indexed": true,
          "internalType": "address",
          "name": "newOwner",
          "type": "address"
        }
      ],
      "name": "OwnershipTransferred",
      "type": "event"
    },
    {
      "anonymous": false,
      "inputs": [
        {
          "indexed": true,
          "internalType": "address",
          "name": "from",
          "type": "address"
        },
        {
          "indexed": true,
          "internalType": "address",
          "name": "to",
          "type": "address"
        },
        {
          "indexed": false,
          "internalType": "uint256",
          "name": "value",
          "type": "uint256"
        }
      ],
      "name": "Transfer",
      "type": "event"
    },
    {
      "inputs": [],
      "name": "Bank",
      "outputs": [
        {
          "internalType": "contract IBANK",
          "name": "",
          "type": "address"
        }
      ],
      "stateMutability": "view",
      "type": "function",
      "constant": true
    },
    {
      "inputs": [],
      "name": "Client",
      "outputs": [
        {
          "internalType": "contract IClient",
          "name": "",
          "type": "address"
        }
      ],
      "stateMutability": "view",
      "type": "function",
      "constant": true
    },
    {
      "inputs": [
        {
          "internalType": "address",
          "name": "owner",
          "type": "address"
        },
        {
          "internalType": "address",
          "name": "spender",
          "type": "address"
        }
      ],
      "name": "allowance",
      "outputs": [
        {
          "internalType": "uint256",
          "name": "",
          "type": "uint256"
        }
      ],
      "stateMutability": "view",
      "type": "function",
      "constant": true
    },
    {
      "inputs": [
        {
          "internalType": "address",
          "name": "spender",
          "type": "address"
        },
        {
          "internalType": "uint256",
          "name": "amount",
          "type": "uint256"
        }
      ],
      "name": "approve",
      "outputs": [
        {
          "internalType": "bool",
          "name": "",
          "type": "bool"
        }
      ],
      "stateMutability": "nonpayable",
      "type": "function"
    },
    {
      "inputs": [
        {
          "internalType": "address",
          "name": "account",
          "type": "address"
        }
      ],
      "name": "balanceOf",
      "outputs": [
        {
          "internalType": "uint256",
          "name": "",
          "type": "uint256"
        }
      ],
      "stateMutability": "view",
      "type": "function",
      "constant": true
    },
    {
      "inputs": [],
      "name": "decimals",
      "outputs": [
        {
          "internalType": "uint8",
          "name": "",
          "type": "uint8"
        }
      ],
      "stateMutability": "view",
      "type": "function",
      "constant": true
    },
    {
      "inputs": [
        {
          "internalType": "address",
          "name": "spender",
          "type": "address"
        },
        {
          "internalType": "uint256",
          "name": "subtractedValue",
          "type": "uint256"
        }
      ],
      "name": "decreaseAllowance",
      "outputs": [
        {
          "internalType": "bool",
          "name": "",
          "type": "bool"
        }
      ],
      "stateMutability": "nonpayable",
      "type": "function"
    },
    {
      "inputs": [
        {
          "internalType": "address",
          "name": "spender",
          "type": "address"
        },
        {
          "internalType": "uint256",
          "name": "addedValue",
          "type": "uint256"
        }
      ],
      "name": "increaseAllowance",
      "outputs": [
        {
          "internalType": "bool",
          "name": "",
          "type": "bool"
        }
      ],
      "stateMutability": "nonpayable",
      "type": "function"
    },
    {
      "inputs": [],
      "name": "name",
      "outputs": [
        {
          "internalType": "string",
          "name": "",
          "type": "string"
        }
      ],
      "stateMutability": "view",
      "type": "function",
      "constant": true
    },
    {
      "inputs": [],
      "name": "owner",
      "outputs": [
        {
          "internalType": "address",
          "name": "",
          "type": "address"
        }
      ],
      "stateMutability": "view",
      "type": "function",
      "constant": true
    },
    {
      "inputs": [],
      "name": "renounceOwnership",
      "outputs": [],
      "stateMutability": "nonpayable",
      "type": "function"
    },
    {
      "inputs": [],
      "name": "symbol",
      "outputs": [
        {
          "internalType": "string",
          "name": "",
          "type": "string"
        }
      ],
      "stateMutability": "view",
      "type": "function",
      "constant": true
    },
    {
      "inputs": [],
      "name": "totalSupply",
      "outputs": [
        {
          "internalType": "uint256",
          "name": "",
          "type": "uint256"
        }
      ],
      "stateMutability": "view",
      "type": "function",
      "constant": true
    },
    {
      "inputs": [
        {
          "internalType": "address",
          "name": "recipient",
          "type": "address"
        },
        {
          "internalType": "uint256",
          "name": "amount",
          "type": "uint256"
        }
      ],
      "name": "transfer",
      "outputs": [
        {
          "internalType": "bool",
          "name": "",
          "type": "bool"
        }
      ],
      "stateMutability": "nonpayable",
      "type": "function"
    },
    {
      "inputs": [
        {
          "internalType": "address",
          "name": "sender",
          "type": "address"
        },
        {
          "internalType": "address",
          "name": "recipient",
          "type": "address"
        },
        {
          "internalType": "uint256",
          "name": "amount",
          "type": "uint256"
        }
      ],
      "name": "transferFrom",
      "outputs": [
        {
          "internalType": "bool",
          "name": "",
          "type": "bool"
        }
      ],
      "stateMutability": "nonpayable",
      "type": "function"
    },
    {
      "inputs": [
        {
          "internalType": "address",
          "name": "newOwner",
          "type": "address"
        }
      ],
      "name": "transferOwnership",
      "outputs": [],
      "stateMutability": "nonpayable",
      "type": "function"
    },
    {
      "inputs": [
        {
          "internalType": "address",
          "name": "_to",
          "type": "address"
        },
        {
          "internalType": "uint256",
          "name": "_amount",
          "type": "uint256"
        }
      ],
      "name": "mint",
      "outputs": [],
      "stateMutability": "nonpayable",
      "type": "function"
    },
    {
      "inputs": [
        {
          "internalType": "address",
          "name": "_from",
          "type": "address"
        },
        {
          "internalType": "uint256",
          "name": "_amount",
          "type": "uint256"
        }
      ],
      "name": "_beforeBet",
      "outputs": [
        {
          "internalType": "bool",
          "name": "result",
          "type": "bool"
        }
      ],
      "stateMutability": "view",
      "type": "function",
      "constant": true
    },
    {
      "inputs": [
        {
          "internalType": "contract IBANK",
          "name": "_bank",
          "type": "address"
        }
      ],
      "name": "setClient",
      "outputs": [],
      "stateMutability": "nonpayable",
      "type": "function"
    }
  ],
  "bytecode": "0x60806040523480156200001157600080fd5b506040516200253238038062002532833981810160405281019062000037919062000423565b6040518060400160405280600981526020017f42534347616d626c6500000000000000000000000000000000000000000000008152506040518060400160405280600481526020017f42534356000000000000000000000000000000000000000000000000000000008152506000620000b5620001e960201b60201c565b9050806000806101000a81548173ffffffffffffffffffffffffffffffffffffffff021916908373ffffffffffffffffffffffffffffffffffffffff1602179055508073ffffffffffffffffffffffffffffffffffffffff16600073ffffffffffffffffffffffffffffffffffffffff167f8be0079c531659141344cd1fd0a4f28419497f9722a3daafe3b4186f6b6457e060405160405180910390a35081600490805190602001906200016b9291906200035c565b508060059080519060200190620001849291906200035c565b50505080600760006101000a81548173ffffffffffffffffffffffffffffffffffffffff021916908373ffffffffffffffffffffffffffffffffffffffff160217905550620001e281670de0b6b3a7640000620001f160201b60201c565b506200065d565b600033905090565b600073ffffffffffffffffffffffffffffffffffffffff168273ffffffffffffffffffffffffffffffffffffffff16141562000264576040517f08c379a00000000000000000000000000000000000000000000000000000000081526004016200025b9062000487565b60405180910390fd5b62000278600083836200035760201b60201c565b80600360008282546200028c9190620004d7565b9250508190555080600160008473ffffffffffffffffffffffffffffffffffffffff1673ffffffffffffffffffffffffffffffffffffffff1681526020019081526020016000206000828254620002e49190620004d7565b925050819055508173ffffffffffffffffffffffffffffffffffffffff16600073ffffffffffffffffffffffffffffffffffffffff167fddf252ad1be2c89b69c2b068fc378daa952ba7f163c4a11628f55a4df523b3ef836040516200034b9190620004a9565b60405180910390a35050565b505050565b8280546200036a9062000586565b90600052602060002090601f0160209004810192826200038e5760008555620003da565b82601f10620003a957805160ff1916838001178555620003da565b82800160010185558215620003da579182015b82811115620003d9578251825591602001919060010190620003bc565b5b509050620003e99190620003ed565b5090565b5b8082111562000408576000816000905550600101620003ee565b5090565b6000815190506200041d8162000643565b92915050565b6000602082840312156200043657600080fd5b600062000446848285016200040c565b91505092915050565b60006200045e601f83620004c6565b91506200046b826200061a565b602082019050919050565b62000481816200057c565b82525050565b60006020820190508181036000830152620004a2816200044f565b9050919050565b6000602082019050620004c0600083018462000476565b92915050565b600082825260208201905092915050565b6000620004e4826200057c565b9150620004f1836200057c565b9250827fffffffffffffffffffffffffffffffffffffffffffffffffffffffffffffffff03821115620005295762000528620005bc565b5b828201905092915050565b600062000541826200055c565b9050919050565b6000620005558262000534565b9050919050565b600073ffffffffffffffffffffffffffffffffffffffff82169050919050565b6000819050919050565b600060028204905060018216806200059f57607f821691505b60208210811415620005b657620005b5620005eb565b5b50919050565b7f4e487b7100000000000000000000000000000000000000000000000000000000600052601160045260246000fd5b7f4e487b7100000000000000000000000000000000000000000000000000000000600052602260045260246000fd5b7f45524332303a206d696e7420746f20746865207a65726f206164647265737300600082015250565b6200064e8162000548565b81146200065a57600080fd5b50565b611ec5806200066d6000396000f3fe608060405234801561001057600080fd5b50600436106101215760003560e01c8063715018a6116100ad5780639d4e3b01116100715780639d4e3b01146102fa578063a457c2d71461032a578063a9059cbb1461035a578063dd62ed3e1461038a578063f2fde38b146103ba57610121565b8063715018a61461027a5780638526690a146102845780638da5cb5b146102a05780638eaa9c91146102be57806395d89b41146102dc57610121565b8063313ce567116100f4578063313ce567146101c257806339509351146101e057806340c10f19146102105780634e41108d1461022c57806370a082311461024a57610121565b806306fdde0314610126578063095ea7b31461014457806318160ddd1461017457806323b872dd14610192575b600080fd5b61012e6103d6565b60405161013b9190611776565b60405180910390f35b61015e60048036038101906101599190611491565b610468565b60405161016b9190611725565b60405180910390f35b61017c610486565b60405161018991906118f8565b60405180910390f35b6101ac60048036038101906101a79190611442565b610490565b6040516101b99190611725565b60405180910390f35b6101ca610591565b6040516101d79190611913565b60405180910390f35b6101fa60048036038101906101f59190611491565b61059a565b6040516102079190611725565b60405180910390f35b61022a60048036038101906102259190611491565b610646565b005b6102346106d0565b6040516102419190611740565b60405180910390f35b610264600480360381019061025f91906113dd565b6106f6565b60405161027191906118f8565b60405180910390f35b61028261073f565b005b61029e600480360381019061029991906114cd565b610879565b005b6102a8610939565b6040516102b5919061170a565b60405180910390f35b6102c6610962565b6040516102d3919061175b565b60405180910390f35b6102e4610988565b6040516102f19190611776565b60405180910390f35b610314600480360381019061030f9190611491565b610a1a565b6040516103219190611725565b60405180910390f35b610344600480360381019061033f9190611491565b610aad565b6040516103519190611725565b60405180910390f35b610374600480360381019061036f9190611491565b610ba1565b6040516103819190611725565b60405180910390f35b6103a4600480360381019061039f9190611406565b610bbf565b6040516103b191906118f8565b60405180910390f35b6103d460048036038101906103cf91906113dd565b610c46565b005b6060600480546103e590611ab6565b80601f016020809104026020016040519081016040528092919081815260200182805461041190611ab6565b801561045e5780601f106104335761010080835404028352916020019161045e565b820191906000526020600020905b81548152906001019060200180831161044157829003601f168201915b5050505050905090565b600061047c610475610def565b8484610df7565b6001905092915050565b6000600354905090565b600061049d848484610fc2565b6000600260008673ffffffffffffffffffffffffffffffffffffffff1673ffffffffffffffffffffffffffffffffffffffff16815260200190815260200160002060006104e8610def565b73ffffffffffffffffffffffffffffffffffffffff1673ffffffffffffffffffffffffffffffffffffffff16815260200190815260200160002054905082811015610568576040517f08c379a000000000000000000000000000000000000000000000000000000000815260040161055f90611838565b60405180910390fd5b61058585610574610def565b858461058091906119a0565b610df7565b60019150509392505050565b60006012905090565b600061063c6105a7610def565b8484600260006105b5610def565b73ffffffffffffffffffffffffffffffffffffffff1673ffffffffffffffffffffffffffffffffffffffff16815260200190815260200160002060008873ffffffffffffffffffffffffffffffffffffffff1673ffffffffffffffffffffffffffffffffffffffff16815260200190815260200160002054610637919061194a565b610df7565b6001905092915050565b61064e610def565b73ffffffffffffffffffffffffffffffffffffffff1661066c610939565b73ffffffffffffffffffffffffffffffffffffffff16146106c2576040517f08c379a00000000000000000000000000000000000000000000000000000000081526004016106b990611858565b60405180910390fd5b6106cc8282611244565b5050565b600760009054906101000a900473ffffffffffffffffffffffffffffffffffffffff1681565b6000600160008373ffffffffffffffffffffffffffffffffffffffff1673ffffffffffffffffffffffffffffffffffffffff168152602001908152602001600020549050919050565b610747610def565b73ffffffffffffffffffffffffffffffffffffffff16610765610939565b73ffffffffffffffffffffffffffffffffffffffff16146107bb576040517f08c379a00000000000000000000000000000000000000000000000000000000081526004016107b290611858565b60405180910390fd5b600073ffffffffffffffffffffffffffffffffffffffff1660008054906101000a900473ffffffffffffffffffffffffffffffffffffffff1673ffffffffffffffffffffffffffffffffffffffff167f8be0079c531659141344cd1fd0a4f28419497f9722a3daafe3b4186f6b6457e060405160405180910390a360008060006101000a81548173ffffffffffffffffffffffffffffffffffffffff021916908373ffffffffffffffffffffffffffffffffffffffff160217905550565b610881610def565b73ffffffffffffffffffffffffffffffffffffffff1661089f610939565b73ffffffffffffffffffffffffffffffffffffffff16146108f5576040517f08c379a00000000000000000000000000000000000000000000000000000000081526004016108ec90611858565b60405180910390fd5b80600760006101000a81548173ffffffffffffffffffffffffffffffffffffffff021916908373ffffffffffffffffffffffffffffffffffffffff16021790555050565b60008060009054906101000a900473ffffffffffffffffffffffffffffffffffffffff16905090565b600660009054906101000a900473ffffffffffffffffffffffffffffffffffffffff1681565b60606005805461099790611ab6565b80601f01602080910402602001604051908101604052809291908181526020018280546109c390611ab6565b8015610a105780601f106109e557610100808354040283529160200191610a10565b820191906000526020600020905b8154815290600101906020018083116109f357829003601f168201915b5050505050905090565b600081610a26846106f6565b1015610a67576040517f08c379a0000000000000000000000000000000000000000000000000000000008152600401610a5e90611818565b60405180910390fd5b81610a9484600660009054906101000a900473ffffffffffffffffffffffffffffffffffffffff16610bbf565b10610aa25760019050610aa7565b600090505b92915050565b60008060026000610abc610def565b73ffffffffffffffffffffffffffffffffffffffff1673ffffffffffffffffffffffffffffffffffffffff16815260200190815260200160002060008573ffffffffffffffffffffffffffffffffffffffff1673ffffffffffffffffffffffffffffffffffffffff16815260200190815260200160002054905082811015610b79576040517f08c379a0000000000000000000000000000000000000000000000000000000008152600401610b70906118b8565b60405180910390fd5b610b96610b84610def565b858584610b9191906119a0565b610df7565b600191505092915050565b6000610bb5610bae610def565b8484610fc2565b6001905092915050565b6000600260008473ffffffffffffffffffffffffffffffffffffffff1673ffffffffffffffffffffffffffffffffffffffff16815260200190815260200160002060008373ffffffffffffffffffffffffffffffffffffffff1673ffffffffffffffffffffffffffffffffffffffff16815260200190815260200160002054905092915050565b610c4e610def565b73ffffffffffffffffffffffffffffffffffffffff16610c6c610939565b73ffffffffffffffffffffffffffffffffffffffff1614610cc2576040517f08c379a0000000000000000000000000000000000000000000000000000000008152600401610cb990611858565b60405180910390fd5b600073ffffffffffffffffffffffffffffffffffffffff168173ffffffffffffffffffffffffffffffffffffffff161415610d32576040517f08c379a0000000000000000000000000000000000000000000000000000000008152600401610d29906117b8565b60405180910390fd5b8073ffffffffffffffffffffffffffffffffffffffff1660008054906101000a900473ffffffffffffffffffffffffffffffffffffffff1673ffffffffffffffffffffffffffffffffffffffff167f8be0079c531659141344cd1fd0a4f28419497f9722a3daafe3b4186f6b6457e060405160405180910390a3806000806101000a81548173ffffffffffffffffffffffffffffffffffffffff021916908373ffffffffffffffffffffffffffffffffffffffff16021790555050565b600033905090565b600073ffffffffffffffffffffffffffffffffffffffff168373ffffffffffffffffffffffffffffffffffffffff161415610e67576040517f08c379a0000000000000000000000000000000000000000000000000000000008152600401610e5e90611898565b60405180910390fd5b600073ffffffffffffffffffffffffffffffffffffffff168273ffffffffffffffffffffffffffffffffffffffff161415610ed7576040517f08c379a0000000000000000000000000000000000000000000000000000000008152600401610ece906117d8565b60405180910390fd5b80600260008573ffffffffffffffffffffffffffffffffffffffff1673ffffffffffffffffffffffffffffffffffffffff16815260200190815260200160002060008473ffffffffffffffffffffffffffffffffffffffff1673ffffffffffffffffffffffffffffffffffffffff168152602001908152602001600020819055508173ffffffffffffffffffffffffffffffffffffffff168373ffffffffffffffffffffffffffffffffffffffff167f8c5be1e5ebec7d5bd14f71427d1e84f3dd0314c0f7b2291e5b200ac8c7c3b92583604051610fb591906118f8565b60405180910390a3505050565b600073ffffffffffffffffffffffffffffffffffffffff168373ffffffffffffffffffffffffffffffffffffffff161415611032576040517f08c379a000000000000000000000000000000000000000000000000000000000815260040161102990611878565b60405180910390fd5b600073ffffffffffffffffffffffffffffffffffffffff168273ffffffffffffffffffffffffffffffffffffffff1614156110a2576040517f08c379a000000000000000000000000000000000000000000000000000000000815260040161109990611798565b60405180910390fd5b6110ad838383611399565b6000600160008573ffffffffffffffffffffffffffffffffffffffff1673ffffffffffffffffffffffffffffffffffffffff16815260200190815260200160002054905081811015611134576040517f08c379a000000000000000000000000000000000000000000000000000000000815260040161112b906117f8565b60405180910390fd5b818161114091906119a0565b600160008673ffffffffffffffffffffffffffffffffffffffff1673ffffffffffffffffffffffffffffffffffffffff1681526020019081526020016000208190555081600160008573ffffffffffffffffffffffffffffffffffffffff1673ffffffffffffffffffffffffffffffffffffffff16815260200190815260200160002060008282546111d2919061194a565b925050819055508273ffffffffffffffffffffffffffffffffffffffff168473ffffffffffffffffffffffffffffffffffffffff167fddf252ad1be2c89b69c2b068fc378daa952ba7f163c4a11628f55a4df523b3ef8460405161123691906118f8565b60405180910390a350505050565b600073ffffffffffffffffffffffffffffffffffffffff168273ffffffffffffffffffffffffffffffffffffffff1614156112b4576040517f08c379a00000000000000000000000000000000000000000000000000000000081526004016112ab906118d8565b60405180910390fd5b6112c060008383611399565b80600360008282546112d2919061194a565b9250508190555080600160008473ffffffffffffffffffffffffffffffffffffffff1673ffffffffffffffffffffffffffffffffffffffff1681526020019081526020016000206000828254611328919061194a565b925050819055508173ffffffffffffffffffffffffffffffffffffffff16600073ffffffffffffffffffffffffffffffffffffffff167fddf252ad1be2c89b69c2b068fc378daa952ba7f163c4a11628f55a4df523b3ef8360405161138d91906118f8565b60405180910390a35050565b505050565b6000813590506113ad81611e4a565b92915050565b6000813590506113c281611e61565b92915050565b6000813590506113d781611e78565b92915050565b6000602082840312156113ef57600080fd5b60006113fd8482850161139e565b91505092915050565b6000806040838503121561141957600080fd5b60006114278582860161139e565b92505060206114388582860161139e565b9150509250929050565b60008060006060848603121561145757600080fd5b60006114658682870161139e565b93505060206114768682870161139e565b9250506040611487868287016113c8565b9150509250925092565b600080604083850312156114a457600080fd5b60006114b28582860161139e565b92505060206114c3858286016113c8565b9150509250929050565b6000602082840312156114df57600080fd5b60006114ed848285016113b3565b91505092915050565b6114ff816119d4565b82525050565b61150e816119e6565b82525050565b61151d81611a3b565b82525050565b61152c81611a5f565b82525050565b600061153d8261192e565b6115478185611939565b9350611557818560208601611a83565b61156081611b46565b840191505092915050565b6000611578602383611939565b915061158382611b57565b604082019050919050565b600061159b602683611939565b91506115a682611ba6565b604082019050919050565b60006115be602283611939565b91506115c982611bf5565b604082019050919050565b60006115e1602683611939565b91506115ec82611c44565b604082019050919050565b6000611604600b83611939565b915061160f82611c93565b602082019050919050565b6000611627602883611939565b915061163282611cbc565b604082019050919050565b600061164a602083611939565b915061165582611d0b565b602082019050919050565b600061166d602583611939565b915061167882611d34565b604082019050919050565b6000611690602483611939565b915061169b82611d83565b604082019050919050565b60006116b3602583611939565b91506116be82611dd2565b604082019050919050565b60006116d6601f83611939565b91506116e182611e21565b602082019050919050565b6116f581611a24565b82525050565b61170481611a2e565b82525050565b600060208201905061171f60008301846114f6565b92915050565b600060208201905061173a6000830184611505565b92915050565b60006020820190506117556000830184611514565b92915050565b60006020820190506117706000830184611523565b92915050565b600060208201905081810360008301526117908184611532565b905092915050565b600060208201905081810360008301526117b18161156b565b9050919050565b600060208201905081810360008301526117d18161158e565b9050919050565b600060208201905081810360008301526117f1816115b1565b9050919050565b60006020820190508181036000830152611811816115d4565b9050919050565b60006020820190508181036000830152611831816115f7565b9050919050565b600060208201905081810360008301526118518161161a565b9050919050565b600060208201905081810360008301526118718161163d565b9050919050565b6000602082019050818103600083015261189181611660565b9050919050565b600060208201905081810360008301526118b181611683565b9050919050565b600060208201905081810360008301526118d1816116a6565b9050919050565b600060208201905081810360008301526118f1816116c9565b9050919050565b600060208201905061190d60008301846116ec565b92915050565b600060208201905061192860008301846116fb565b92915050565b600081519050919050565b600082825260208201905092915050565b600061195582611a24565b915061196083611a24565b9250827fffffffffffffffffffffffffffffffffffffffffffffffffffffffffffffffff0382111561199557611994611ae8565b5b828201905092915050565b60006119ab82611a24565b91506119b683611a24565b9250828210156119c9576119c8611ae8565b5b828203905092915050565b60006119df82611a04565b9050919050565b60008115159050919050565b60006119fd826119d4565b9050919050565b600073ffffffffffffffffffffffffffffffffffffffff82169050919050565b6000819050919050565b600060ff82169050919050565b6000611a4682611a4d565b9050919050565b6000611a5882611a04565b9050919050565b6000611a6a82611a71565b9050919050565b6000611a7c82611a04565b9050919050565b60005b83811015611aa1578082015181840152602081019050611a86565b83811115611ab0576000848401525b50505050565b60006002820490506001821680611ace57607f821691505b60208210811415611ae257611ae1611b17565b5b50919050565b7f4e487b7100000000000000000000000000000000000000000000000000000000600052601160045260246000fd5b7f4e487b7100000000000000000000000000000000000000000000000000000000600052602260045260246000fd5b6000601f19601f8301169050919050565b7f45524332303a207472616e7366657220746f20746865207a65726f206164647260008201527f6573730000000000000000000000000000000000000000000000000000000000602082015250565b7f4f776e61626c653a206e6577206f776e657220697320746865207a65726f206160008201527f6464726573730000000000000000000000000000000000000000000000000000602082015250565b7f45524332303a20617070726f766520746f20746865207a65726f20616464726560008201527f7373000000000000000000000000000000000000000000000000000000000000602082015250565b7f45524332303a207472616e7366657220616d6f756e742065786365656473206260008201527f616c616e63650000000000000000000000000000000000000000000000000000602082015250565b7f6c6f772062616c616e6365000000000000000000000000000000000000000000600082015250565b7f45524332303a207472616e7366657220616d6f756e742065786365656473206160008201527f6c6c6f77616e6365000000000000000000000000000000000000000000000000602082015250565b7f4f776e61626c653a2063616c6c6572206973206e6f7420746865206f776e6572600082015250565b7f45524332303a207472616e736665722066726f6d20746865207a65726f20616460008201527f6472657373000000000000000000000000000000000000000000000000000000602082015250565b7f45524332303a20617070726f76652066726f6d20746865207a65726f2061646460008201527f7265737300000000000000000000000000000000000000000000000000000000602082015250565b7f45524332303a2064656372656173656420616c6c6f77616e63652062656c6f7760008201527f207a65726f000000000000000000000000000000000000000000000000000000602082015250565b7f45524332303a206d696e7420746f20746865207a65726f206164647265737300600082015250565b611e53816119d4565b8114611e5e57600080fd5b50565b611e6a816119f2565b8114611e7557600080fd5b50565b611e8181611a24565b8114611e8c57600080fd5b5056fea2646970667358221220c4620a72f21540ff8a4ac3d220e598487568a716debd7e28b013cc03b41fcc0864736f6c63430008040033",
  "immutableReferences": {},
  "source": "// SPDX-License-Identifier: MIT\r\nimport \"@openzeppelin/contracts/token/ERC20/ERC20.sol\";\r\nimport \"@openzeppelin/contracts/access/Ownable.sol\";\r\nimport \"./interfaces/IClient.sol\";\r\n\r\nimport \"./interfaces/IBSCV.sol\";\r\nimport \"./interfaces/IBANK.sol\";\r\nimport \"./interfaces/IController.sol\";\r\n\r\npragma solidity 0.8.4;\r\n\r\ncontract BSCV is Ownable,ERC20(\"BSCGamble\",\"BSCV\"),IBSCV{\r\n    /* ========== States ========== */\r\n    IClient public Client;\r\n\r\n    IBANK public Bank;\r\n    \r\n    /* ========== Constructor ========== */\r\n    constructor(IBANK _bank){\r\n        Bank = _bank;\r\n        _mint(address(_bank),uint256(1000000000000000000));\r\n    }\r\n\r\n    /* ========== Functions ========== */\r\n    /** * @dev mint desired number of tokens to the address \r\n    Only accessible by Client contract */ \r\n    function mint(address _to,uint256 _amount)external override onlyOwner{\r\n        _mint(_to,_amount);\r\n    }\r\n\r\n    /** * @dev _beforeBet, a checking function that is \r\n    called during bet which returns bool*/ \r\n    function _beforeBet(address _from,uint256 _amount) external view override returns(bool result){\r\n        require(balanceOf(_from) >= _amount,\"low balance\");\r\n        if(allowance(_from,address(Client)) >= _amount){\r\n            result = true;\r\n        }else{\r\n            result = false;\r\n        }\r\n    }\r\n\r\n    /** * @dev allows to change Bank contract accessible only by owner*/ \r\n    function setClient(IBANK _bank)public onlyOwner{\r\n        Bank = _bank;\r\n    }\r\n\r\n    /* ========== modifiers ========== */\r\n    modifier onlyClient{\r\n        require(msg.sender == address(Client),\"Access denied\");\r\n        _;\r\n    }\r\n}\r\n\r\n",
  "sourcePath": "C:/Users/Bharath/Desktop/fortunetta-contracts/contracts/BSCV.sol",
  "compiler": {
    "name": "solc",
    "version": "0.8.4+commit.c7e474f2.Emscripten.clang"
  },
  "schemaVersion": "3.4.1",
  "updatedAt": "2021-07-05T14:08:43.111Z",
  "networkType": "ethereum",
  "devdoc": {
    "kind": "dev",
    "methods": {
      "_beforeBet(address,uint256)": {
        "details": "_beforeBet, a checking function that is  called during bet which returns bool"
      },
      "allowance(address,address)": {
        "details": "See {IERC20-allowance}."
      },
      "approve(address,uint256)": {
        "details": "See {IERC20-approve}. Requirements: - `spender` cannot be the zero address."
      },
      "balanceOf(address)": {
        "details": "See {IERC20-balanceOf}."
      },
      "decimals()": {
        "details": "Returns the number of decimals used to get its user representation. For example, if `decimals` equals `2`, a balance of `505` tokens should be displayed to a user as `5,05` (`505 / 10 ** 2`). Tokens usually opt for a value of 18, imitating the relationship between Ether and Wei. This is the value {ERC20} uses, unless this function is overridden; NOTE: This information is only used for _display_ purposes: it in no way affects any of the arithmetic of the contract, including {IERC20-balanceOf} and {IERC20-transfer}."
      },
      "decreaseAllowance(address,uint256)": {
        "details": "Atomically decreases the allowance granted to `spender` by the caller. This is an alternative to {approve} that can be used as a mitigation for problems described in {IERC20-approve}. Emits an {Approval} event indicating the updated allowance. Requirements: - `spender` cannot be the zero address. - `spender` must have allowance for the caller of at least `subtractedValue`."
      },
      "increaseAllowance(address,uint256)": {
        "details": "Atomically increases the allowance granted to `spender` by the caller. This is an alternative to {approve} that can be used as a mitigation for problems described in {IERC20-approve}. Emits an {Approval} event indicating the updated allowance. Requirements: - `spender` cannot be the zero address."
      },
      "mint(address,uint256)": {
        "details": "mint desired number of tokens to the address  Only accessible by Client contract "
      },
      "name()": {
        "details": "Returns the name of the token."
      },
      "owner()": {
        "details": "Returns the address of the current owner."
      },
      "renounceOwnership()": {
        "details": "Leaves the contract without owner. It will not be possible to call `onlyOwner` functions anymore. Can only be called by the current owner. NOTE: Renouncing ownership will leave the contract without an owner, thereby removing any functionality that is only available to the owner."
      },
      "setClient(address)": {
        "details": "allows to change Bank contract accessible only by owner"
      },
      "symbol()": {
        "details": "Returns the symbol of the token, usually a shorter version of the name."
      },
      "totalSupply()": {
        "details": "See {IERC20-totalSupply}."
      },
      "transfer(address,uint256)": {
        "details": "See {IERC20-transfer}. Requirements: - `recipient` cannot be the zero address. - the caller must have a balance of at least `amount`."
      },
      "transferFrom(address,address,uint256)": {
        "details": "See {IERC20-transferFrom}. Emits an {Approval} event indicating the updated allowance. This is not required by the EIP. See the note at the beginning of {ERC20}. Requirements: - `sender` and `recipient` cannot be the zero address. - `sender` must have a balance of at least `amount`. - the caller must have allowance for ``sender``'s tokens of at least `amount`."
      },
      "transferOwnership(address)": {
        "details": "Transfers ownership of the contract to a new account (`newOwner`). Can only be called by the current owner."
      }
    },
    "version": 1
  },
  "userdoc": {
    "kind": "user",
    "methods": {},
    "version": 1
  }
}