{
  "contractName": "BSCV",
  "abi": [
    {
      "inputs": [
        {
          "internalType": "contract IClient",
          "name": "_client",
          "type": "address"
        }
      ],
      "stateMutability": "nonpayable",
      "type": "constructor"
    },
    {
      "anonymous": false,
      "inputs": [
        {
          "indexed": true,
          "internalType": "address",
          "name": "owner",
          "type": "address"
        },
        {
          "indexed": true,
          "internalType": "address",
          "name": "spender",
          "type": "address"
        },
        {
          "indexed": false,
          "internalType": "uint256",
          "name": "value",
          "type": "uint256"
        }
      ],
      "name": "Approval",
      "type": "event"
    },
    {
      "anonymous": false,
      "inputs": [
        {
          "indexed": true,
          "internalType": "address",
          "name": "previousOwner",
          "type": "address"
        },
        {
          "indexed": true,
          "internalType": "address",
          "name": "newOwner",
          "type": "address"
        }
      ],
      "name": "OwnershipTransferred",
      "type": "event"
    },
    {
      "anonymous": false,
      "inputs": [
        {
          "indexed": true,
          "internalType": "address",
          "name": "from",
          "type": "address"
        },
        {
          "indexed": true,
          "internalType": "address",
          "name": "to",
          "type": "address"
        },
        {
          "indexed": false,
          "internalType": "uint256",
          "name": "value",
          "type": "uint256"
        }
      ],
      "name": "Transfer",
      "type": "event"
    },
    {
      "inputs": [],
      "name": "Client",
      "outputs": [
        {
          "internalType": "contract IClient",
          "name": "",
          "type": "address"
        }
      ],
      "stateMutability": "view",
      "type": "function"
    },
    {
      "inputs": [
        {
          "internalType": "address",
          "name": "owner",
          "type": "address"
        },
        {
          "internalType": "address",
          "name": "spender",
          "type": "address"
        }
      ],
      "name": "allowance",
      "outputs": [
        {
          "internalType": "uint256",
          "name": "",
          "type": "uint256"
        }
      ],
      "stateMutability": "view",
      "type": "function"
    },
    {
      "inputs": [
        {
          "internalType": "address",
          "name": "spender",
          "type": "address"
        },
        {
          "internalType": "uint256",
          "name": "amount",
          "type": "uint256"
        }
      ],
      "name": "approve",
      "outputs": [
        {
          "internalType": "bool",
          "name": "",
          "type": "bool"
        }
      ],
      "stateMutability": "nonpayable",
      "type": "function"
    },
    {
      "inputs": [
        {
          "internalType": "address",
          "name": "account",
          "type": "address"
        }
      ],
      "name": "balanceOf",
      "outputs": [
        {
          "internalType": "uint256",
          "name": "",
          "type": "uint256"
        }
      ],
      "stateMutability": "view",
      "type": "function"
    },
    {
      "inputs": [],
      "name": "decimals",
      "outputs": [
        {
          "internalType": "uint8",
          "name": "",
          "type": "uint8"
        }
      ],
      "stateMutability": "view",
      "type": "function"
    },
    {
      "inputs": [
        {
          "internalType": "address",
          "name": "spender",
          "type": "address"
        },
        {
          "internalType": "uint256",
          "name": "subtractedValue",
          "type": "uint256"
        }
      ],
      "name": "decreaseAllowance",
      "outputs": [
        {
          "internalType": "bool",
          "name": "",
          "type": "bool"
        }
      ],
      "stateMutability": "nonpayable",
      "type": "function"
    },
    {
      "inputs": [
        {
          "internalType": "address",
          "name": "spender",
          "type": "address"
        },
        {
          "internalType": "uint256",
          "name": "addedValue",
          "type": "uint256"
        }
      ],
      "name": "increaseAllowance",
      "outputs": [
        {
          "internalType": "bool",
          "name": "",
          "type": "bool"
        }
      ],
      "stateMutability": "nonpayable",
      "type": "function"
    },
    {
      "inputs": [],
      "name": "name",
      "outputs": [
        {
          "internalType": "string",
          "name": "",
          "type": "string"
        }
      ],
      "stateMutability": "view",
      "type": "function"
    },
    {
      "inputs": [],
      "name": "owner",
      "outputs": [
        {
          "internalType": "address",
          "name": "",
          "type": "address"
        }
      ],
      "stateMutability": "view",
      "type": "function"
    },
    {
      "inputs": [],
      "name": "renounceOwnership",
      "outputs": [],
      "stateMutability": "nonpayable",
      "type": "function"
    },
    {
      "inputs": [],
      "name": "symbol",
      "outputs": [
        {
          "internalType": "string",
          "name": "",
          "type": "string"
        }
      ],
      "stateMutability": "view",
      "type": "function"
    },
    {
      "inputs": [],
      "name": "totalSupply",
      "outputs": [
        {
          "internalType": "uint256",
          "name": "",
          "type": "uint256"
        }
      ],
      "stateMutability": "view",
      "type": "function"
    },
    {
      "inputs": [
        {
          "internalType": "address",
          "name": "recipient",
          "type": "address"
        },
        {
          "internalType": "uint256",
          "name": "amount",
          "type": "uint256"
        }
      ],
      "name": "transfer",
      "outputs": [
        {
          "internalType": "bool",
          "name": "",
          "type": "bool"
        }
      ],
      "stateMutability": "nonpayable",
      "type": "function"
    },
    {
      "inputs": [
        {
          "internalType": "address",
          "name": "sender",
          "type": "address"
        },
        {
          "internalType": "address",
          "name": "recipient",
          "type": "address"
        },
        {
          "internalType": "uint256",
          "name": "amount",
          "type": "uint256"
        }
      ],
      "name": "transferFrom",
      "outputs": [
        {
          "internalType": "bool",
          "name": "",
          "type": "bool"
        }
      ],
      "stateMutability": "nonpayable",
      "type": "function"
    },
    {
      "inputs": [
        {
          "internalType": "address",
          "name": "newOwner",
          "type": "address"
        }
      ],
      "name": "transferOwnership",
      "outputs": [],
      "stateMutability": "nonpayable",
      "type": "function"
    },
    {
      "inputs": [
        {
          "internalType": "address",
          "name": "_to",
          "type": "address"
        },
        {
          "internalType": "uint256",
          "name": "_amount",
          "type": "uint256"
        }
      ],
      "name": "mint",
      "outputs": [],
      "stateMutability": "nonpayable",
      "type": "function"
    },
    {
      "inputs": [
        {
          "internalType": "address",
          "name": "_from",
          "type": "address"
        },
        {
          "internalType": "uint256",
          "name": "_amount",
          "type": "uint256"
        }
      ],
      "name": "_beforeBet",
      "outputs": [
        {
          "internalType": "bool",
          "name": "result",
          "type": "bool"
        }
      ],
      "stateMutability": "view",
      "type": "function"
    },
    {
      "inputs": [
        {
          "internalType": "contract IClient",
          "name": "_client",
          "type": "address"
        }
      ],
      "name": "setClient",
      "outputs": [],
      "stateMutability": "nonpayable",
      "type": "function"
    }
  ],
  "bytecode": "0x60806040523480156200001157600080fd5b50604051620022493803806200224983398181016040528101906200003791906200029e565b6040518060400160405280600981526020017f42534347616d626c6500000000000000000000000000000000000000000000008152506040518060400160405280600481526020017f42534356000000000000000000000000000000000000000000000000000000008152506000620000b5620001cf60201b60201c565b9050806000806101000a81548173ffffffffffffffffffffffffffffffffffffffff021916908373ffffffffffffffffffffffffffffffffffffffff1602179055508073ffffffffffffffffffffffffffffffffffffffff16600073ffffffffffffffffffffffffffffffffffffffff167f8be0079c531659141344cd1fd0a4f28419497f9722a3daafe3b4186f6b6457e060405160405180910390a35081600490805190602001906200016b929190620001d7565b50806005908051906020019062000184929190620001d7565b50505080600660006101000a81548173ffffffffffffffffffffffffffffffffffffffff021916908373ffffffffffffffffffffffffffffffffffffffff1602179055505062000391565b600033905090565b828054620001e59062000312565b90600052602060002090601f01602090048101928262000209576000855562000255565b82601f106200022457805160ff191683800117855562000255565b8280016001018555821562000255579182015b828111156200025457825182559160200191906001019062000237565b5b50905062000264919062000268565b5090565b5b808211156200028357600081600090555060010162000269565b5090565b600081519050620002988162000377565b92915050565b600060208284031215620002b157600080fd5b6000620002c18482850162000287565b91505092915050565b6000620002d782620002f2565b9050919050565b6000620002eb82620002ca565b9050919050565b600073ffffffffffffffffffffffffffffffffffffffff82169050919050565b600060028204905060018216806200032b57607f821691505b6020821081141562000342576200034162000348565b5b50919050565b7f4e487b7100000000000000000000000000000000000000000000000000000000600052602260045260246000fd5b6200038281620002de565b81146200038e57600080fd5b50565b611ea880620003a16000396000f3fe608060405234801561001057600080fd5b50600436106101165760003560e01c80638526690a116100a25780639d4e3b01116100715780639d4e3b01146102d1578063a457c2d714610301578063a9059cbb14610331578063dd62ed3e14610361578063f2fde38b1461039157610116565b80638526690a1461025b5780638da5cb5b146102775780638eaa9c911461029557806395d89b41146102b357610116565b8063313ce567116100e9578063313ce567146101b757806339509351146101d557806340c10f191461020557806370a0823114610221578063715018a61461025157610116565b806306fdde031461011b578063095ea7b31461013957806318160ddd1461016957806323b872dd14610187575b600080fd5b6101236103ad565b6040516101309190611734565b60405180910390f35b610153600480360381019061014e9190611456565b61043f565b60405161016091906116fe565b60405180910390f35b61017161045d565b60405161017e91906118d6565b60405180910390f35b6101a1600480360381019061019c9190611407565b610467565b6040516101ae91906116fe565b60405180910390f35b6101bf610568565b6040516101cc91906118f1565b60405180910390f35b6101ef60048036038101906101ea9190611456565b610571565b6040516101fc91906116fe565b60405180910390f35b61021f600480360381019061021a9190611456565b61061d565b005b61023b600480360381019061023691906113a2565b6106bb565b60405161024891906118d6565b60405180910390f35b610259610704565b005b61027560048036038101906102709190611492565b61083e565b005b61027f6108fe565b60405161028c91906116e3565b60405180910390f35b61029d610927565b6040516102aa9190611719565b60405180910390f35b6102bb61094d565b6040516102c89190611734565b60405180910390f35b6102eb60048036038101906102e69190611456565b6109df565b6040516102f891906116fe565b60405180910390f35b61031b60048036038101906103169190611456565b610a72565b60405161032891906116fe565b60405180910390f35b61034b60048036038101906103469190611456565b610b66565b60405161035891906116fe565b60405180910390f35b61037b600480360381019061037691906113cb565b610b84565b60405161038891906118d6565b60405180910390f35b6103ab60048036038101906103a691906113a2565b610c0b565b005b6060600480546103bc90611a70565b80601f01602080910402602001604051908101604052809291908181526020018280546103e890611a70565b80156104355780601f1061040a57610100808354040283529160200191610435565b820191906000526020600020905b81548152906001019060200180831161041857829003601f168201915b5050505050905090565b600061045361044c610db4565b8484610dbc565b6001905092915050565b6000600354905090565b6000610474848484610f87565b6000600260008673ffffffffffffffffffffffffffffffffffffffff1673ffffffffffffffffffffffffffffffffffffffff16815260200190815260200160002060006104bf610db4565b73ffffffffffffffffffffffffffffffffffffffff1673ffffffffffffffffffffffffffffffffffffffff1681526020019081526020016000205490508281101561053f576040517f08c379a0000000000000000000000000000000000000000000000000000000008152600401610536906117f6565b60405180910390fd5b61055c8561054b610db4565b8584610557919061197e565b610dbc565b60019150509392505050565b60006012905090565b600061061361057e610db4565b84846002600061058c610db4565b73ffffffffffffffffffffffffffffffffffffffff1673ffffffffffffffffffffffffffffffffffffffff16815260200190815260200160002060008873ffffffffffffffffffffffffffffffffffffffff1673ffffffffffffffffffffffffffffffffffffffff1681526020019081526020016000205461060e9190611928565b610dbc565b6001905092915050565b600660009054906101000a900473ffffffffffffffffffffffffffffffffffffffff1673ffffffffffffffffffffffffffffffffffffffff163373ffffffffffffffffffffffffffffffffffffffff16146106ad576040517f08c379a00000000000000000000000000000000000000000000000000000000081526004016106a490611876565b60405180910390fd5b6106b78282611209565b5050565b6000600160008373ffffffffffffffffffffffffffffffffffffffff1673ffffffffffffffffffffffffffffffffffffffff168152602001908152602001600020549050919050565b61070c610db4565b73ffffffffffffffffffffffffffffffffffffffff1661072a6108fe565b73ffffffffffffffffffffffffffffffffffffffff1614610780576040517f08c379a000000000000000000000000000000000000000000000000000000000815260040161077790611816565b60405180910390fd5b600073ffffffffffffffffffffffffffffffffffffffff1660008054906101000a900473ffffffffffffffffffffffffffffffffffffffff1673ffffffffffffffffffffffffffffffffffffffff167f8be0079c531659141344cd1fd0a4f28419497f9722a3daafe3b4186f6b6457e060405160405180910390a360008060006101000a81548173ffffffffffffffffffffffffffffffffffffffff021916908373ffffffffffffffffffffffffffffffffffffffff160217905550565b610846610db4565b73ffffffffffffffffffffffffffffffffffffffff166108646108fe565b73ffffffffffffffffffffffffffffffffffffffff16146108ba576040517f08c379a00000000000000000000000000000000000000000000000000000000081526004016108b190611816565b60405180910390fd5b80600660006101000a81548173ffffffffffffffffffffffffffffffffffffffff021916908373ffffffffffffffffffffffffffffffffffffffff16021790555050565b60008060009054906101000a900473ffffffffffffffffffffffffffffffffffffffff16905090565b600660009054906101000a900473ffffffffffffffffffffffffffffffffffffffff1681565b60606005805461095c90611a70565b80601f016020809104026020016040519081016040528092919081815260200182805461098890611a70565b80156109d55780601f106109aa576101008083540402835291602001916109d5565b820191906000526020600020905b8154815290600101906020018083116109b857829003601f168201915b5050505050905090565b6000816109eb846106bb565b1015610a2c576040517f08c379a0000000000000000000000000000000000000000000000000000000008152600401610a23906117d6565b60405180910390fd5b81610a5984600660009054906101000a900473ffffffffffffffffffffffffffffffffffffffff16610b84565b10610a675760019050610a6c565b600090505b92915050565b60008060026000610a81610db4565b73ffffffffffffffffffffffffffffffffffffffff1673ffffffffffffffffffffffffffffffffffffffff16815260200190815260200160002060008573ffffffffffffffffffffffffffffffffffffffff1673ffffffffffffffffffffffffffffffffffffffff16815260200190815260200160002054905082811015610b3e576040517f08c379a0000000000000000000000000000000000000000000000000000000008152600401610b3590611896565b60405180910390fd5b610b5b610b49610db4565b858584610b56919061197e565b610dbc565b600191505092915050565b6000610b7a610b73610db4565b8484610f87565b6001905092915050565b6000600260008473ffffffffffffffffffffffffffffffffffffffff1673ffffffffffffffffffffffffffffffffffffffff16815260200190815260200160002060008373ffffffffffffffffffffffffffffffffffffffff1673ffffffffffffffffffffffffffffffffffffffff16815260200190815260200160002054905092915050565b610c13610db4565b73ffffffffffffffffffffffffffffffffffffffff16610c316108fe565b73ffffffffffffffffffffffffffffffffffffffff1614610c87576040517f08c379a0000000000000000000000000000000000000000000000000000000008152600401610c7e90611816565b60405180910390fd5b600073ffffffffffffffffffffffffffffffffffffffff168173ffffffffffffffffffffffffffffffffffffffff161415610cf7576040517f08c379a0000000000000000000000000000000000000000000000000000000008152600401610cee90611776565b60405180910390fd5b8073ffffffffffffffffffffffffffffffffffffffff1660008054906101000a900473ffffffffffffffffffffffffffffffffffffffff1673ffffffffffffffffffffffffffffffffffffffff167f8be0079c531659141344cd1fd0a4f28419497f9722a3daafe3b4186f6b6457e060405160405180910390a3806000806101000a81548173ffffffffffffffffffffffffffffffffffffffff021916908373ffffffffffffffffffffffffffffffffffffffff16021790555050565b600033905090565b600073ffffffffffffffffffffffffffffffffffffffff168373ffffffffffffffffffffffffffffffffffffffff161415610e2c576040517f08c379a0000000000000000000000000000000000000000000000000000000008152600401610e2390611856565b60405180910390fd5b600073ffffffffffffffffffffffffffffffffffffffff168273ffffffffffffffffffffffffffffffffffffffff161415610e9c576040517f08c379a0000000000000000000000000000000000000000000000000000000008152600401610e9390611796565b60405180910390fd5b80600260008573ffffffffffffffffffffffffffffffffffffffff1673ffffffffffffffffffffffffffffffffffffffff16815260200190815260200160002060008473ffffffffffffffffffffffffffffffffffffffff1673ffffffffffffffffffffffffffffffffffffffff168152602001908152602001600020819055508173ffffffffffffffffffffffffffffffffffffffff168373ffffffffffffffffffffffffffffffffffffffff167f8c5be1e5ebec7d5bd14f71427d1e84f3dd0314c0f7b2291e5b200ac8c7c3b92583604051610f7a91906118d6565b60405180910390a3505050565b600073ffffffffffffffffffffffffffffffffffffffff168373ffffffffffffffffffffffffffffffffffffffff161415610ff7576040517f08c379a0000000000000000000000000000000000000000000000000000000008152600401610fee90611836565b60405180910390fd5b600073ffffffffffffffffffffffffffffffffffffffff168273ffffffffffffffffffffffffffffffffffffffff161415611067576040517f08c379a000000000000000000000000000000000000000000000000000000000815260040161105e90611756565b60405180910390fd5b61107283838361135e565b6000600160008573ffffffffffffffffffffffffffffffffffffffff1673ffffffffffffffffffffffffffffffffffffffff168152602001908152602001600020549050818110156110f9576040517f08c379a00000000000000000000000000000000000000000000000000000000081526004016110f0906117b6565b60405180910390fd5b8181611105919061197e565b600160008673ffffffffffffffffffffffffffffffffffffffff1673ffffffffffffffffffffffffffffffffffffffff1681526020019081526020016000208190555081600160008573ffffffffffffffffffffffffffffffffffffffff1673ffffffffffffffffffffffffffffffffffffffff16815260200190815260200160002060008282546111979190611928565b925050819055508273ffffffffffffffffffffffffffffffffffffffff168473ffffffffffffffffffffffffffffffffffffffff167fddf252ad1be2c89b69c2b068fc378daa952ba7f163c4a11628f55a4df523b3ef846040516111fb91906118d6565b60405180910390a350505050565b600073ffffffffffffffffffffffffffffffffffffffff168273ffffffffffffffffffffffffffffffffffffffff161415611279576040517f08c379a0000000000000000000000000000000000000000000000000000000008152600401611270906118b6565b60405180910390fd5b6112856000838361135e565b80600360008282546112979190611928565b9250508190555080600160008473ffffffffffffffffffffffffffffffffffffffff1673ffffffffffffffffffffffffffffffffffffffff16815260200190815260200160002060008282546112ed9190611928565b925050819055508173ffffffffffffffffffffffffffffffffffffffff16600073ffffffffffffffffffffffffffffffffffffffff167fddf252ad1be2c89b69c2b068fc378daa952ba7f163c4a11628f55a4df523b3ef8360405161135291906118d6565b60405180910390a35050565b505050565b60008135905061137281611e2d565b92915050565b60008135905061138781611e44565b92915050565b60008135905061139c81611e5b565b92915050565b6000602082840312156113b457600080fd5b60006113c284828501611363565b91505092915050565b600080604083850312156113de57600080fd5b60006113ec85828601611363565b92505060206113fd85828601611363565b9150509250929050565b60008060006060848603121561141c57600080fd5b600061142a86828701611363565b935050602061143b86828701611363565b925050604061144c8682870161138d565b9150509250925092565b6000806040838503121561146957600080fd5b600061147785828601611363565b92505060206114888582860161138d565b9150509250929050565b6000602082840312156114a457600080fd5b60006114b284828501611378565b91505092915050565b6114c4816119b2565b82525050565b6114d3816119c4565b82525050565b6114e281611a19565b82525050565b60006114f38261190c565b6114fd8185611917565b935061150d818560208601611a3d565b61151681611b00565b840191505092915050565b600061152e602383611917565b915061153982611b11565b604082019050919050565b6000611551602683611917565b915061155c82611b60565b604082019050919050565b6000611574602283611917565b915061157f82611baf565b604082019050919050565b6000611597602683611917565b91506115a282611bfe565b604082019050919050565b60006115ba600b83611917565b91506115c582611c4d565b602082019050919050565b60006115dd602883611917565b91506115e882611c76565b604082019050919050565b6000611600602083611917565b915061160b82611cc5565b602082019050919050565b6000611623602583611917565b915061162e82611cee565b604082019050919050565b6000611646602483611917565b915061165182611d3d565b604082019050919050565b6000611669600d83611917565b915061167482611d8c565b602082019050919050565b600061168c602583611917565b915061169782611db5565b604082019050919050565b60006116af601f83611917565b91506116ba82611e04565b602082019050919050565b6116ce81611a02565b82525050565b6116dd81611a0c565b82525050565b60006020820190506116f860008301846114bb565b92915050565b600060208201905061171360008301846114ca565b92915050565b600060208201905061172e60008301846114d9565b92915050565b6000602082019050818103600083015261174e81846114e8565b905092915050565b6000602082019050818103600083015261176f81611521565b9050919050565b6000602082019050818103600083015261178f81611544565b9050919050565b600060208201905081810360008301526117af81611567565b9050919050565b600060208201905081810360008301526117cf8161158a565b9050919050565b600060208201905081810360008301526117ef816115ad565b9050919050565b6000602082019050818103600083015261180f816115d0565b9050919050565b6000602082019050818103600083015261182f816115f3565b9050919050565b6000602082019050818103600083015261184f81611616565b9050919050565b6000602082019050818103600083015261186f81611639565b9050919050565b6000602082019050818103600083015261188f8161165c565b9050919050565b600060208201905081810360008301526118af8161167f565b9050919050565b600060208201905081810360008301526118cf816116a2565b9050919050565b60006020820190506118eb60008301846116c5565b92915050565b600060208201905061190660008301846116d4565b92915050565b600081519050919050565b600082825260208201905092915050565b600061193382611a02565b915061193e83611a02565b9250827fffffffffffffffffffffffffffffffffffffffffffffffffffffffffffffffff0382111561197357611972611aa2565b5b828201905092915050565b600061198982611a02565b915061199483611a02565b9250828210156119a7576119a6611aa2565b5b828203905092915050565b60006119bd826119e2565b9050919050565b60008115159050919050565b60006119db826119b2565b9050919050565b600073ffffffffffffffffffffffffffffffffffffffff82169050919050565b6000819050919050565b600060ff82169050919050565b6000611a2482611a2b565b9050919050565b6000611a36826119e2565b9050919050565b60005b83811015611a5b578082015181840152602081019050611a40565b83811115611a6a576000848401525b50505050565b60006002820490506001821680611a8857607f821691505b60208210811415611a9c57611a9b611ad1565b5b50919050565b7f4e487b7100000000000000000000000000000000000000000000000000000000600052601160045260246000fd5b7f4e487b7100000000000000000000000000000000000000000000000000000000600052602260045260246000fd5b6000601f19601f8301169050919050565b7f45524332303a207472616e7366657220746f20746865207a65726f206164647260008201527f6573730000000000000000000000000000000000000000000000000000000000602082015250565b7f4f776e61626c653a206e6577206f776e657220697320746865207a65726f206160008201527f6464726573730000000000000000000000000000000000000000000000000000602082015250565b7f45524332303a20617070726f766520746f20746865207a65726f20616464726560008201527f7373000000000000000000000000000000000000000000000000000000000000602082015250565b7f45524332303a207472616e7366657220616d6f756e742065786365656473206260008201527f616c616e63650000000000000000000000000000000000000000000000000000602082015250565b7f6c6f772062616c616e6365000000000000000000000000000000000000000000600082015250565b7f45524332303a207472616e7366657220616d6f756e742065786365656473206160008201527f6c6c6f77616e6365000000000000000000000000000000000000000000000000602082015250565b7f4f776e61626c653a2063616c6c6572206973206e6f7420746865206f776e6572600082015250565b7f45524332303a207472616e736665722066726f6d20746865207a65726f20616460008201527f6472657373000000000000000000000000000000000000000000000000000000602082015250565b7f45524332303a20617070726f76652066726f6d20746865207a65726f2061646460008201527f7265737300000000000000000000000000000000000000000000000000000000602082015250565b7f4163636573732064656e69656400000000000000000000000000000000000000600082015250565b7f45524332303a2064656372656173656420616c6c6f77616e63652062656c6f7760008201527f207a65726f000000000000000000000000000000000000000000000000000000602082015250565b7f45524332303a206d696e7420746f20746865207a65726f206164647265737300600082015250565b611e36816119b2565b8114611e4157600080fd5b50565b611e4d816119d0565b8114611e5857600080fd5b50565b611e6481611a02565b8114611e6f57600080fd5b5056fea26469706673582212208ddfa0c8866e448f213b79f2664d30ee17a73090a39e112bafee73a8af46e99164736f6c63430008040033",
  "immutableReferences": {},
  "source": "// SPDX-License-Identifier: MIT\r\nimport \"@openzeppelin/contracts/token/ERC20/ERC20.sol\";\r\nimport \"@openzeppelin/contracts/access/Ownable.sol\";\r\nimport \"./interfaces/IClient.sol\";\r\n\r\nimport \"./interfaces/IBSCV.sol\";\r\nimport \"./interfaces/IController.sol\";\r\n\r\npragma solidity 0.8.4;\r\n\r\ncontract BSCV is Ownable,ERC20(\"BSCGamble\",\"BSCV\"),IBSCV{\r\n    /* ========== States ========== */\r\n    IClient public Client;\r\n    \r\n    /* ========== Constructor ========== */\r\n    constructor(IClient _client){\r\n        Client = _client;\r\n    }\r\n\r\n    /* ========== Functions ========== */\r\n    /** * @dev mint desired number of tokens to the address \r\n    Only accessible by Client contract */ \r\n    function mint(address _to,uint256 _amount)external override onlyClient{\r\n        _mint(_to,_amount);\r\n    }\r\n\r\n    /** * @dev _beforeBet, a checking function that is \r\n    called during bet which returns bool*/ \r\n    function _beforeBet(address _from,uint256 _amount) external view override returns(bool result){\r\n        require(balanceOf(_from) >= _amount,\"low balance\");\r\n        if(allowance(_from,address(Client)) >= _amount){\r\n            result = true;\r\n        }else{\r\n            result = false;\r\n        }\r\n    }\r\n\r\n    /** * @dev allows to change Client contract accessible only by owner*/ \r\n    function setClient(IClient _client)public onlyOwner{\r\n        Client = _client;\r\n    }\r\n\r\n    /* ========== modifiers ========== */\r\n    modifier onlyClient{\r\n        require(msg.sender == address(Client),\"Access denied\");\r\n        _;\r\n    }\r\n}\r\n\r\n",
  "sourcePath": "C:/Users/Bharath/Desktop/fortunetta-contracts/contracts/BSCV.sol",
  "compiler": {
    "name": "solc",
    "version": "0.8.4+commit.c7e474f2.Emscripten.clang"
  },
  "schemaVersion": "3.4.1",
  "updatedAt": "2021-06-24T11:30:32.786Z",
  "devdoc": {
    "kind": "dev",
    "methods": {
      "_beforeBet(address,uint256)": {
        "details": "_beforeBet, a checking function that is  called during bet which returns bool"
      },
      "allowance(address,address)": {
        "details": "See {IERC20-allowance}."
      },
      "approve(address,uint256)": {
        "details": "See {IERC20-approve}. Requirements: - `spender` cannot be the zero address."
      },
      "balanceOf(address)": {
        "details": "See {IERC20-balanceOf}."
      },
      "decimals()": {
        "details": "Returns the number of decimals used to get its user representation. For example, if `decimals` equals `2`, a balance of `505` tokens should be displayed to a user as `5,05` (`505 / 10 ** 2`). Tokens usually opt for a value of 18, imitating the relationship between Ether and Wei. This is the value {ERC20} uses, unless this function is overridden; NOTE: This information is only used for _display_ purposes: it in no way affects any of the arithmetic of the contract, including {IERC20-balanceOf} and {IERC20-transfer}."
      },
      "decreaseAllowance(address,uint256)": {
        "details": "Atomically decreases the allowance granted to `spender` by the caller. This is an alternative to {approve} that can be used as a mitigation for problems described in {IERC20-approve}. Emits an {Approval} event indicating the updated allowance. Requirements: - `spender` cannot be the zero address. - `spender` must have allowance for the caller of at least `subtractedValue`."
      },
      "increaseAllowance(address,uint256)": {
        "details": "Atomically increases the allowance granted to `spender` by the caller. This is an alternative to {approve} that can be used as a mitigation for problems described in {IERC20-approve}. Emits an {Approval} event indicating the updated allowance. Requirements: - `spender` cannot be the zero address."
      },
      "mint(address,uint256)": {
        "details": "mint desired number of tokens to the address  Only accessible by Client contract "
      },
      "name()": {
        "details": "Returns the name of the token."
      },
      "owner()": {
        "details": "Returns the address of the current owner."
      },
      "renounceOwnership()": {
        "details": "Leaves the contract without owner. It will not be possible to call `onlyOwner` functions anymore. Can only be called by the current owner. NOTE: Renouncing ownership will leave the contract without an owner, thereby removing any functionality that is only available to the owner."
      },
      "setClient(address)": {
        "details": "allows to change Client contract accessible only by owner"
      },
      "symbol()": {
        "details": "Returns the symbol of the token, usually a shorter version of the name."
      },
      "totalSupply()": {
        "details": "See {IERC20-totalSupply}."
      },
      "transfer(address,uint256)": {
        "details": "See {IERC20-transfer}. Requirements: - `recipient` cannot be the zero address. - the caller must have a balance of at least `amount`."
      },
      "transferFrom(address,address,uint256)": {
        "details": "See {IERC20-transferFrom}. Emits an {Approval} event indicating the updated allowance. This is not required by the EIP. See the note at the beginning of {ERC20}. Requirements: - `sender` and `recipient` cannot be the zero address. - `sender` must have a balance of at least `amount`. - the caller must have allowance for ``sender``'s tokens of at least `amount`."
      },
      "transferOwnership(address)": {
        "details": "Transfers ownership of the contract to a new account (`newOwner`). Can only be called by the current owner."
      }
    },
    "version": 1
  },
  "userdoc": {
    "kind": "user",
    "methods": {},
    "version": 1
  }
}