{
  "contractName": "Client",
  "abi": [
    {
      "inputs": [
        {
          "internalType": "contract IBSCV",
          "name": "_token",
          "type": "address"
        },
        {
          "internalType": "contract IController",
          "name": "_controller",
          "type": "address"
        },
        {
          "internalType": "uint32",
          "name": "_countdown",
          "type": "uint32"
        },
        {
          "internalType": "uint256",
          "name": "_restTime",
          "type": "uint256"
        }
      ],
      "stateMutability": "nonpayable",
      "type": "constructor"
    },
    {
      "anonymous": false,
      "inputs": [
        {
          "indexed": true,
          "internalType": "address",
          "name": "previousOwner",
          "type": "address"
        },
        {
          "indexed": true,
          "internalType": "address",
          "name": "newOwner",
          "type": "address"
        }
      ],
      "name": "OwnershipTransferred",
      "type": "event"
    },
    {
      "anonymous": false,
      "inputs": [
        {
          "indexed": false,
          "internalType": "uint32",
          "name": "userID",
          "type": "uint32"
        },
        {
          "indexed": false,
          "internalType": "uint256",
          "name": "choice",
          "type": "uint256"
        },
        {
          "indexed": false,
          "internalType": "uint256",
          "name": "_amount",
          "type": "uint256"
        }
      ],
      "name": "betPlaced",
      "type": "event"
    },
    {
      "anonymous": false,
      "inputs": [
        {
          "indexed": false,
          "internalType": "uint256",
          "name": "roundId",
          "type": "uint256"
        }
      ],
      "name": "roundCreated",
      "type": "event"
    },
    {
      "inputs": [],
      "name": "BSCV",
      "outputs": [
        {
          "internalType": "contract IBSCV",
          "name": "",
          "type": "address"
        }
      ],
      "stateMutability": "view",
      "type": "function"
    },
    {
      "inputs": [],
      "name": "Controller",
      "outputs": [
        {
          "internalType": "contract IController",
          "name": "",
          "type": "address"
        }
      ],
      "stateMutability": "view",
      "type": "function"
    },
    {
      "inputs": [],
      "name": "Countdown",
      "outputs": [
        {
          "internalType": "uint32",
          "name": "",
          "type": "uint32"
        }
      ],
      "stateMutability": "view",
      "type": "function"
    },
    {
      "inputs": [],
      "name": "Tax",
      "outputs": [
        {
          "internalType": "uint256",
          "name": "",
          "type": "uint256"
        }
      ],
      "stateMutability": "view",
      "type": "function"
    },
    {
      "inputs": [],
      "name": "owner",
      "outputs": [
        {
          "internalType": "address",
          "name": "",
          "type": "address"
        }
      ],
      "stateMutability": "view",
      "type": "function"
    },
    {
      "inputs": [],
      "name": "renounceOwnership",
      "outputs": [],
      "stateMutability": "nonpayable",
      "type": "function"
    },
    {
      "inputs": [],
      "name": "restTime",
      "outputs": [
        {
          "internalType": "uint256",
          "name": "",
          "type": "uint256"
        }
      ],
      "stateMutability": "view",
      "type": "function"
    },
    {
      "inputs": [
        {
          "internalType": "address",
          "name": "newOwner",
          "type": "address"
        }
      ],
      "name": "transferOwnership",
      "outputs": [],
      "stateMutability": "nonpayable",
      "type": "function"
    },
    {
      "inputs": [
        {
          "internalType": "uint256",
          "name": "_choice",
          "type": "uint256"
        },
        {
          "internalType": "uint256",
          "name": "_amount",
          "type": "uint256"
        }
      ],
      "name": "bet",
      "outputs": [
        {
          "internalType": "uint32",
          "name": "_userID",
          "type": "uint32"
        },
        {
          "internalType": "uint256",
          "name": "amount",
          "type": "uint256"
        },
        {
          "internalType": "string",
          "name": "result",
          "type": "string"
        }
      ],
      "stateMutability": "nonpayable",
      "type": "function"
    },
    {
      "inputs": [
        {
          "internalType": "uint32",
          "name": "_userId",
          "type": "uint32"
        },
        {
          "internalType": "uint256",
          "name": "_choice",
          "type": "uint256"
        },
        {
          "internalType": "uint256",
          "name": "_betAmount",
          "type": "uint256"
        }
      ],
      "name": "betManager",
      "outputs": [
        {
          "internalType": "uint256",
          "name": "",
          "type": "uint256"
        }
      ],
      "stateMutability": "nonpayable",
      "type": "function"
    },
    {
      "inputs": [],
      "name": "collectRewards",
      "outputs": [],
      "stateMutability": "nonpayable",
      "type": "function"
    },
    {
      "inputs": [
        {
          "internalType": "uint256",
          "name": "_roundId",
          "type": "uint256"
        }
      ],
      "name": "getRoundInfo",
      "outputs": [
        {
          "internalType": "uint256",
          "name": "roundId",
          "type": "uint256"
        },
        {
          "internalType": "uint256",
          "name": "start",
          "type": "uint256"
        },
        {
          "internalType": "uint256",
          "name": "end",
          "type": "uint256"
        },
        {
          "internalType": "address[]",
          "name": "bettingAddressesOnOne",
          "type": "address[]"
        },
        {
          "internalType": "uint256[]",
          "name": "bettingAmountsOnOne",
          "type": "uint256[]"
        },
        {
          "internalType": "address[]",
          "name": "bettingAddressesOnTwo",
          "type": "address[]"
        },
        {
          "internalType": "uint256[]",
          "name": "bettingAmountsOnTwo",
          "type": "uint256[]"
        },
        {
          "internalType": "address[]",
          "name": "bettingAddressesOnThree",
          "type": "address[]"
        },
        {
          "internalType": "uint256[]",
          "name": "bettingAmountsOnThree",
          "type": "uint256[]"
        },
        {
          "internalType": "uint256",
          "name": "winningChoice",
          "type": "uint256"
        },
        {
          "internalType": "uint256",
          "name": "totalPrize",
          "type": "uint256"
        }
      ],
      "stateMutability": "view",
      "type": "function"
    },
    {
      "inputs": [
        {
          "internalType": "address",
          "name": "_user",
          "type": "address"
        }
      ],
      "name": "getPendingRewards",
      "outputs": [
        {
          "internalType": "uint256",
          "name": "",
          "type": "uint256"
        }
      ],
      "stateMutability": "view",
      "type": "function"
    },
    {
      "inputs": [],
      "name": "currentInfo",
      "outputs": [
        {
          "internalType": "address[]",
          "name": "",
          "type": "address[]"
        },
        {
          "internalType": "uint256[]",
          "name": "",
          "type": "uint256[]"
        },
        {
          "internalType": "address[]",
          "name": "",
          "type": "address[]"
        },
        {
          "internalType": "uint256[]",
          "name": "",
          "type": "uint256[]"
        },
        {
          "internalType": "address[]",
          "name": "",
          "type": "address[]"
        },
        {
          "internalType": "uint256[]",
          "name": "",
          "type": "uint256[]"
        },
        {
          "internalType": "uint256",
          "name": "",
          "type": "uint256"
        }
      ],
      "stateMutability": "view",
      "type": "function"
    },
    {
      "inputs": [
        {
          "internalType": "address",
          "name": "_address",
          "type": "address"
        }
      ],
      "name": "getUserId",
      "outputs": [
        {
          "internalType": "uint32",
          "name": "",
          "type": "uint32"
        }
      ],
      "stateMutability": "view",
      "type": "function"
    },
    {
      "inputs": [
        {
          "internalType": "uint32",
          "name": "_userId",
          "type": "uint32"
        }
      ],
      "name": "getUserInfo",
      "outputs": [
        {
          "internalType": "uint32",
          "name": "UserID",
          "type": "uint32"
        },
        {
          "internalType": "uint32",
          "name": "Level",
          "type": "uint32"
        },
        {
          "internalType": "uint256",
          "name": "PendingRewards",
          "type": "uint256"
        },
        {
          "internalType": "uint256",
          "name": "CollectedRewards",
          "type": "uint256"
        },
        {
          "internalType": "uint256",
          "name": "LockTill",
          "type": "uint256"
        },
        {
          "internalType": "uint256",
          "name": "BetCounts",
          "type": "uint256"
        },
        {
          "internalType": "bool",
          "name": "Approve",
          "type": "bool"
        }
      ],
      "stateMutability": "view",
      "type": "function"
    },
    {
      "inputs": [],
      "name": "totalUsers",
      "outputs": [
        {
          "internalType": "uint256",
          "name": "",
          "type": "uint256"
        }
      ],
      "stateMutability": "view",
      "type": "function"
    },
    {
      "inputs": [
        {
          "internalType": "uint256",
          "name": "_choice",
          "type": "uint256"
        }
      ],
      "name": "setWinningChoice",
      "outputs": [],
      "stateMutability": "nonpayable",
      "type": "function"
    },
    {
      "inputs": [
        {
          "internalType": "uint32",
          "name": "_userId",
          "type": "uint32"
        }
      ],
      "name": "unapproveUser",
      "outputs": [],
      "stateMutability": "nonpayable",
      "type": "function"
    },
    {
      "inputs": [
        {
          "internalType": "uint32",
          "name": "_userId",
          "type": "uint32"
        }
      ],
      "name": "approveUser",
      "outputs": [],
      "stateMutability": "nonpayable",
      "type": "function"
    },
    {
      "inputs": [],
      "name": "createRound",
      "outputs": [
        {
          "internalType": "uint256",
          "name": "",
          "type": "uint256"
        }
      ],
      "stateMutability": "nonpayable",
      "type": "function"
    },
    {
      "inputs": [
        {
          "internalType": "uint256",
          "name": "_userId",
          "type": "uint256"
        },
        {
          "internalType": "uint256",
          "name": "_amounts",
          "type": "uint256"
        }
      ],
      "name": "addRewards",
      "outputs": [],
      "stateMutability": "nonpayable",
      "type": "function"
    },
    {
      "inputs": [
        {
          "internalType": "uint32",
          "name": "_countdown",
          "type": "uint32"
        }
      ],
      "name": "setCountdown",
      "outputs": [],
      "stateMutability": "nonpayable",
      "type": "function"
    },
    {
      "inputs": [
        {
          "internalType": "contract IBSCV",
          "name": "_token",
          "type": "address"
        }
      ],
      "name": "setBSCV",
      "outputs": [],
      "stateMutability": "nonpayable",
      "type": "function"
    },
    {
      "inputs": [
        {
          "internalType": "contract IController",
          "name": "_controller",
          "type": "address"
        }
      ],
      "name": "setController",
      "outputs": [],
      "stateMutability": "nonpayable",
      "type": "function"
    },
    {
      "inputs": [
        {
          "internalType": "uint256",
          "name": "_rest",
          "type": "uint256"
        }
      ],
      "name": "setRestTime",
      "outputs": [],
      "stateMutability": "nonpayable",
      "type": "function"
    }
  ],
  "bytecode": "0x6080604052600a6008553480156200001657600080fd5b5060405162004ae438038062004ae483398181016040528101906200003c919062000204565b60006200004e620001a060201b60201c565b9050806000806101000a81548173ffffffffffffffffffffffffffffffffffffffff021916908373ffffffffffffffffffffffffffffffffffffffff1602179055508073ffffffffffffffffffffffffffffffffffffffff16600073ffffffffffffffffffffffffffffffffffffffff167f8be0079c531659141344cd1fd0a4f28419497f9722a3daafe3b4186f6b6457e060405160405180910390a35083600160006101000a81548173ffffffffffffffffffffffffffffffffffffffff021916908373ffffffffffffffffffffffffffffffffffffffff16021790555082600260006101000a81548173ffffffffffffffffffffffffffffffffffffffff021916908373ffffffffffffffffffffffffffffffffffffffff16021790555081600560006101000a81548163ffffffff021916908363ffffffff16021790555080600981905550505050506200034e565b600033905090565b600081519050620001b981620002e6565b92915050565b600081519050620001d08162000300565b92915050565b600081519050620001e7816200031a565b92915050565b600081519050620001fe8162000334565b92915050565b600080600080608085870312156200021b57600080fd5b60006200022b87828801620001a8565b94505060206200023e87828801620001bf565b93505060406200025187828801620001ed565b92505060606200026487828801620001d6565b91505092959194509250565b60006200027d82620002ac565b9050919050565b6000620002918262000270565b9050919050565b6000620002a58262000270565b9050919050565b600073ffffffffffffffffffffffffffffffffffffffff82169050919050565b6000819050919050565b600063ffffffff82169050919050565b620002f18162000284565b8114620002fd57600080fd5b50565b6200030b8162000298565b81146200031757600080fd5b50565b6200032581620002cc565b81146200033157600080fd5b50565b6200033f81620002d6565b81146200034b57600080fd5b50565b614786806200035e6000396000f3fe608060405234801561001057600080fd5b506004361061018e5760003560e01c80637f16cf78116100de578063c81db89511610097578063f2fde38b11610071578063f2fde38b14610465578063f6ed201714610481578063f9598128146104b1578063fc41aa09146104cd5761018e565b8063c81db8951461040f578063e9a16d6c1461042b578063edf341d8146104475761018e565b80637f16cf781461033d57806388c3ffb0146103595780638da5cb5b1461039357806392eefe9b146103b1578063bff1f9e1146103cd578063c4fc78c3146103eb5761018e565b80635edf8a6c1161014b5780636ffcc719116101255780636ffcc719146102db57806370bb45b31461030d578063715018a61461031757806375492744146103215761018e565b80635edf8a6c14610283578063646793561461029f5780636ea405d3146102bd5761018e565b80631acabb80146101935780631b411fc8146101b15780631dfc2185146101cf5780632b956ff7146101ed5780634d788a4c1461021d57806353f358e914610253575b600080fd5b61019b6104e9565b6040516101a89190613fa9565b60405180910390f35b6101b96104ff565b6040516101c69190613eb9565b60405180910390f35b6101d7610ad4565b6040516101e49190613d03565b60405180910390f35b610207600480360381019061020291906136f5565b610afa565b6040516102149190613fa9565b60405180910390f35b61023760048036038101906102329190613827565b610b53565b60405161024a9796959493929190614062565b60405180910390f35b61026d60048036038101906102689190613850565b610c05565b60405161027a9190613eb9565b60405180910390f35b61029d60048036038101906102989190613827565b61150f565b005b6102a761160c565b6040516102b49190613d1e565b60405180910390f35b6102c5611632565b6040516102d29190613eb9565b60405180910390f35b6102f560048036038101906102f091906137eb565b611638565b60405161030493929190613fed565b60405180910390f35b610315611a5b565b005b61031f611e66565b005b61033b60048036038101906103369190613827565b611fa0565b005b61035760048036038101906103529190613799565b612054565b005b610373600480360381019061036e9190613799565b6121e2565b60405161038a9b9a99989796959493929190613ed4565b60405180910390f35b61039b61253e565b6040516103a89190613bef565b60405180910390f35b6103cb60048036038101906103c69190613770565b612567565b005b6103d5612627565b6040516103e29190613eb9565b60405180910390f35b6103f3612634565b6040516104069796959493929190613c6a565b60405180910390f35b61042960048036038101906104249190613799565b6129f2565b005b61044560048036038101906104409190613827565b612a78565b005b61044f612b75565b60405161045c9190613eb9565b60405180910390f35b61047f600480360381019061047a91906136f5565b612b7b565b005b61049b600480360381019061049691906136f5565b612d24565b6040516104a89190613eb9565b60405180910390f35b6104cb60048036038101906104c69190613747565b612ece565b005b6104e760048036038101906104e291906137eb565b612f8e565b005b600560009054906101000a900463ffffffff1681565b6000600260009054906101000a900473ffffffffffffffffffffffffffffffffffffffff1673ffffffffffffffffffffffffffffffffffffffff163373ffffffffffffffffffffffffffffffffffffffff1614610591576040517f08c379a000000000000000000000000000000000000000000000000000000000815260040161058890613e79565b60405180910390fd5b6000600260009054906101000a900473ffffffffffffffffffffffffffffffffffffffff1673ffffffffffffffffffffffffffffffffffffffff16635727e25d6040518163ffffffff1660e01b815260040160206040518083038186803b1580156105fb57600080fd5b505afa15801561060f573d6000803e3d6000fd5b505050506040513d601f19601f8201168201806040525081019061063391906137c2565b905060006040518061016001604052808381526020014363ffffffff168152602001600560009054906101000a900463ffffffff164361067391906141b5565b63ffffffff168152602001600067ffffffffffffffff8111156106bf577f4e487b7100000000000000000000000000000000000000000000000000000000600052604160045260246000fd5b6040519080825280602002602001820160405280156106ed5781602001602082028036833780820191505090505b508152602001600067ffffffffffffffff811115610734577f4e487b7100000000000000000000000000000000000000000000000000000000600052604160045260246000fd5b6040519080825280602002602001820160405280156107625781602001602082028036833780820191505090505b508152602001600067ffffffffffffffff8111156107a9577f4e487b7100000000000000000000000000000000000000000000000000000000600052604160045260246000fd5b6040519080825280602002602001820160405280156107d75781602001602082028036833780820191505090505b508152602001600067ffffffffffffffff81111561081e577f4e487b7100000000000000000000000000000000000000000000000000000000600052604160045260246000fd5b60405190808252806020026020018201604052801561084c5781602001602082028036833780820191505090505b508152602001600067ffffffffffffffff811115610893577f4e487b7100000000000000000000000000000000000000000000000000000000600052604160045260246000fd5b6040519080825280602002602001820160405280156108c15781602001602082028036833780820191505090505b508152602001600067ffffffffffffffff811115610908577f4e487b7100000000000000000000000000000000000000000000000000000000600052604160045260246000fd5b6040519080825280602002602001820160405280156109365781602001602082028036833780820191505090505b508152602001600081526020016000815250905060038190806001815401808255809150506001900390600052602060002090600a02016000909190919091506000820151816000015560208201518160010160006101000a81548163ffffffff021916908363ffffffff16021790555060408201518160010160046101000a81548163ffffffff021916908363ffffffff16021790555060608201518160020190805190602001906109ea92919061356e565b506080820151816003019080519060200190610a079291906135f8565b5060a0820151816004019080519060200190610a2492919061356e565b5060c0820151816005019080519060200190610a419291906135f8565b5060e0820151816006019080519060200190610a5e92919061356e565b50610100820151816007019080519060200190610a7c9291906135f8565b506101208201518160080155610140820151816009015550507ff9465e09a9cd4cd6a0d6a75077f9781249102ba59ba6631015ceebee6616e0be82604051610ac49190613eb9565b60405180910390a1819250505090565b600160009054906101000a900473ffffffffffffffffffffffffffffffffffffffff1681565b6000600660008373ffffffffffffffffffffffffffffffffffffffff1673ffffffffffffffffffffffffffffffffffffffff16815260200190815260200160002060009054906101000a900463ffffffff169050919050565b60008060008060008060008060048963ffffffff1681548110610b9f577f4e487b7100000000000000000000000000000000000000000000000000000000600052603260045260246000fd5b906000526020600020906006020190508897508060000160049054906101000a900463ffffffff169650806001015495508060020154945080600301549350806004015492508060050160009054906101000a900460ff16915050919395979092949650565b6000600115156004600660003373ffffffffffffffffffffffffffffffffffffffff1673ffffffffffffffffffffffffffffffffffffffff16815260200190815260200160002060009054906101000a900463ffffffff1663ffffffff1681548110610c9a577f4e487b7100000000000000000000000000000000000000000000000000000000600052603260045260246000fd5b906000526020600020906006020160050160009054906101000a900460ff16151514610cfb576040517f08c379a0000000000000000000000000000000000000000000000000000000008152600401610cf290613df9565b60405180910390fd5b436004600660003373ffffffffffffffffffffffffffffffffffffffff1673ffffffffffffffffffffffffffffffffffffffff16815260200190815260200160002060009054906101000a900463ffffffff1663ffffffff1681548110610d8b577f4e487b7100000000000000000000000000000000000000000000000000000000600052603260045260246000fd5b90600052602060002090600602016003015410610ddd576040517f08c379a0000000000000000000000000000000000000000000000000000000008152600401610dd490613e99565b60405180910390fd5b600083118015610ded5750600483105b610e2c576040517f08c379a0000000000000000000000000000000000000000000000000000000008152600401610e2390613d39565b60405180910390fd5b8363ffffffff16600660003373ffffffffffffffffffffffffffffffffffffffff1673ffffffffffffffffffffffffffffffffffffffff16815260200190815260200160002060009054906101000a900463ffffffff1663ffffffff1614610ec9576040517f08c379a0000000000000000000000000000000000000000000000000000000008152600401610ec090613d99565b60405180910390fd5b6000600260009054906101000a900473ffffffffffffffffffffffffffffffffffffffff1673ffffffffffffffffffffffffffffffffffffffff16635727e25d6040518163ffffffff1660e01b815260040160206040518083038186803b158015610f3357600080fd5b505afa158015610f47573d6000803e3d6000fd5b505050506040513d601f19601f82011682018060405250810190610f6b91906137c2565b9050600060038281548110610fa9577f4e487b7100000000000000000000000000000000000000000000000000000000600052603260045260246000fd5b90600052602060002090600a020190504363ffffffff168160010160049054906101000a900463ffffffff1663ffffffff161161101b576040517f08c379a000000000000000000000000000000000000000000000000000000000815260040161101290613e39565b60405180910390fd5b60018514156110b55780600201339080600181540180825580915050600190039060005260206000200160009091909190916101000a81548173ffffffffffffffffffffffffffffffffffffffff021916908373ffffffffffffffffffffffffffffffffffffffff160217905550806003018490806001815401808255809150506001900390600052602060002001600090919091909150555b600285141561114f5780600401339080600181540180825580915050600190039060005260206000200160009091909190916101000a81548173ffffffffffffffffffffffffffffffffffffffff021916908373ffffffffffffffffffffffffffffffffffffffff160217905550806005018490806001815401808255809150506001900390600052602060002001600090919091909150555b60038514156111e95780600601339080600181540180825580915050600190039060005260206000200160009091909190916101000a81548173ffffffffffffffffffffffffffffffffffffffff021916908373ffffffffffffffffffffffffffffffffffffffff160217905550806007018490806001815401808255809150506001900390600052602060002001600090919091909150555b60006064600854866111fb9190614220565b61120591906141ef565b9050600160009054906101000a900473ffffffffffffffffffffffffffffffffffffffff1673ffffffffffffffffffffffffffffffffffffffff166323b872dd3330886040518463ffffffff1660e01b815260040161126693929190613c0a565b602060405180830381600087803b15801561128057600080fd5b505af1158015611294573d6000803e3d6000fd5b505050506040513d601f19601f820116820180604052508101906112b8919061371e565b50600160009054906101000a900473ffffffffffffffffffffffffffffffffffffffff1673ffffffffffffffffffffffffffffffffffffffff166323b872dd33600260009054906101000a900473ffffffffffffffffffffffffffffffffffffffff16846040518463ffffffff1660e01b815260040161133a93929190613c0a565b602060405180830381600087803b15801561135457600080fd5b505af1158015611368573d6000803e3d6000fd5b505050506040513d601f19601f8201168201806040525081019061138c919061371e565b50848260090160008282546113a1919061415f565b92505081905550600954436113b6919061415f565b60048863ffffffff16815481106113f6577f4e487b7100000000000000000000000000000000000000000000000000000000600052603260045260246000fd5b90600052602060002090600602016003018190555060048763ffffffff168154811061144b577f4e487b7100000000000000000000000000000000000000000000000000000000600052603260045260246000fd5b9060005260206000209060060201600401600081548092919061146d90614383565b919050555084600760003373ffffffffffffffffffffffffffffffffffffffff1673ffffffffffffffffffffffffffffffffffffffff1681526020019081526020016000206000858152602001908152602001600020819055507fc005b057c2aad4d08e9554183001b5d6d1b5014dae6f52622d409cf1483628b58787876040516114fa9392919061402b565b60405180910390a18093505050509392505050565b600260009054906101000a900473ffffffffffffffffffffffffffffffffffffffff1673ffffffffffffffffffffffffffffffffffffffff163373ffffffffffffffffffffffffffffffffffffffff161461159f576040517f08c379a000000000000000000000000000000000000000000000000000000000815260040161159690613e79565b60405180910390fd5b600160048263ffffffff16815481106115e1577f4e487b7100000000000000000000000000000000000000000000000000000000600052603260045260246000fd5b906000526020600020906006020160050160006101000a81548160ff02191690831515021790555050565b600260009054906101000a900473ffffffffffffffffffffffffffffffffffffffff1681565b60085481565b600080606060008511801561164d5750600485105b61168c576040517f08c379a000000000000000000000000000000000000000000000000000000000815260040161168390613d39565b60405180910390fd5b60011515600160009054906101000a900473ffffffffffffffffffffffffffffffffffffffff1673ffffffffffffffffffffffffffffffffffffffff16639d4e3b0133876040518363ffffffff1660e01b81526004016116ed929190613c41565b602060405180830381600087803b15801561170757600080fd5b505af115801561171b573d6000803e3d6000fd5b505050506040513d601f19601f8201168201806040525081019061173f919061371e565b151514611781576040517f08c379a000000000000000000000000000000000000000000000000000000000815260040161177890613d59565b60405180910390fd5b6000600260009054906101000a900473ffffffffffffffffffffffffffffffffffffffff1673ffffffffffffffffffffffffffffffffffffffff16635727e25d6040518163ffffffff1660e01b815260040160206040518083038186803b1580156117eb57600080fd5b505afa1580156117ff573d6000803e3d6000fd5b505050506040513d601f19601f8201168201806040525081019061182391906137c2565b90506000600760003373ffffffffffffffffffffffffffffffffffffffff1673ffffffffffffffffffffffffffffffffffffffff168152602001908152602001600020600083815260200190815260200160002054146118b8576040517f08c379a00000000000000000000000000000000000000000000000000000000081526004016118af90613db9565b60405180910390fd5b60006118c333613084565b9050600115158115151415611a0c576000600660003373ffffffffffffffffffffffffffffffffffffffff1673ffffffffffffffffffffffffffffffffffffffff16815260200190815260200160002060009054906101000a900463ffffffff169050600060048263ffffffff1681548110611968577f4e487b7100000000000000000000000000000000000000000000000000000000600052603260045260246000fd5b906000526020600020906006020190506000808260000160049054906101000a900463ffffffff168360040154915091506119a4848383613245565b60006119b1858d8d610c05565b905084818c6119c0919061415f565b6040518060400160405280600a81526020017f42696420506c6163656400000000000000000000000000000000000000000000815250809a50819b50829c505050505050505050611a52565b6000866040518060400160405280601281526020017f506c6163696e6720426964204661696c656400000000000000000000000000008152508095508196508297505050505b50509250925092565b600115156004600660003373ffffffffffffffffffffffffffffffffffffffff1673ffffffffffffffffffffffffffffffffffffffff16815260200190815260200160002060009054906101000a900463ffffffff1663ffffffff1681548110611aee577f4e487b7100000000000000000000000000000000000000000000000000000000600052603260045260246000fd5b906000526020600020906006020160050160009054906101000a900460ff16151514611b4f576040517f08c379a0000000000000000000000000000000000000000000000000000000008152600401611b4690613df9565b60405180910390fd5b6000600660003373ffffffffffffffffffffffffffffffffffffffff1673ffffffffffffffffffffffffffffffffffffffff16815260200190815260200160002060009054906101000a900463ffffffff1663ffffffff1690506000611bb433612d24565b9050600160009054906101000a900473ffffffffffffffffffffffffffffffffffffffff1673ffffffffffffffffffffffffffffffffffffffff166370a08231306040518263ffffffff1660e01b8152600401611c119190613bef565b60206040518083038186803b158015611c2957600080fd5b505afa158015611c3d573d6000803e3d6000fd5b505050506040513d601f19601f82011682018060405250810190611c6191906137c2565b811015611d1f57600160009054906101000a900473ffffffffffffffffffffffffffffffffffffffff1673ffffffffffffffffffffffffffffffffffffffff166323b872dd3033846040518463ffffffff1660e01b8152600401611cc793929190613c0a565b602060405180830381600087803b158015611ce157600080fd5b505af1158015611cf5573d6000803e3d6000fd5b505050506040513d601f19601f82011682018060405250810190611d19919061371e565b50611daf565b600160009054906101000a900473ffffffffffffffffffffffffffffffffffffffff1673ffffffffffffffffffffffffffffffffffffffff166340c10f1933836040518363ffffffff1660e01b8152600401611d7c929190613c41565b600060405180830381600087803b158015611d9657600080fd5b505af1158015611daa573d6000803e3d6000fd5b505050505b8060048381548110611dea577f4e487b7100000000000000000000000000000000000000000000000000000000600052603260045260246000fd5b90600052602060002090600602016002016000828254611e0a919061415f565b92505081905550600060048381548110611e4d577f4e487b7100000000000000000000000000000000000000000000000000000000600052603260045260246000fd5b9060005260206000209060060201600101819055505050565b611e6e61339a565b73ffffffffffffffffffffffffffffffffffffffff16611e8c61253e565b73ffffffffffffffffffffffffffffffffffffffff1614611ee2576040517f08c379a0000000000000000000000000000000000000000000000000000000008152600401611ed990613e19565b60405180910390fd5b600073ffffffffffffffffffffffffffffffffffffffff1660008054906101000a900473ffffffffffffffffffffffffffffffffffffffff1673ffffffffffffffffffffffffffffffffffffffff167f8be0079c531659141344cd1fd0a4f28419497f9722a3daafe3b4186f6b6457e060405160405180910390a360008060006101000a81548173ffffffffffffffffffffffffffffffffffffffff021916908373ffffffffffffffffffffffffffffffffffffffff160217905550565b600260009054906101000a900473ffffffffffffffffffffffffffffffffffffffff1673ffffffffffffffffffffffffffffffffffffffff163373ffffffffffffffffffffffffffffffffffffffff1614612030576040517f08c379a000000000000000000000000000000000000000000000000000000000815260040161202790613e79565b60405180910390fd5b80600560006101000a81548163ffffffff021916908363ffffffff16021790555050565b600260009054906101000a900473ffffffffffffffffffffffffffffffffffffffff1673ffffffffffffffffffffffffffffffffffffffff163373ffffffffffffffffffffffffffffffffffffffff16146120e4576040517f08c379a00000000000000000000000000000000000000000000000000000000081526004016120db90613e79565b60405180910390fd5b6000600260009054906101000a900473ffffffffffffffffffffffffffffffffffffffff1673ffffffffffffffffffffffffffffffffffffffff16635727e25d6040518163ffffffff1660e01b815260040160206040518083038186803b15801561214e57600080fd5b505afa158015612162573d6000803e3d6000fd5b505050506040513d601f19601f8201168201806040525081019061218691906137c2565b90506000600382815481106121c4577f4e487b7100000000000000000000000000000000000000000000000000000000600052603260045260246000fd5b90600052602060002090600a02019050828160080181905550505050565b6000806000606080606080606080600080600060038d8154811061222f577f4e487b7100000000000000000000000000000000000000000000000000000000600052603260045260246000fd5b90600052602060002090600a0201905080600001549b508060010160009054906101000a900463ffffffff1663ffffffff169a508060010160049054906101000a900463ffffffff1663ffffffff1699508060020180548060200260200160405190810160405280929190818152602001828054801561230457602002820191906000526020600020905b8160009054906101000a900473ffffffffffffffffffffffffffffffffffffffff1673ffffffffffffffffffffffffffffffffffffffff16815260200190600101908083116122ba575b505050505098508060030180548060200260200160405190810160405280929190818152602001828054801561235957602002820191906000526020600020905b815481526020019060010190808311612345575b50505050509750806004018054806020026020016040519081016040528092919081815260200182805480156123e457602002820191906000526020600020905b8160009054906101000a900473ffffffffffffffffffffffffffffffffffffffff1673ffffffffffffffffffffffffffffffffffffffff168152602001906001019080831161239a575b505050505096508060050180548060200260200160405190810160405280929190818152602001828054801561243957602002820191906000526020600020905b815481526020019060010190808311612425575b50505050509550806006018054806020026020016040519081016040528092919081815260200182805480156124c457602002820191906000526020600020905b8160009054906101000a900473ffffffffffffffffffffffffffffffffffffffff1673ffffffffffffffffffffffffffffffffffffffff168152602001906001019080831161247a575b505050505094508060070180548060200260200160405190810160405280929190818152602001828054801561251957602002820191906000526020600020905b815481526020019060010190808311612505575b5050505050935080600801549250806009015491505091939597999b90929496989a50565b60008060009054906101000a900473ffffffffffffffffffffffffffffffffffffffff16905090565b61256f61339a565b73ffffffffffffffffffffffffffffffffffffffff1661258d61253e565b73ffffffffffffffffffffffffffffffffffffffff16146125e3576040517f08c379a00000000000000000000000000000000000000000000000000000000081526004016125da90613e19565b60405180910390fd5b80600260006101000a81548173ffffffffffffffffffffffffffffffffffffffff021916908373ffffffffffffffffffffffffffffffffffffffff16021790555050565b6000600480549050905090565b606080606080606080600080600260009054906101000a900473ffffffffffffffffffffffffffffffffffffffff1673ffffffffffffffffffffffffffffffffffffffff16635727e25d6040518163ffffffff1660e01b815260040160206040518083038186803b1580156126a857600080fd5b505afa1580156126bc573d6000803e3d6000fd5b505050506040513d601f19601f820116820180604052508101906126e091906137c2565b905060006003828154811061271e577f4e487b7100000000000000000000000000000000000000000000000000000000600052603260045260246000fd5b90600052602060002090600a020190508060020181600301826004018360050184600601856007018660090154868054806020026020016040519081016040528092919081815260200182805480156127cc57602002820191906000526020600020905b8160009054906101000a900473ffffffffffffffffffffffffffffffffffffffff1673ffffffffffffffffffffffffffffffffffffffff1681526020019060010190808311612782575b505050505096508580548060200260200160405190810160405280929190818152602001828054801561281e57602002820191906000526020600020905b81548152602001906001019080831161280a575b50505050509550848054806020026020016040519081016040528092919081815260200182805480156128a657602002820191906000526020600020905b8160009054906101000a900473ffffffffffffffffffffffffffffffffffffffff1673ffffffffffffffffffffffffffffffffffffffff168152602001906001019080831161285c575b50505050509450838054806020026020016040519081016040528092919081815260200182805480156128f857602002820191906000526020600020905b8154815260200190600101908083116128e4575b505050505093508280548060200260200160405190810160405280929190818152602001828054801561298057602002820191906000526020600020905b8160009054906101000a900473ffffffffffffffffffffffffffffffffffffffff1673ffffffffffffffffffffffffffffffffffffffff1681526020019060010190808311612936575b50505050509250818054806020026020016040519081016040528092919081815260200182805480156129d257602002820191906000526020600020905b8154815260200190600101908083116129be575b505050505091509850985098509850985098509850505090919293949596565b6129fa61339a565b73ffffffffffffffffffffffffffffffffffffffff16612a1861253e565b73ffffffffffffffffffffffffffffffffffffffff1614612a6e576040517f08c379a0000000000000000000000000000000000000000000000000000000008152600401612a6590613e19565b60405180910390fd5b8060098190555050565b600260009054906101000a900473ffffffffffffffffffffffffffffffffffffffff1673ffffffffffffffffffffffffffffffffffffffff163373ffffffffffffffffffffffffffffffffffffffff1614612b08576040517f08c379a0000000000000000000000000000000000000000000000000000000008152600401612aff90613e79565b60405180910390fd5b600060048263ffffffff1681548110612b4a577f4e487b7100000000000000000000000000000000000000000000000000000000600052603260045260246000fd5b906000526020600020906006020160050160006101000a81548160ff02191690831515021790555050565b60095481565b612b8361339a565b73ffffffffffffffffffffffffffffffffffffffff16612ba161253e565b73ffffffffffffffffffffffffffffffffffffffff1614612bf7576040517f08c379a0000000000000000000000000000000000000000000000000000000008152600401612bee90613e19565b60405180910390fd5b600073ffffffffffffffffffffffffffffffffffffffff168173ffffffffffffffffffffffffffffffffffffffff161415612c67576040517f08c379a0000000000000000000000000000000000000000000000000000000008152600401612c5e90613d79565b60405180910390fd5b8073ffffffffffffffffffffffffffffffffffffffff1660008054906101000a900473ffffffffffffffffffffffffffffffffffffffff1673ffffffffffffffffffffffffffffffffffffffff167f8be0079c531659141344cd1fd0a4f28419497f9722a3daafe3b4186f6b6457e060405160405180910390a3806000806101000a81548173ffffffffffffffffffffffffffffffffffffffff021916908373ffffffffffffffffffffffffffffffffffffffff16021790555050565b6000600115156004600660003373ffffffffffffffffffffffffffffffffffffffff1673ffffffffffffffffffffffffffffffffffffffff16815260200190815260200160002060009054906101000a900463ffffffff1663ffffffff1681548110612db9577f4e487b7100000000000000000000000000000000000000000000000000000000600052603260045260246000fd5b906000526020600020906006020160050160009054906101000a900460ff16151514612e1a576040517f08c379a0000000000000000000000000000000000000000000000000000000008152600401612e1190613df9565b60405180910390fd5b6000600660008473ffffffffffffffffffffffffffffffffffffffff1673ffffffffffffffffffffffffffffffffffffffff16815260200190815260200160002060009054906101000a900463ffffffff169050600060048263ffffffff1681548110612eb0577f4e487b7100000000000000000000000000000000000000000000000000000000600052603260045260246000fd5b90600052602060002090600602019050806001015492505050919050565b612ed661339a565b73ffffffffffffffffffffffffffffffffffffffff16612ef461253e565b73ffffffffffffffffffffffffffffffffffffffff1614612f4a576040517f08c379a0000000000000000000000000000000000000000000000000000000008152600401612f4190613e19565b60405180910390fd5b80600160006101000a81548173ffffffffffffffffffffffffffffffffffffffff021916908373ffffffffffffffffffffffffffffffffffffffff16021790555050565b600260009054906101000a900473ffffffffffffffffffffffffffffffffffffffff1673ffffffffffffffffffffffffffffffffffffffff163373ffffffffffffffffffffffffffffffffffffffff161461301e576040517f08c379a000000000000000000000000000000000000000000000000000000000815260040161301590613e79565b60405180910390fd5b8060048381548110613059577f4e487b7100000000000000000000000000000000000000000000000000000000600052603260045260246000fd5b90600052602060002090600602016001016000828254613079919061415f565b925050819055505050565b60008063ffffffff16600660008473ffffffffffffffffffffffffffffffffffffffff1673ffffffffffffffffffffffffffffffffffffffff16815260200190815260200160002060009054906101000a900463ffffffff1663ffffffff1614156130f5576130f2826133a2565b50505b6000600660008473ffffffffffffffffffffffffffffffffffffffff1673ffffffffffffffffffffffffffffffffffffffff16815260200190815260200160002060009054906101000a900463ffffffff169050600060048263ffffffff168154811061318b577f4e487b7100000000000000000000000000000000000000000000000000000000600052603260045260246000fd5b9060005260206000209060060201905043816003015411156131e2576040517f08c379a00000000000000000000000000000000000000000000000000000000081526004016131d990613e59565b60405180910390fd5b600115158160050160009054906101000a900460ff1615151461323a576040517f08c379a000000000000000000000000000000000000000000000000000000000815260040161323190613dd9565b60405180910390fd5b600192505050919050565b6000600260009054906101000a900473ffffffffffffffffffffffffffffffffffffffff1673ffffffffffffffffffffffffffffffffffffffff1663d7bc2eb584846040518363ffffffff1660e01b81526004016132a4929190613fc4565b60206040518083038186803b1580156132bc57600080fd5b505afa1580156132d0573d6000803e3d6000fd5b505050506040513d601f19601f820116820180604052508101906132f4919061371e565b90506001151581151514156133945760048463ffffffff1681548110613343577f4e487b7100000000000000000000000000000000000000000000000000000000600052603260045260246000fd5b9060005260206000209060060201600001600481819054906101000a900463ffffffff1680929190613374906143cc565b91906101000a81548163ffffffff021916908363ffffffff160217905550505b50505050565b600033905090565b6060600080600480549050905060006040518060e001604052808363ffffffff168152602001600063ffffffff168152602001600063ffffffff168152602001600081526020016000815260200160008152602001600115158152509050600481908060018154018082558091505060019003906000526020600020906006020160009091909190915060008201518160000160006101000a81548163ffffffff021916908363ffffffff16021790555060208201518160000160046101000a81548163ffffffff021916908363ffffffff16021790555060408201518160010155606082015181600201556080820151816003015560a0820151816004015560c08201518160050160006101000a81548160ff021916908315150217905550505081600660008773ffffffffffffffffffffffffffffffffffffffff1673ffffffffffffffffffffffffffffffffffffffff16815260200190815260200160002060006101000a81548163ffffffff021916908363ffffffff160217905550816040518060400160405280600e81526020017f4372656174656420555345524944000000000000000000000000000000000000815250908063ffffffff169050935093505050915091565b8280548282559060005260206000209081019282156135e7579160200282015b828111156135e65782518260006101000a81548173ffffffffffffffffffffffffffffffffffffffff021916908373ffffffffffffffffffffffffffffffffffffffff1602179055509160200191906001019061358e565b5b5090506135f49190613645565b5090565b828054828255906000526020600020908101928215613634579160200282015b82811115613633578251825591602001919060010190613618565b5b5090506136419190613645565b5090565b5b8082111561365e576000816000905550600101613646565b5090565b600081359050613671816146c6565b92915050565b600081519050613686816146dd565b92915050565b60008135905061369b816146f4565b92915050565b6000813590506136b08161470b565b92915050565b6000813590506136c581614722565b92915050565b6000815190506136da81614722565b92915050565b6000813590506136ef81614739565b92915050565b60006020828403121561370757600080fd5b600061371584828501613662565b91505092915050565b60006020828403121561373057600080fd5b600061373e84828501613677565b91505092915050565b60006020828403121561375957600080fd5b60006137678482850161368c565b91505092915050565b60006020828403121561378257600080fd5b6000613790848285016136a1565b91505092915050565b6000602082840312156137ab57600080fd5b60006137b9848285016136b6565b91505092915050565b6000602082840312156137d457600080fd5b60006137e2848285016136cb565b91505092915050565b600080604083850312156137fe57600080fd5b600061380c858286016136b6565b925050602061381d858286016136b6565b9150509250929050565b60006020828403121561383957600080fd5b6000613847848285016136e0565b91505092915050565b60008060006060848603121561386557600080fd5b6000613873868287016136e0565b9350506020613884868287016136b6565b9250506040613895868287016136b6565b9150509250925092565b60006138ab83836138cf565b60208301905092915050565b60006138c38383613bb3565b60208301905092915050565b6138d88161427a565b82525050565b6138e78161427a565b82525050565b60006138f8826140f1565b613902818561412c565b935061390d836140d1565b8060005b8381101561393e578151613925888261389f565b975061393083614112565b925050600181019050613911565b5085935050505092915050565b6000613956826140fc565b613960818561413d565b935061396b836140e1565b8060005b8381101561399c57815161398388826138b7565b975061398e8361411f565b92505060018101905061396f565b5085935050505092915050565b6139b28161428c565b82525050565b6139c1816142f6565b82525050565b6139d08161431a565b82525050565b60006139e182614107565b6139eb818561414e565b93506139fb818560208601614350565b613a0481614457565b840191505092915050565b6000613a1c601b8361414e565b9150613a2782614468565b602082019050919050565b6000613a3f600f8361414e565b9150613a4a82614491565b602082019050919050565b6000613a6260268361414e565b9150613a6d826144ba565b604082019050919050565b6000613a8560298361414e565b9150613a9082614509565b604082019050919050565b6000613aa860208361414e565b9150613ab382614558565b602082019050919050565b6000613acb600f8361414e565b9150613ad682614581565b602082019050919050565b6000613aee600a8361414e565b9150613af9826145aa565b602082019050919050565b6000613b1160208361414e565b9150613b1c826145d3565b602082019050919050565b6000613b3460098361414e565b9150613b3f826145fc565b602082019050919050565b6000613b5760248361414e565b9150613b6282614625565b604082019050919050565b6000613b7a600d8361414e565b9150613b8582614674565b602082019050919050565b6000613b9d60128361414e565b9150613ba88261469d565b602082019050919050565b613bbc816142dc565b82525050565b613bcb816142dc565b82525050565b613bda8161433e565b82525050565b613be9816142e6565b82525050565b6000602082019050613c0460008301846138de565b92915050565b6000606082019050613c1f60008301866138de565b613c2c60208301856138de565b613c396040830184613bc2565b949350505050565b6000604082019050613c5660008301856138de565b613c636020830184613bc2565b9392505050565b600060e0820190508181036000830152613c84818a6138ed565b90508181036020830152613c98818961394b565b90508181036040830152613cac81886138ed565b90508181036060830152613cc0818761394b565b90508181036080830152613cd481866138ed565b905081810360a0830152613ce8818561394b565b9050613cf760c0830184613bc2565b98975050505050505050565b6000602082019050613d1860008301846139b8565b92915050565b6000602082019050613d3360008301846139c7565b92915050565b60006020820190508181036000830152613d5281613a0f565b9050919050565b60006020820190508181036000830152613d7281613a32565b9050919050565b60006020820190508181036000830152613d9281613a55565b9050919050565b60006020820190508181036000830152613db281613a78565b9050919050565b60006020820190508181036000830152613dd281613a9b565b9050919050565b60006020820190508181036000830152613df281613abe565b9050919050565b60006020820190508181036000830152613e1281613ae1565b9050919050565b60006020820190508181036000830152613e3281613b04565b9050919050565b60006020820190508181036000830152613e5281613b27565b9050919050565b60006020820190508181036000830152613e7281613b4a565b9050919050565b60006020820190508181036000830152613e9281613b6d565b9050919050565b60006020820190508181036000830152613eb281613b90565b9050919050565b6000602082019050613ece6000830184613bc2565b92915050565b600061016082019050613eea600083018e613bc2565b613ef7602083018d613bc2565b613f04604083018c613bc2565b8181036060830152613f16818b6138ed565b90508181036080830152613f2a818a61394b565b905081810360a0830152613f3e81896138ed565b905081810360c0830152613f52818861394b565b905081810360e0830152613f6681876138ed565b9050818103610100830152613f7b818661394b565b9050613f8b610120830185613bc2565b613f99610140830184613bc2565b9c9b505050505050505050505050565b6000602082019050613fbe6000830184613be0565b92915050565b6000604082019050613fd96000830185613bd1565b613fe66020830184613bc2565b9392505050565b60006060820190506140026000830186613be0565b61400f6020830185613bc2565b818103604083015261402181846139d6565b9050949350505050565b60006060820190506140406000830186613be0565b61404d6020830185613bc2565b61405a6040830184613bc2565b949350505050565b600060e082019050614077600083018a613be0565b6140846020830189613be0565b6140916040830188613bc2565b61409e6060830187613bc2565b6140ab6080830186613bc2565b6140b860a0830185613bc2565b6140c560c08301846139a9565b98975050505050505050565b6000819050602082019050919050565b6000819050602082019050919050565b600081519050919050565b600081519050919050565b600081519050919050565b6000602082019050919050565b6000602082019050919050565b600082825260208201905092915050565b600082825260208201905092915050565b600082825260208201905092915050565b600061416a826142dc565b9150614175836142dc565b9250827fffffffffffffffffffffffffffffffffffffffffffffffffffffffffffffffff038211156141aa576141a96143f9565b5b828201905092915050565b60006141c0826142e6565b91506141cb836142e6565b92508263ffffffff038211156141e4576141e36143f9565b5b828201905092915050565b60006141fa826142dc565b9150614205836142dc565b92508261421557614214614428565b5b828204905092915050565b600061422b826142dc565b9150614236836142dc565b9250817fffffffffffffffffffffffffffffffffffffffffffffffffffffffffffffffff048311821515161561426f5761426e6143f9565b5b828202905092915050565b6000614285826142bc565b9050919050565b60008115159050919050565b60006142a38261427a565b9050919050565b60006142b58261427a565b9050919050565b600073ffffffffffffffffffffffffffffffffffffffff82169050919050565b6000819050919050565b600063ffffffff82169050919050565b600061430182614308565b9050919050565b6000614313826142bc565b9050919050565b60006143258261432c565b9050919050565b6000614337826142bc565b9050919050565b6000614349826142e6565b9050919050565b60005b8381101561436e578082015181840152602081019050614353565b8381111561437d576000848401525b50505050565b600061438e826142dc565b91507fffffffffffffffffffffffffffffffffffffffffffffffffffffffffffffffff8214156143c1576143c06143f9565b5b600182019050919050565b60006143d7826142e6565b915063ffffffff8214156143ee576143ed6143f9565b5b600182019050919050565b7f4e487b7100000000000000000000000000000000000000000000000000000000600052601160045260246000fd5b7f4e487b7100000000000000000000000000000000000000000000000000000000600052601260045260246000fd5b6000601f19601f8301169050919050565b7f43686f6f736520612043686f6963652031206f722032206f7220330000000000600082015250565b7f636865636b20616c6c6f77616e63650000000000000000000000000000000000600082015250565b7f4f776e61626c653a206e6577206f776e657220697320746865207a65726f206160008201527f6464726573730000000000000000000000000000000000000000000000000000602082015250565b7f55736572496420616e642063616c6c696e672061646472657373206973206e6f60008201527f74206d6174636865640000000000000000000000000000000000000000000000602082015250565b7f42657420706c6163656420416c726561647920696e207468697320526f756e64600082015250565b7f556e617070726f76656420557365720000000000000000000000000000000000600082015250565b7f556e617070726f76656400000000000000000000000000000000000000000000600082015250565b7f4f776e61626c653a2063616c6c6572206973206e6f7420746865206f776e6572600082015250565b7f54696d65204f7665720000000000000000000000000000000000000000000000600082015250565b7f5761697420666f7220736f6d6574696d652052656761696e20736f6d6520656e60008201527f6572677900000000000000000000000000000000000000000000000000000000602082015250565b7f4163636573732064656e69656400000000000000000000000000000000000000600082015250565b7f576169742074696c6c20556e6c6f636b65640000000000000000000000000000600082015250565b6146cf8161427a565b81146146da57600080fd5b50565b6146e68161428c565b81146146f157600080fd5b50565b6146fd81614298565b811461470857600080fd5b50565b614714816142aa565b811461471f57600080fd5b50565b61472b816142dc565b811461473657600080fd5b50565b614742816142e6565b811461474d57600080fd5b5056fea26469706673582212205c3a3209fb8000a2973656c3b12591967d08f0cdfc045c96b7bfe2292ee6a16b64736f6c63430008040033",
  "immutableReferences": {},
  "source": "// SPDX-License-Identifier: MIT\r\npragma solidity 0.8.4;\r\n\r\n\r\nimport \"@openzeppelin/contracts/access/Ownable.sol\";\r\nimport \"./interfaces/IController.sol\";\r\nimport \"./interfaces/IClient.sol\";\r\nimport \"./interfaces/IBSCV.sol\";\r\n//import \"https://github.com/OpenZeppelin/openzeppelin-contracts/blob/master/contracts/security/Pausable.sol\";\r\n\r\ncontract Client is IClient,Ownable{\r\n    /* ========== States ========== */\r\n    //ERC-20\r\n    IBSCV public BSCV;\r\n\r\n    //Controller\r\n    IController public Controller;\r\n\r\n    //Array of Rounds\r\n    round[] internal rounds;\r\n\r\n    //Array of Users\r\n    User[] internal users;\r\n\r\n    //Countdown for the rounds\r\n    uint32 public Countdown;\r\n\r\n    //track userId through address\r\n    mapping(address => uint32)private userId;\r\n\r\n    //validation\r\n    mapping(address => mapping(uint256 => uint256))private betAmounts;\r\n\r\n    //tax \r\n    uint256 public Tax = uint256(10);\r\n\r\n    //restTime after each bet\r\n    uint256 public restTime;\r\n    \r\n    /* ========== Structs ========== */\r\n\r\n    //struct containing all info for a round\r\n    struct round{\r\n        uint256 roundId;\r\n        uint32 start;\r\n        uint32 end;\r\n        address[] bettingAddressesOnOne;\r\n        uint256[] bettingAmountsOnOne;\r\n        address[] bettingAddressesOnTwo;\r\n        uint256[] bettingAmountsOnTwo;\r\n        address[] bettingAddressesOnThree;\r\n        uint256[] bettingAmountsOnThree;\r\n        uint256 winningChoice;\r\n        uint256 totalPrize;\r\n    }\r\n    \r\n    //struct containing all info for each user\r\n    struct User{\r\n        uint32 UserID;\r\n        uint32 Level;\r\n        uint256 PendingRewards;\r\n        uint256 CollectedRewards;\r\n        uint256 LockTill;\r\n        uint256 BetCounts;\r\n        bool Approved;\r\n    }\r\n\r\n    /* ========== Events ========== */\r\n\r\n    event betPlaced(uint32 userID,uint256 choice,uint256 _amount);\r\n    event roundCreated(uint256 roundId);\r\n    \r\n    /* ========== Constructor ========== */\r\n\r\n    constructor(IBSCV _token,IController _controller,uint32 _countdown,uint256 _restTime){\r\n        BSCV = _token;\r\n        Controller = _controller;\r\n        Countdown = _countdown;\r\n        restTime = _restTime;\r\n    }\r\n\r\n    /* ========== Public Functions ========== */\r\n\r\n    /** * @dev used to bet in the current round\r\n    The user is registered if he/she is a new user and assigned a new userId\r\n    */ \r\n    function bet(uint256 _choice,uint256 _amount)public returns(uint32 _userID,uint256 amount,string memory result){\r\n        //should enter 1 or 2 or 3 to bet in a round\r\n        require(_choice > 0 && _choice < uint256(4),\"Choose a Choice 1 or 2 or 3\");\r\n\r\n        //should be given allowance of desired tokens to this contract to bet\r\n        require(BSCV._beforeBet(msg.sender,_amount) == true,\"check allowance\");\r\n\r\n        //get current roundID\r\n        uint256 roundId = Controller.getCurrentRoundId();\r\n\r\n        //a single address cant place a bet more than once in a round\r\n        require(betAmounts[msg.sender][roundId] == uint256(0),\"Bet placed Already in this Round\");\r\n\r\n        //Authorization\r\n        bool auth = authorize(msg.sender);\r\n\r\n        if(auth == true){\r\n            //Getting user id assigned to address\r\n            uint32 userID = userId[msg.sender];\r\n\r\n            //Getting Userinfo with userID\r\n            User storage info = users[userID];\r\n\r\n            //getting userLevel and betCounts\r\n            (uint32 level,uint256 betCounts) = (info.Level , info.BetCounts);\r\n\r\n            //levelManager manages the level of the user\r\n            levelManager(userID,level,betCounts);\r\n\r\n            //betManager manages betsPlaced\r\n            (uint256 tax)=betManager(userID,_choice,_amount);\r\n\r\n            //returning receipt for bet\r\n            (_userID,amount,result) = (userID,_amount+tax,\"Bid Placed\");\r\n\r\n        }else{\r\n            (_userID,amount,result) = (uint32(0),_amount,\"Placing Bid Failed\");\r\n        }\r\n\r\n    }\r\n\r\n\r\n    /** * @dev used to bet without any automated checking\r\n    */ \r\n    function betManager(uint32 _userId,uint256 _choice,uint256 _betAmount)public Approved Free returns(uint256){\r\n        require(_choice > 0 && _choice < uint256(4),\"Choose a Choice 1 or 2 or 3\");\r\n        require(userId[msg.sender] == _userId,\"UserId and calling address is not matched\");\r\n        //Get Current RoundID\r\n        uint256 roundId = Controller.getCurrentRoundId();\r\n\r\n        //getting Round Info\r\n        round storage spin = rounds[roundId];\r\n\r\n        //Bet should be placed before the round time ends\r\n        require(spin.end > uint32(block.number),\"Time Over\");\r\n\r\n        //Place bet if choice was 1\r\n        if(_choice == 1){\r\n        spin.bettingAddressesOnOne.push(msg.sender);\r\n        spin.bettingAmountsOnOne.push(_betAmount);\r\n        }\r\n        //Place bet if choice was 2\r\n        if(_choice == 2){\r\n            spin.bettingAddressesOnTwo.push(msg.sender);\r\n            spin.bettingAmountsOnTwo.push(_betAmount);\r\n        }\r\n        //Place bet if choice was 3\r\n        if(_choice == 3){\r\n            spin.bettingAddressesOnThree.push(msg.sender);\r\n            spin.bettingAmountsOnThree.push(_betAmount);\r\n        }\r\n\r\n        //tax on this bet\r\n        uint256 tax = _betAmount*Tax/100;\r\n\r\n        //ERC20 transfer betAmount to this contract\r\n        BSCV.transferFrom(msg.sender,address(this),_betAmount);\r\n\r\n        //ERC20 transfer taxAmount to Controller contract\r\n        BSCV.transferFrom(msg.sender,address(Controller),tax);\r\n\r\n        //add current bet to total prize\r\n        spin.totalPrize += _betAmount;\r\n\r\n        //locking the user for restTime blocks\r\n        users[_userId].LockTill = block.number + restTime;\r\n\r\n        //increasing the user bet counts\r\n        users[_userId].BetCounts++;\r\n\r\n        //saving the bet\r\n        betAmounts[msg.sender][roundId] = _betAmount;\r\n\r\n        emit betPlaced(_userId,_choice,_betAmount);\r\n        return tax;\r\n    }\r\n    \r\n    /** * @dev collect rewards you've won\r\n    accessed only by approvedUsers\r\n    */ \r\n    function collectRewards()public Approved {\r\n        //getting userID\r\n        uint256 userID = userId[msg.sender];\r\n        //getting pendingRewards\r\n        uint256 pending = getPendingRewards(msg.sender);\r\n        if(pending < BSCV.balanceOf(address(this))){\r\n            BSCV.transferFrom(address(this),msg.sender,pending);\r\n        }else{\r\n            BSCV.mint(msg.sender, pending);\r\n        }\r\n        //transfer the rewards to the user\r\n        //saving the collection action\r\n        users[userID].CollectedRewards += pending;\r\n        users[userID].PendingRewards = uint256(0);\r\n    } \r\n\r\n    /** * @dev returns the roundinfo based on roundId\r\n    */ \r\n    function getRoundInfo(uint256 _roundId)public view returns( uint256 roundId,\r\n        uint256 start,\r\n        uint256 end,\r\n        address[] memory bettingAddressesOnOne,\r\n        uint256[] memory bettingAmountsOnOne,\r\n        address[] memory bettingAddressesOnTwo,\r\n        uint256[] memory bettingAmountsOnTwo,\r\n        address[] memory bettingAddressesOnThree,\r\n        uint256[] memory bettingAmountsOnThree,\r\n        uint256 winningChoice,\r\n        uint256 totalPrize){\r\n        \r\n        round storage spin = rounds[_roundId];\r\n        roundId = spin.roundId;\r\n        start = spin.start;\r\n        end = spin.end;\r\n        bettingAddressesOnOne = spin.bettingAddressesOnOne;\r\n        bettingAmountsOnOne = spin.bettingAmountsOnOne;\r\n        bettingAddressesOnTwo = spin.bettingAddressesOnTwo;\r\n        bettingAmountsOnTwo = spin.bettingAmountsOnTwo;\r\n        bettingAddressesOnThree = spin.bettingAddressesOnThree;\r\n        bettingAmountsOnThree = spin.bettingAmountsOnThree;\r\n        winningChoice = spin.winningChoice;\r\n        totalPrize = spin.totalPrize;\r\n    }\r\n    \r\n    /** * @dev returns pending Rewards of a user\r\n    */ \r\n    function getPendingRewards(address _user)public view Approved returns(uint256){\r\n        uint32 userID = uint32(userId[_user]);\r\n        User storage info = users[userID];\r\n        return info.PendingRewards;\r\n    }\r\n\r\n    /* ========== External Functions ========== */\r\n    /** * @dev returns number of placed bet in the round\r\n    */ \r\n    function currentInfo() external view override returns(address[]memory,uint256[]memory,address[]memory,uint256[]memory,address[]memory,uint256[]memory,uint256){\r\n        uint256 roundId = Controller.getCurrentRoundId();\r\n        round storage spin = rounds[roundId];\r\n        return (spin.bettingAddressesOnOne,spin.bettingAmountsOnOne,spin.bettingAddressesOnTwo,spin.bettingAmountsOnTwo,spin.bettingAddressesOnThree,spin.bettingAmountsOnThree,spin.totalPrize);\r\n    } \r\n    /** * @dev returns a userid registered to the address\r\n    */ \r\n    function getUserId(address _address)external view override returns(uint32){\r\n        return uint32(userId[_address]);\r\n    }\r\n    /** * @dev returns user struct of registered userInfo\r\n    */ \r\n    function getUserInfo(uint32 _userId)external override view returns(uint32 UserID,\r\n        uint32 Level,\r\n        uint256 PendingRewards,\r\n        uint256 CollectedRewards,\r\n        uint256 LockTill,\r\n        uint256 BetCounts,\r\n        bool Approve){\r\n        User storage info = users[_userId];\r\n        UserID = _userId;\r\n        Level = info.Level;\r\n        PendingRewards = info.PendingRewards;\r\n        CollectedRewards = info.CollectedRewards;\r\n        LockTill = info.LockTill;\r\n        BetCounts = info.BetCounts;\r\n        Approve = info.Approved;\r\n    }\r\n    /** * @dev return totalUsers \r\n    */ \r\n    function totalUsers()external view override returns(uint256){\r\n        return users.length;\r\n    }\r\n    \r\n    /* ========== OnlyControllerFunctions ========== */\r\n\r\n    function setWinningChoice(uint256 _choice) external override onlyController {\r\n        uint256 roundId = Controller.getCurrentRoundId();\r\n        round storage spin = rounds[roundId];\r\n        spin.winningChoice = _choice;\r\n    }\r\n\r\n    function unapproveUser(uint32 _userId)external override onlyController{\r\n        users[_userId].Approved = false;\r\n    }\r\n    \r\n    function approveUser(uint32 _userId)external override onlyController{\r\n        users[_userId].Approved = true;\r\n    }\r\n\r\n    /** * @dev Creates round controlled by owner\r\n    */ \r\n    function createRound() external override onlyController returns(uint256){\r\n        uint256 roundId = Controller.getCurrentRoundId();\r\n      round memory _round = round({\r\n          roundId: roundId,\r\n          start: uint32(block.number),\r\n          end : uint32(block.number) + Countdown,\r\n          bettingAddressesOnOne: new address[](0),\r\n          bettingAmountsOnOne: new uint256[](0),\r\n          bettingAddressesOnTwo: new address[](0),\r\n          bettingAmountsOnTwo: new uint256[](0),\r\n          bettingAddressesOnThree: new address[](0),\r\n          bettingAmountsOnThree: new uint256[](0),\r\n          winningChoice:  uint256(0),\r\n          totalPrize: uint256(0)\r\n      });\r\n      rounds.push(_round);\r\n      emit roundCreated(roundId);\r\n      return roundId;\r\n    }\r\n\r\n    function addRewards(uint256 _userId,uint256 _amounts) external override onlyController{\r\n        users[_userId].PendingRewards += _amounts;\r\n    }\r\n    \r\n    function setCountdown(uint32 _countdown)external override onlyController{\r\n        Countdown =_countdown;\r\n    }\r\n    \r\n\r\n    /* ==========OnlyOwner========== */\r\n    function setBSCV(IBSCV _token)public onlyOwner{\r\n        BSCV = _token;\r\n    }\r\n    \r\n    function setController(IController _controller) public onlyOwner{\r\n        Controller =_controller;\r\n    }\r\n\r\n    function setRestTime(uint256 _rest)public onlyOwner{\r\n        restTime = _rest;\r\n    }\r\n\r\n    /* ==========Internal========== */\r\n    function authorize(address _address)internal returns(bool){\r\n       if(userId[_address] == uint32(0)){\r\n           registerUser(_address);\r\n       }\r\n       uint32 userID = userId[_address];\r\n       User storage info = users[userID];\r\n       require(info.LockTill <= block.number,\"Wait for sometime Regain some energy\");\r\n       require(info.Approved == true,\"Unapproved User\");\r\n       return (true);\r\n    }\r\n    function registerUser(address _address)internal returns(string memory,uint256){\r\n        uint32 totalUser = uint32(users.length);\r\n        User memory info = User({\r\n        UserID: totalUser,\r\n        Level: uint32(0),\r\n        PendingRewards: uint32(0),\r\n        CollectedRewards: uint256(0),\r\n        LockTill: uint256(0),\r\n        BetCounts: uint256(0),\r\n        Approved: true\r\n        });\r\n        users.push(info);\r\n        userId[_address] = totalUser;\r\n        return(\"Created USERID\",totalUser);\r\n    }\r\n    function levelManager(uint32 _userId,uint32 _level,uint256 _betCounts)internal{\r\n        bool upgrade = Controller.levelRequirements(_level,_betCounts);\r\n        if(upgrade == true){\r\n            users[_userId].Level++;\r\n        }\r\n    }\r\n    \r\n    modifier Approved{\r\n        require(users[userId[msg.sender]].Approved == true,\"Unapproved\");\r\n        _;\r\n    }\r\n    modifier Free{\r\n        require(users[userId[msg.sender]].LockTill < block.number,\"Wait till Unlocked\");\r\n        _;\r\n    }\r\n    modifier onlyController{\r\n        require(msg.sender == address(Controller),\"Access denied\");\r\n        _;\r\n    }\r\n}",
  "sourcePath": "C:/Users/Bharath/Desktop/fortunetta-contracts/contracts/Client.sol",
  "compiler": {
    "name": "solc",
    "version": "0.8.4+commit.c7e474f2.Emscripten.clang"
  },
  "schemaVersion": "3.4.1",
  "updatedAt": "2021-06-24T11:30:32.800Z",
  "devdoc": {
    "kind": "dev",
    "methods": {
      "bet(uint256,uint256)": {
        "details": "used to bet in the current round The user is registered if he/she is a new user and assigned a new userId"
      },
      "betManager(uint32,uint256,uint256)": {
        "details": "used to bet without any automated checking"
      },
      "collectRewards()": {
        "details": "collect rewards you've won accessed only by approvedUsers"
      },
      "createRound()": {
        "details": "Creates round controlled by owner"
      },
      "currentInfo()": {
        "details": "returns number of placed bet in the round"
      },
      "getPendingRewards(address)": {
        "details": "returns pending Rewards of a user"
      },
      "getRoundInfo(uint256)": {
        "details": "returns the roundinfo based on roundId"
      },
      "getUserId(address)": {
        "details": "returns a userid registered to the address"
      },
      "getUserInfo(uint32)": {
        "details": "returns user struct of registered userInfo"
      },
      "owner()": {
        "details": "Returns the address of the current owner."
      },
      "renounceOwnership()": {
        "details": "Leaves the contract without owner. It will not be possible to call `onlyOwner` functions anymore. Can only be called by the current owner. NOTE: Renouncing ownership will leave the contract without an owner, thereby removing any functionality that is only available to the owner."
      },
      "totalUsers()": {
        "details": "return totalUsers "
      },
      "transferOwnership(address)": {
        "details": "Transfers ownership of the contract to a new account (`newOwner`). Can only be called by the current owner."
      }
    },
    "version": 1
  },
  "userdoc": {
    "kind": "user",
    "methods": {},
    "version": 1
  }
}