{
  "contractName": "Client",
  "abi": [
    {
      "inputs": [
        {
          "internalType": "contract IBSCV",
          "name": "_token",
          "type": "address"
        },
        {
          "internalType": "contract IController",
          "name": "_controller",
          "type": "address"
        },
        {
          "internalType": "uint32",
          "name": "_countdown",
          "type": "uint32"
        },
        {
          "internalType": "uint256",
          "name": "_restTime",
          "type": "uint256"
        },
        {
          "internalType": "contract IBANK",
          "name": "_bank",
          "type": "address"
        }
      ],
      "stateMutability": "nonpayable",
      "type": "constructor"
    },
    {
      "anonymous": false,
      "inputs": [
        {
          "indexed": true,
          "internalType": "address",
          "name": "previousOwner",
          "type": "address"
        },
        {
          "indexed": true,
          "internalType": "address",
          "name": "newOwner",
          "type": "address"
        }
      ],
      "name": "OwnershipTransferred",
      "type": "event"
    },
    {
      "anonymous": false,
      "inputs": [
        {
          "indexed": false,
          "internalType": "uint32",
          "name": "userID",
          "type": "uint32"
        },
        {
          "indexed": false,
          "internalType": "uint256",
          "name": "choice",
          "type": "uint256"
        },
        {
          "indexed": false,
          "internalType": "uint256",
          "name": "_amount",
          "type": "uint256"
        }
      ],
      "name": "betPlaced",
      "type": "event"
    },
    {
      "anonymous": false,
      "inputs": [
        {
          "indexed": false,
          "internalType": "uint256",
          "name": "roundId",
          "type": "uint256"
        }
      ],
      "name": "roundCreated",
      "type": "event"
    },
    {
      "inputs": [],
      "name": "BSCV",
      "outputs": [
        {
          "internalType": "contract IBSCV",
          "name": "",
          "type": "address"
        }
      ],
      "stateMutability": "view",
      "type": "function",
      "constant": true
    },
    {
      "inputs": [],
      "name": "Bank",
      "outputs": [
        {
          "internalType": "contract IBANK",
          "name": "",
          "type": "address"
        }
      ],
      "stateMutability": "view",
      "type": "function",
      "constant": true
    },
    {
      "inputs": [],
      "name": "Controller",
      "outputs": [
        {
          "internalType": "contract IController",
          "name": "",
          "type": "address"
        }
      ],
      "stateMutability": "view",
      "type": "function",
      "constant": true
    },
    {
      "inputs": [],
      "name": "Countdown",
      "outputs": [
        {
          "internalType": "uint32",
          "name": "",
          "type": "uint32"
        }
      ],
      "stateMutability": "view",
      "type": "function",
      "constant": true
    },
    {
      "inputs": [],
      "name": "Tax",
      "outputs": [
        {
          "internalType": "uint256",
          "name": "",
          "type": "uint256"
        }
      ],
      "stateMutability": "view",
      "type": "function",
      "constant": true
    },
    {
      "inputs": [],
      "name": "owner",
      "outputs": [
        {
          "internalType": "address",
          "name": "",
          "type": "address"
        }
      ],
      "stateMutability": "view",
      "type": "function",
      "constant": true
    },
    {
      "inputs": [],
      "name": "renounceOwnership",
      "outputs": [],
      "stateMutability": "nonpayable",
      "type": "function"
    },
    {
      "inputs": [],
      "name": "restTime",
      "outputs": [
        {
          "internalType": "uint256",
          "name": "",
          "type": "uint256"
        }
      ],
      "stateMutability": "view",
      "type": "function",
      "constant": true
    },
    {
      "inputs": [
        {
          "internalType": "address",
          "name": "newOwner",
          "type": "address"
        }
      ],
      "name": "transferOwnership",
      "outputs": [],
      "stateMutability": "nonpayable",
      "type": "function"
    },
    {
      "inputs": [
        {
          "internalType": "uint256",
          "name": "_choice",
          "type": "uint256"
        },
        {
          "internalType": "uint256",
          "name": "_amount",
          "type": "uint256"
        }
      ],
      "name": "bet",
      "outputs": [
        {
          "internalType": "uint32",
          "name": "_userID",
          "type": "uint32"
        },
        {
          "internalType": "uint256",
          "name": "amount",
          "type": "uint256"
        },
        {
          "internalType": "string",
          "name": "result",
          "type": "string"
        }
      ],
      "stateMutability": "nonpayable",
      "type": "function"
    },
    {
      "inputs": [
        {
          "internalType": "uint32",
          "name": "_userId",
          "type": "uint32"
        },
        {
          "internalType": "uint256",
          "name": "_choice",
          "type": "uint256"
        },
        {
          "internalType": "uint256",
          "name": "_betAmount",
          "type": "uint256"
        }
      ],
      "name": "betManager",
      "outputs": [
        {
          "internalType": "uint256",
          "name": "",
          "type": "uint256"
        }
      ],
      "stateMutability": "nonpayable",
      "type": "function"
    },
    {
      "inputs": [],
      "name": "collectRewards",
      "outputs": [],
      "stateMutability": "nonpayable",
      "type": "function"
    },
    {
      "inputs": [
        {
          "internalType": "uint256",
          "name": "_roundId",
          "type": "uint256"
        }
      ],
      "name": "getRoundInfo",
      "outputs": [
        {
          "internalType": "uint256",
          "name": "roundId",
          "type": "uint256"
        },
        {
          "internalType": "uint256",
          "name": "start",
          "type": "uint256"
        },
        {
          "internalType": "uint256",
          "name": "end",
          "type": "uint256"
        },
        {
          "internalType": "address[]",
          "name": "bettingAddressesOnOne",
          "type": "address[]"
        },
        {
          "internalType": "uint256[]",
          "name": "bettingAmountsOnOne",
          "type": "uint256[]"
        },
        {
          "internalType": "address[]",
          "name": "bettingAddressesOnTwo",
          "type": "address[]"
        },
        {
          "internalType": "uint256[]",
          "name": "bettingAmountsOnTwo",
          "type": "uint256[]"
        },
        {
          "internalType": "address[]",
          "name": "bettingAddressesOnThree",
          "type": "address[]"
        },
        {
          "internalType": "uint256[]",
          "name": "bettingAmountsOnThree",
          "type": "uint256[]"
        },
        {
          "internalType": "uint256",
          "name": "winningChoice",
          "type": "uint256"
        },
        {
          "internalType": "uint256",
          "name": "totalPrize",
          "type": "uint256"
        }
      ],
      "stateMutability": "view",
      "type": "function",
      "constant": true
    },
    {
      "inputs": [
        {
          "internalType": "address",
          "name": "_user",
          "type": "address"
        }
      ],
      "name": "getPendingRewards",
      "outputs": [
        {
          "internalType": "uint256",
          "name": "",
          "type": "uint256"
        }
      ],
      "stateMutability": "view",
      "type": "function",
      "constant": true
    },
    {
      "inputs": [],
      "name": "currentInfo",
      "outputs": [
        {
          "internalType": "address[]",
          "name": "",
          "type": "address[]"
        },
        {
          "internalType": "uint256[]",
          "name": "",
          "type": "uint256[]"
        },
        {
          "internalType": "address[]",
          "name": "",
          "type": "address[]"
        },
        {
          "internalType": "uint256[]",
          "name": "",
          "type": "uint256[]"
        },
        {
          "internalType": "address[]",
          "name": "",
          "type": "address[]"
        },
        {
          "internalType": "uint256[]",
          "name": "",
          "type": "uint256[]"
        },
        {
          "internalType": "uint256",
          "name": "",
          "type": "uint256"
        }
      ],
      "stateMutability": "view",
      "type": "function",
      "constant": true
    },
    {
      "inputs": [
        {
          "internalType": "address",
          "name": "_address",
          "type": "address"
        }
      ],
      "name": "getUserId",
      "outputs": [
        {
          "internalType": "uint32",
          "name": "",
          "type": "uint32"
        }
      ],
      "stateMutability": "view",
      "type": "function",
      "constant": true
    },
    {
      "inputs": [
        {
          "internalType": "uint32",
          "name": "_userId",
          "type": "uint32"
        }
      ],
      "name": "getUserInfo",
      "outputs": [
        {
          "internalType": "uint32",
          "name": "UserID",
          "type": "uint32"
        },
        {
          "internalType": "uint32",
          "name": "Level",
          "type": "uint32"
        },
        {
          "internalType": "uint256",
          "name": "PendingRewards",
          "type": "uint256"
        },
        {
          "internalType": "uint256",
          "name": "CollectedRewards",
          "type": "uint256"
        },
        {
          "internalType": "uint256",
          "name": "LockTill",
          "type": "uint256"
        },
        {
          "internalType": "uint256",
          "name": "BetCounts",
          "type": "uint256"
        },
        {
          "internalType": "bool",
          "name": "Approve",
          "type": "bool"
        }
      ],
      "stateMutability": "view",
      "type": "function",
      "constant": true
    },
    {
      "inputs": [],
      "name": "totalUsers",
      "outputs": [
        {
          "internalType": "uint256",
          "name": "",
          "type": "uint256"
        }
      ],
      "stateMutability": "view",
      "type": "function",
      "constant": true
    },
    {
      "inputs": [
        {
          "internalType": "uint256",
          "name": "_choice",
          "type": "uint256"
        }
      ],
      "name": "setWinningChoice",
      "outputs": [],
      "stateMutability": "nonpayable",
      "type": "function"
    },
    {
      "inputs": [
        {
          "internalType": "uint32",
          "name": "_userId",
          "type": "uint32"
        }
      ],
      "name": "unapproveUser",
      "outputs": [],
      "stateMutability": "nonpayable",
      "type": "function"
    },
    {
      "inputs": [
        {
          "internalType": "uint32",
          "name": "_userId",
          "type": "uint32"
        }
      ],
      "name": "approveUser",
      "outputs": [],
      "stateMutability": "nonpayable",
      "type": "function"
    },
    {
      "inputs": [],
      "name": "createRound",
      "outputs": [
        {
          "internalType": "uint256",
          "name": "",
          "type": "uint256"
        }
      ],
      "stateMutability": "nonpayable",
      "type": "function"
    },
    {
      "inputs": [
        {
          "internalType": "uint256",
          "name": "_userId",
          "type": "uint256"
        },
        {
          "internalType": "uint256",
          "name": "_amounts",
          "type": "uint256"
        }
      ],
      "name": "addRewards",
      "outputs": [],
      "stateMutability": "nonpayable",
      "type": "function"
    },
    {
      "inputs": [
        {
          "internalType": "uint32",
          "name": "_countdown",
          "type": "uint32"
        }
      ],
      "name": "setCountdown",
      "outputs": [],
      "stateMutability": "nonpayable",
      "type": "function"
    },
    {
      "inputs": [
        {
          "internalType": "contract IBSCV",
          "name": "_token",
          "type": "address"
        }
      ],
      "name": "setBSCV",
      "outputs": [],
      "stateMutability": "nonpayable",
      "type": "function"
    },
    {
      "inputs": [
        {
          "internalType": "contract IController",
          "name": "_controller",
          "type": "address"
        }
      ],
      "name": "setController",
      "outputs": [],
      "stateMutability": "nonpayable",
      "type": "function"
    },
    {
      "inputs": [
        {
          "internalType": "uint256",
          "name": "_rest",
          "type": "uint256"
        }
      ],
      "name": "setRestTime",
      "outputs": [],
      "stateMutability": "nonpayable",
      "type": "function"
    }
  ],
  "bytecode": "0x6080604052600a6009553480156200001657600080fd5b5060405162004c2e38038062004c2e83398181016040528101906200003c91906200025d565b60006200004e620001e260201b60201c565b9050806000806101000a81548173ffffffffffffffffffffffffffffffffffffffff021916908373ffffffffffffffffffffffffffffffffffffffff1602179055508073ffffffffffffffffffffffffffffffffffffffff16600073ffffffffffffffffffffffffffffffffffffffff167f8be0079c531659141344cd1fd0a4f28419497f9722a3daafe3b4186f6b6457e060405160405180910390a35084600160006101000a81548173ffffffffffffffffffffffffffffffffffffffff021916908373ffffffffffffffffffffffffffffffffffffffff16021790555083600360006101000a81548173ffffffffffffffffffffffffffffffffffffffff021916908373ffffffffffffffffffffffffffffffffffffffff16021790555082600660006101000a81548163ffffffff021916908363ffffffff16021790555081600a8190555080600260006101000a81548173ffffffffffffffffffffffffffffffffffffffff021916908373ffffffffffffffffffffffffffffffffffffffff1602179055505050505050620003eb565b600033905090565b600081519050620001fb8162000369565b92915050565b600081519050620002128162000383565b92915050565b60008151905062000229816200039d565b92915050565b6000815190506200024081620003b7565b92915050565b6000815190506200025781620003d1565b92915050565b600080600080600060a086880312156200027657600080fd5b6000620002868882890162000201565b9550506020620002998882890162000218565b9450506040620002ac8882890162000246565b9350506060620002bf888289016200022f565b9250506080620002d288828901620001ea565b9150509295509295909350565b6000620002ec826200032f565b9050919050565b60006200030082620002df565b9050919050565b60006200031482620002df565b9050919050565b60006200032882620002df565b9050919050565b600073ffffffffffffffffffffffffffffffffffffffff82169050919050565b6000819050919050565b600063ffffffff82169050919050565b6200037481620002f3565b81146200038057600080fd5b50565b6200038e8162000307565b81146200039a57600080fd5b50565b620003a8816200031b565b8114620003b457600080fd5b50565b620003c2816200034f565b8114620003ce57600080fd5b50565b620003dc8162000359565b8114620003e857600080fd5b50565b61483380620003fb6000396000f3fe608060405234801561001057600080fd5b50600436106101a95760003560e01c806375492744116100f9578063c81db89511610097578063f2fde38b11610071578063f2fde38b1461049e578063f6ed2017146104ba578063f9598128146104ea578063fc41aa0914610506576101a9565b8063c81db89514610448578063e9a16d6c14610464578063edf341d814610480576101a9565b80638da5cb5b116100d35780638da5cb5b146103cc57806392eefe9b146103ea578063bff1f9e114610406578063c4fc78c314610424576101a9565b8063754927441461035a5780637f16cf781461037657806388c3ffb014610392576101a9565b806353f358e9116101665780636ea405d3116101405780636ea405d3146102f65780636ffcc7191461031457806370bb45b314610346578063715018a614610350576101a9565b806353f358e91461028c5780635edf8a6c146102bc57806364679356146102d8576101a9565b80631acabb80146101ae5780631b411fc8146101cc5780631dfc2185146101ea5780632b956ff7146102085780634d788a4c146102385780634e41108d1461026e575b600080fd5b6101b6610522565b6040516101c39190614032565b60405180910390f35b6101d4610538565b6040516101e19190613f42565b60405180910390f35b6101f2610b0d565b6040516101ff9190613d8c565b60405180910390f35b610222600480360381019061021d9190613754565b610b33565b60405161022f9190614032565b60405180910390f35b610252600480360381019061024d9190613886565b610b8c565b60405161026597969594939291906140eb565b60405180910390f35b610276610c3e565b6040516102839190613d71565b60405180910390f35b6102a660048036038101906102a191906138af565b610c64565b6040516102b39190613f42565b60405180910390f35b6102d660048036038101906102d19190613886565b61156e565b005b6102e061166b565b6040516102ed9190613da7565b60405180910390f35b6102fe611691565b60405161030b9190613f42565b60405180910390f35b61032e6004803603810190610329919061384a565b611697565b60405161033d93929190614076565b60405180910390f35b61034e611aba565b005b610358611ec5565b005b610374600480360381019061036f9190613886565b611fff565b005b610390600480360381019061038b91906137f8565b6120b3565b005b6103ac60048036038101906103a791906137f8565b612241565b6040516103c39b9a99989796959493929190613f5d565b60405180910390f35b6103d461259d565b6040516103e19190613c5d565b60405180910390f35b61040460048036038101906103ff91906137cf565b6125c6565b005b61040e612686565b60405161041b9190613f42565b60405180910390f35b61042c612693565b60405161043f9796959493929190613cd8565b60405180910390f35b610462600480360381019061045d91906137f8565b612a51565b005b61047e60048036038101906104799190613886565b612ad7565b005b610488612bd4565b6040516104959190613f42565b60405180910390f35b6104b860048036038101906104b39190613754565b612bda565b005b6104d460048036038101906104cf9190613754565b612d83565b6040516104e19190613f42565b60405180910390f35b61050460048036038101906104ff91906137a6565b612f2d565b005b610520600480360381019061051b919061384a565b612fed565b005b600660009054906101000a900463ffffffff1681565b6000600360009054906101000a900473ffffffffffffffffffffffffffffffffffffffff1673ffffffffffffffffffffffffffffffffffffffff163373ffffffffffffffffffffffffffffffffffffffff16146105ca576040517f08c379a00000000000000000000000000000000000000000000000000000000081526004016105c190613f02565b60405180910390fd5b6000600360009054906101000a900473ffffffffffffffffffffffffffffffffffffffff1673ffffffffffffffffffffffffffffffffffffffff16635727e25d6040518163ffffffff1660e01b815260040160206040518083038186803b15801561063457600080fd5b505afa158015610648573d6000803e3d6000fd5b505050506040513d601f19601f8201168201806040525081019061066c9190613821565b905060006040518061016001604052808381526020014363ffffffff168152602001600660009054906101000a900463ffffffff16436106ac919061423e565b63ffffffff168152602001600067ffffffffffffffff8111156106f8577f4e487b7100000000000000000000000000000000000000000000000000000000600052604160045260246000fd5b6040519080825280602002602001820160405280156107265781602001602082028036833780820191505090505b508152602001600067ffffffffffffffff81111561076d577f4e487b7100000000000000000000000000000000000000000000000000000000600052604160045260246000fd5b60405190808252806020026020018201604052801561079b5781602001602082028036833780820191505090505b508152602001600067ffffffffffffffff8111156107e2577f4e487b7100000000000000000000000000000000000000000000000000000000600052604160045260246000fd5b6040519080825280602002602001820160405280156108105781602001602082028036833780820191505090505b508152602001600067ffffffffffffffff811115610857577f4e487b7100000000000000000000000000000000000000000000000000000000600052604160045260246000fd5b6040519080825280602002602001820160405280156108855781602001602082028036833780820191505090505b508152602001600067ffffffffffffffff8111156108cc577f4e487b7100000000000000000000000000000000000000000000000000000000600052604160045260246000fd5b6040519080825280602002602001820160405280156108fa5781602001602082028036833780820191505090505b508152602001600067ffffffffffffffff811115610941577f4e487b7100000000000000000000000000000000000000000000000000000000600052604160045260246000fd5b60405190808252806020026020018201604052801561096f5781602001602082028036833780820191505090505b508152602001600081526020016000815250905060048190806001815401808255809150506001900390600052602060002090600a02016000909190919091506000820151816000015560208201518160010160006101000a81548163ffffffff021916908363ffffffff16021790555060408201518160010160046101000a81548163ffffffff021916908363ffffffff1602179055506060820151816002019080519060200190610a239291906135cd565b506080820151816003019080519060200190610a40929190613657565b5060a0820151816004019080519060200190610a5d9291906135cd565b5060c0820151816005019080519060200190610a7a929190613657565b5060e0820151816006019080519060200190610a979291906135cd565b50610100820151816007019080519060200190610ab5929190613657565b506101208201518160080155610140820151816009015550507ff9465e09a9cd4cd6a0d6a75077f9781249102ba59ba6631015ceebee6616e0be82604051610afd9190613f42565b60405180910390a1819250505090565b600160009054906101000a900473ffffffffffffffffffffffffffffffffffffffff1681565b6000600760008373ffffffffffffffffffffffffffffffffffffffff1673ffffffffffffffffffffffffffffffffffffffff16815260200190815260200160002060009054906101000a900463ffffffff169050919050565b60008060008060008060008060058963ffffffff1681548110610bd8577f4e487b7100000000000000000000000000000000000000000000000000000000600052603260045260246000fd5b906000526020600020906006020190508897508060000160049054906101000a900463ffffffff169650806001015495508060020154945080600301549350806004015492508060050160009054906101000a900460ff16915050919395979092949650565b600260009054906101000a900473ffffffffffffffffffffffffffffffffffffffff1681565b6000600115156005600760003373ffffffffffffffffffffffffffffffffffffffff1673ffffffffffffffffffffffffffffffffffffffff16815260200190815260200160002060009054906101000a900463ffffffff1663ffffffff1681548110610cf9577f4e487b7100000000000000000000000000000000000000000000000000000000600052603260045260246000fd5b906000526020600020906006020160050160009054906101000a900460ff16151514610d5a576040517f08c379a0000000000000000000000000000000000000000000000000000000008152600401610d5190613e82565b60405180910390fd5b436005600760003373ffffffffffffffffffffffffffffffffffffffff1673ffffffffffffffffffffffffffffffffffffffff16815260200190815260200160002060009054906101000a900463ffffffff1663ffffffff1681548110610dea577f4e487b7100000000000000000000000000000000000000000000000000000000600052603260045260246000fd5b90600052602060002090600602016003015410610e3c576040517f08c379a0000000000000000000000000000000000000000000000000000000008152600401610e3390613f22565b60405180910390fd5b600083118015610e4c5750600483105b610e8b576040517f08c379a0000000000000000000000000000000000000000000000000000000008152600401610e8290613dc2565b60405180910390fd5b8363ffffffff16600760003373ffffffffffffffffffffffffffffffffffffffff1673ffffffffffffffffffffffffffffffffffffffff16815260200190815260200160002060009054906101000a900463ffffffff1663ffffffff1614610f28576040517f08c379a0000000000000000000000000000000000000000000000000000000008152600401610f1f90613e22565b60405180910390fd5b6000600360009054906101000a900473ffffffffffffffffffffffffffffffffffffffff1673ffffffffffffffffffffffffffffffffffffffff16635727e25d6040518163ffffffff1660e01b815260040160206040518083038186803b158015610f9257600080fd5b505afa158015610fa6573d6000803e3d6000fd5b505050506040513d601f19601f82011682018060405250810190610fca9190613821565b9050600060048281548110611008577f4e487b7100000000000000000000000000000000000000000000000000000000600052603260045260246000fd5b90600052602060002090600a020190504363ffffffff168160010160049054906101000a900463ffffffff1663ffffffff161161107a576040517f08c379a000000000000000000000000000000000000000000000000000000000815260040161107190613ec2565b60405180910390fd5b60018514156111145780600201339080600181540180825580915050600190039060005260206000200160009091909190916101000a81548173ffffffffffffffffffffffffffffffffffffffff021916908373ffffffffffffffffffffffffffffffffffffffff160217905550806003018490806001815401808255809150506001900390600052602060002001600090919091909150555b60028514156111ae5780600401339080600181540180825580915050600190039060005260206000200160009091909190916101000a81548173ffffffffffffffffffffffffffffffffffffffff021916908373ffffffffffffffffffffffffffffffffffffffff160217905550806005018490806001815401808255809150506001900390600052602060002001600090919091909150555b60038514156112485780600601339080600181540180825580915050600190039060005260206000200160009091909190916101000a81548173ffffffffffffffffffffffffffffffffffffffff021916908373ffffffffffffffffffffffffffffffffffffffff160217905550806007018490806001815401808255809150506001900390600052602060002001600090919091909150555b600060646009548661125a91906142a9565b6112649190614278565b9050600160009054906101000a900473ffffffffffffffffffffffffffffffffffffffff1673ffffffffffffffffffffffffffffffffffffffff166323b872dd3330886040518463ffffffff1660e01b81526004016112c593929190613c78565b602060405180830381600087803b1580156112df57600080fd5b505af11580156112f3573d6000803e3d6000fd5b505050506040513d601f19601f82011682018060405250810190611317919061377d565b50600160009054906101000a900473ffffffffffffffffffffffffffffffffffffffff1673ffffffffffffffffffffffffffffffffffffffff166323b872dd33600360009054906101000a900473ffffffffffffffffffffffffffffffffffffffff16846040518463ffffffff1660e01b815260040161139993929190613c78565b602060405180830381600087803b1580156113b357600080fd5b505af11580156113c7573d6000803e3d6000fd5b505050506040513d601f19601f820116820180604052508101906113eb919061377d565b508482600901600082825461140091906141e8565b92505081905550600a544361141591906141e8565b60058863ffffffff1681548110611455577f4e487b7100000000000000000000000000000000000000000000000000000000600052603260045260246000fd5b90600052602060002090600602016003018190555060058763ffffffff16815481106114aa577f4e487b7100000000000000000000000000000000000000000000000000000000600052603260045260246000fd5b906000526020600020906006020160040160008154809291906114cc90614430565b919050555084600860003373ffffffffffffffffffffffffffffffffffffffff1673ffffffffffffffffffffffffffffffffffffffff1681526020019081526020016000206000858152602001908152602001600020819055507fc005b057c2aad4d08e9554183001b5d6d1b5014dae6f52622d409cf1483628b5878787604051611559939291906140b4565b60405180910390a18093505050509392505050565b600360009054906101000a900473ffffffffffffffffffffffffffffffffffffffff1673ffffffffffffffffffffffffffffffffffffffff163373ffffffffffffffffffffffffffffffffffffffff16146115fe576040517f08c379a00000000000000000000000000000000000000000000000000000000081526004016115f590613f02565b60405180910390fd5b600160058263ffffffff1681548110611640577f4e487b7100000000000000000000000000000000000000000000000000000000600052603260045260246000fd5b906000526020600020906006020160050160006101000a81548160ff02191690831515021790555050565b600360009054906101000a900473ffffffffffffffffffffffffffffffffffffffff1681565b60095481565b60008060606000851180156116ac5750600485105b6116eb576040517f08c379a00000000000000000000000000000000000000000000000000000000081526004016116e290613dc2565b60405180910390fd5b60011515600160009054906101000a900473ffffffffffffffffffffffffffffffffffffffff1673ffffffffffffffffffffffffffffffffffffffff16639d4e3b0133876040518363ffffffff1660e01b815260040161174c929190613caf565b602060405180830381600087803b15801561176657600080fd5b505af115801561177a573d6000803e3d6000fd5b505050506040513d601f19601f8201168201806040525081019061179e919061377d565b1515146117e0576040517f08c379a00000000000000000000000000000000000000000000000000000000081526004016117d790613de2565b60405180910390fd5b6000600360009054906101000a900473ffffffffffffffffffffffffffffffffffffffff1673ffffffffffffffffffffffffffffffffffffffff16635727e25d6040518163ffffffff1660e01b815260040160206040518083038186803b15801561184a57600080fd5b505afa15801561185e573d6000803e3d6000fd5b505050506040513d601f19601f820116820180604052508101906118829190613821565b90506000600860003373ffffffffffffffffffffffffffffffffffffffff1673ffffffffffffffffffffffffffffffffffffffff16815260200190815260200160002060008381526020019081526020016000205414611917576040517f08c379a000000000000000000000000000000000000000000000000000000000815260040161190e90613e42565b60405180910390fd5b6000611922336130e3565b9050600115158115151415611a6b576000600760003373ffffffffffffffffffffffffffffffffffffffff1673ffffffffffffffffffffffffffffffffffffffff16815260200190815260200160002060009054906101000a900463ffffffff169050600060058263ffffffff16815481106119c7577f4e487b7100000000000000000000000000000000000000000000000000000000600052603260045260246000fd5b906000526020600020906006020190506000808260000160049054906101000a900463ffffffff16836004015491509150611a038483836132a4565b6000611a10858d8d610c64565b905084818c611a1f91906141e8565b6040518060400160405280600a81526020017f42696420506c6163656400000000000000000000000000000000000000000000815250809a50819b50829c505050505050505050611ab1565b6000866040518060400160405280601281526020017f506c6163696e6720426964204661696c656400000000000000000000000000008152508095508196508297505050505b50509250925092565b600115156005600760003373ffffffffffffffffffffffffffffffffffffffff1673ffffffffffffffffffffffffffffffffffffffff16815260200190815260200160002060009054906101000a900463ffffffff1663ffffffff1681548110611b4d577f4e487b7100000000000000000000000000000000000000000000000000000000600052603260045260246000fd5b906000526020600020906006020160050160009054906101000a900460ff16151514611bae576040517f08c379a0000000000000000000000000000000000000000000000000000000008152600401611ba590613e82565b60405180910390fd5b6000600760003373ffffffffffffffffffffffffffffffffffffffff1673ffffffffffffffffffffffffffffffffffffffff16815260200190815260200160002060009054906101000a900463ffffffff1663ffffffff1690506000611c1333612d83565b9050600160009054906101000a900473ffffffffffffffffffffffffffffffffffffffff1673ffffffffffffffffffffffffffffffffffffffff166370a08231306040518263ffffffff1660e01b8152600401611c709190613c5d565b60206040518083038186803b158015611c8857600080fd5b505afa158015611c9c573d6000803e3d6000fd5b505050506040513d601f19601f82011682018060405250810190611cc09190613821565b811015611d7e57600160009054906101000a900473ffffffffffffffffffffffffffffffffffffffff1673ffffffffffffffffffffffffffffffffffffffff166323b872dd3033846040518463ffffffff1660e01b8152600401611d2693929190613c78565b602060405180830381600087803b158015611d4057600080fd5b505af1158015611d54573d6000803e3d6000fd5b505050506040513d601f19601f82011682018060405250810190611d78919061377d565b50611e0e565b600260009054906101000a900473ffffffffffffffffffffffffffffffffffffffff1673ffffffffffffffffffffffffffffffffffffffff1663f3fef3a333836040518363ffffffff1660e01b8152600401611ddb929190613caf565b600060405180830381600087803b158015611df557600080fd5b505af1158015611e09573d6000803e3d6000fd5b505050505b8060058381548110611e49577f4e487b7100000000000000000000000000000000000000000000000000000000600052603260045260246000fd5b90600052602060002090600602016002016000828254611e6991906141e8565b92505081905550600060058381548110611eac577f4e487b7100000000000000000000000000000000000000000000000000000000600052603260045260246000fd5b9060005260206000209060060201600101819055505050565b611ecd6133f9565b73ffffffffffffffffffffffffffffffffffffffff16611eeb61259d565b73ffffffffffffffffffffffffffffffffffffffff1614611f41576040517f08c379a0000000000000000000000000000000000000000000000000000000008152600401611f3890613ea2565b60405180910390fd5b600073ffffffffffffffffffffffffffffffffffffffff1660008054906101000a900473ffffffffffffffffffffffffffffffffffffffff1673ffffffffffffffffffffffffffffffffffffffff167f8be0079c531659141344cd1fd0a4f28419497f9722a3daafe3b4186f6b6457e060405160405180910390a360008060006101000a81548173ffffffffffffffffffffffffffffffffffffffff021916908373ffffffffffffffffffffffffffffffffffffffff160217905550565b600360009054906101000a900473ffffffffffffffffffffffffffffffffffffffff1673ffffffffffffffffffffffffffffffffffffffff163373ffffffffffffffffffffffffffffffffffffffff161461208f576040517f08c379a000000000000000000000000000000000000000000000000000000000815260040161208690613f02565b60405180910390fd5b80600660006101000a81548163ffffffff021916908363ffffffff16021790555050565b600360009054906101000a900473ffffffffffffffffffffffffffffffffffffffff1673ffffffffffffffffffffffffffffffffffffffff163373ffffffffffffffffffffffffffffffffffffffff1614612143576040517f08c379a000000000000000000000000000000000000000000000000000000000815260040161213a90613f02565b60405180910390fd5b6000600360009054906101000a900473ffffffffffffffffffffffffffffffffffffffff1673ffffffffffffffffffffffffffffffffffffffff16635727e25d6040518163ffffffff1660e01b815260040160206040518083038186803b1580156121ad57600080fd5b505afa1580156121c1573d6000803e3d6000fd5b505050506040513d601f19601f820116820180604052508101906121e59190613821565b9050600060048281548110612223577f4e487b7100000000000000000000000000000000000000000000000000000000600052603260045260246000fd5b90600052602060002090600a02019050828160080181905550505050565b6000806000606080606080606080600080600060048d8154811061228e577f4e487b7100000000000000000000000000000000000000000000000000000000600052603260045260246000fd5b90600052602060002090600a0201905080600001549b508060010160009054906101000a900463ffffffff1663ffffffff169a508060010160049054906101000a900463ffffffff1663ffffffff1699508060020180548060200260200160405190810160405280929190818152602001828054801561236357602002820191906000526020600020905b8160009054906101000a900473ffffffffffffffffffffffffffffffffffffffff1673ffffffffffffffffffffffffffffffffffffffff1681526020019060010190808311612319575b50505050509850806003018054806020026020016040519081016040528092919081815260200182805480156123b857602002820191906000526020600020905b8154815260200190600101908083116123a4575b505050505097508060040180548060200260200160405190810160405280929190818152602001828054801561244357602002820191906000526020600020905b8160009054906101000a900473ffffffffffffffffffffffffffffffffffffffff1673ffffffffffffffffffffffffffffffffffffffff16815260200190600101908083116123f9575b505050505096508060050180548060200260200160405190810160405280929190818152602001828054801561249857602002820191906000526020600020905b815481526020019060010190808311612484575b505050505095508060060180548060200260200160405190810160405280929190818152602001828054801561252357602002820191906000526020600020905b8160009054906101000a900473ffffffffffffffffffffffffffffffffffffffff1673ffffffffffffffffffffffffffffffffffffffff16815260200190600101908083116124d9575b505050505094508060070180548060200260200160405190810160405280929190818152602001828054801561257857602002820191906000526020600020905b815481526020019060010190808311612564575b5050505050935080600801549250806009015491505091939597999b90929496989a50565b60008060009054906101000a900473ffffffffffffffffffffffffffffffffffffffff16905090565b6125ce6133f9565b73ffffffffffffffffffffffffffffffffffffffff166125ec61259d565b73ffffffffffffffffffffffffffffffffffffffff1614612642576040517f08c379a000000000000000000000000000000000000000000000000000000000815260040161263990613ea2565b60405180910390fd5b80600360006101000a81548173ffffffffffffffffffffffffffffffffffffffff021916908373ffffffffffffffffffffffffffffffffffffffff16021790555050565b6000600580549050905090565b606080606080606080600080600360009054906101000a900473ffffffffffffffffffffffffffffffffffffffff1673ffffffffffffffffffffffffffffffffffffffff16635727e25d6040518163ffffffff1660e01b815260040160206040518083038186803b15801561270757600080fd5b505afa15801561271b573d6000803e3d6000fd5b505050506040513d601f19601f8201168201806040525081019061273f9190613821565b905060006004828154811061277d577f4e487b7100000000000000000000000000000000000000000000000000000000600052603260045260246000fd5b90600052602060002090600a0201905080600201816003018260040183600501846006018560070186600901548680548060200260200160405190810160405280929190818152602001828054801561282b57602002820191906000526020600020905b8160009054906101000a900473ffffffffffffffffffffffffffffffffffffffff1673ffffffffffffffffffffffffffffffffffffffff16815260200190600101908083116127e1575b505050505096508580548060200260200160405190810160405280929190818152602001828054801561287d57602002820191906000526020600020905b815481526020019060010190808311612869575b505050505095508480548060200260200160405190810160405280929190818152602001828054801561290557602002820191906000526020600020905b8160009054906101000a900473ffffffffffffffffffffffffffffffffffffffff1673ffffffffffffffffffffffffffffffffffffffff16815260200190600101908083116128bb575b505050505094508380548060200260200160405190810160405280929190818152602001828054801561295757602002820191906000526020600020905b815481526020019060010190808311612943575b50505050509350828054806020026020016040519081016040528092919081815260200182805480156129df57602002820191906000526020600020905b8160009054906101000a900473ffffffffffffffffffffffffffffffffffffffff1673ffffffffffffffffffffffffffffffffffffffff1681526020019060010190808311612995575b5050505050925081805480602002602001604051908101604052809291908181526020018280548015612a3157602002820191906000526020600020905b815481526020019060010190808311612a1d575b505050505091509850985098509850985098509850505090919293949596565b612a596133f9565b73ffffffffffffffffffffffffffffffffffffffff16612a7761259d565b73ffffffffffffffffffffffffffffffffffffffff1614612acd576040517f08c379a0000000000000000000000000000000000000000000000000000000008152600401612ac490613ea2565b60405180910390fd5b80600a8190555050565b600360009054906101000a900473ffffffffffffffffffffffffffffffffffffffff1673ffffffffffffffffffffffffffffffffffffffff163373ffffffffffffffffffffffffffffffffffffffff1614612b67576040517f08c379a0000000000000000000000000000000000000000000000000000000008152600401612b5e90613f02565b60405180910390fd5b600060058263ffffffff1681548110612ba9577f4e487b7100000000000000000000000000000000000000000000000000000000600052603260045260246000fd5b906000526020600020906006020160050160006101000a81548160ff02191690831515021790555050565b600a5481565b612be26133f9565b73ffffffffffffffffffffffffffffffffffffffff16612c0061259d565b73ffffffffffffffffffffffffffffffffffffffff1614612c56576040517f08c379a0000000000000000000000000000000000000000000000000000000008152600401612c4d90613ea2565b60405180910390fd5b600073ffffffffffffffffffffffffffffffffffffffff168173ffffffffffffffffffffffffffffffffffffffff161415612cc6576040517f08c379a0000000000000000000000000000000000000000000000000000000008152600401612cbd90613e02565b60405180910390fd5b8073ffffffffffffffffffffffffffffffffffffffff1660008054906101000a900473ffffffffffffffffffffffffffffffffffffffff1673ffffffffffffffffffffffffffffffffffffffff167f8be0079c531659141344cd1fd0a4f28419497f9722a3daafe3b4186f6b6457e060405160405180910390a3806000806101000a81548173ffffffffffffffffffffffffffffffffffffffff021916908373ffffffffffffffffffffffffffffffffffffffff16021790555050565b6000600115156005600760003373ffffffffffffffffffffffffffffffffffffffff1673ffffffffffffffffffffffffffffffffffffffff16815260200190815260200160002060009054906101000a900463ffffffff1663ffffffff1681548110612e18577f4e487b7100000000000000000000000000000000000000000000000000000000600052603260045260246000fd5b906000526020600020906006020160050160009054906101000a900460ff16151514612e79576040517f08c379a0000000000000000000000000000000000000000000000000000000008152600401612e7090613e82565b60405180910390fd5b6000600760008473ffffffffffffffffffffffffffffffffffffffff1673ffffffffffffffffffffffffffffffffffffffff16815260200190815260200160002060009054906101000a900463ffffffff169050600060058263ffffffff1681548110612f0f577f4e487b7100000000000000000000000000000000000000000000000000000000600052603260045260246000fd5b90600052602060002090600602019050806001015492505050919050565b612f356133f9565b73ffffffffffffffffffffffffffffffffffffffff16612f5361259d565b73ffffffffffffffffffffffffffffffffffffffff1614612fa9576040517f08c379a0000000000000000000000000000000000000000000000000000000008152600401612fa090613ea2565b60405180910390fd5b80600160006101000a81548173ffffffffffffffffffffffffffffffffffffffff021916908373ffffffffffffffffffffffffffffffffffffffff16021790555050565b600360009054906101000a900473ffffffffffffffffffffffffffffffffffffffff1673ffffffffffffffffffffffffffffffffffffffff163373ffffffffffffffffffffffffffffffffffffffff161461307d576040517f08c379a000000000000000000000000000000000000000000000000000000000815260040161307490613f02565b60405180910390fd5b80600583815481106130b8577f4e487b7100000000000000000000000000000000000000000000000000000000600052603260045260246000fd5b906000526020600020906006020160010160008282546130d891906141e8565b925050819055505050565b60008063ffffffff16600760008473ffffffffffffffffffffffffffffffffffffffff1673ffffffffffffffffffffffffffffffffffffffff16815260200190815260200160002060009054906101000a900463ffffffff1663ffffffff1614156131545761315182613401565b50505b6000600760008473ffffffffffffffffffffffffffffffffffffffff1673ffffffffffffffffffffffffffffffffffffffff16815260200190815260200160002060009054906101000a900463ffffffff169050600060058263ffffffff16815481106131ea577f4e487b7100000000000000000000000000000000000000000000000000000000600052603260045260246000fd5b906000526020600020906006020190504381600301541115613241576040517f08c379a000000000000000000000000000000000000000000000000000000000815260040161323890613ee2565b60405180910390fd5b600115158160050160009054906101000a900460ff16151514613299576040517f08c379a000000000000000000000000000000000000000000000000000000000815260040161329090613e62565b60405180910390fd5b600192505050919050565b6000600360009054906101000a900473ffffffffffffffffffffffffffffffffffffffff1673ffffffffffffffffffffffffffffffffffffffff1663d7bc2eb584846040518363ffffffff1660e01b815260040161330392919061404d565b60206040518083038186803b15801561331b57600080fd5b505afa15801561332f573d6000803e3d6000fd5b505050506040513d601f19601f82011682018060405250810190613353919061377d565b90506001151581151514156133f35760058463ffffffff16815481106133a2577f4e487b7100000000000000000000000000000000000000000000000000000000600052603260045260246000fd5b9060005260206000209060060201600001600481819054906101000a900463ffffffff16809291906133d390614479565b91906101000a81548163ffffffff021916908363ffffffff160217905550505b50505050565b600033905090565b6060600080600580549050905060006040518060e001604052808363ffffffff168152602001600063ffffffff168152602001600063ffffffff168152602001600081526020016000815260200160008152602001600115158152509050600581908060018154018082558091505060019003906000526020600020906006020160009091909190915060008201518160000160006101000a81548163ffffffff021916908363ffffffff16021790555060208201518160000160046101000a81548163ffffffff021916908363ffffffff16021790555060408201518160010155606082015181600201556080820151816003015560a0820151816004015560c08201518160050160006101000a81548160ff021916908315150217905550505081600760008773ffffffffffffffffffffffffffffffffffffffff1673ffffffffffffffffffffffffffffffffffffffff16815260200190815260200160002060006101000a81548163ffffffff021916908363ffffffff160217905550816040518060400160405280600e81526020017f4372656174656420555345524944000000000000000000000000000000000000815250908063ffffffff169050935093505050915091565b828054828255906000526020600020908101928215613646579160200282015b828111156136455782518260006101000a81548173ffffffffffffffffffffffffffffffffffffffff021916908373ffffffffffffffffffffffffffffffffffffffff160217905550916020019190600101906135ed565b5b50905061365391906136a4565b5090565b828054828255906000526020600020908101928215613693579160200282015b82811115613692578251825591602001919060010190613677565b5b5090506136a091906136a4565b5090565b5b808211156136bd5760008160009055506001016136a5565b5090565b6000813590506136d081614773565b92915050565b6000815190506136e58161478a565b92915050565b6000813590506136fa816147a1565b92915050565b60008135905061370f816147b8565b92915050565b600081359050613724816147cf565b92915050565b600081519050613739816147cf565b92915050565b60008135905061374e816147e6565b92915050565b60006020828403121561376657600080fd5b6000613774848285016136c1565b91505092915050565b60006020828403121561378f57600080fd5b600061379d848285016136d6565b91505092915050565b6000602082840312156137b857600080fd5b60006137c6848285016136eb565b91505092915050565b6000602082840312156137e157600080fd5b60006137ef84828501613700565b91505092915050565b60006020828403121561380a57600080fd5b600061381884828501613715565b91505092915050565b60006020828403121561383357600080fd5b60006138418482850161372a565b91505092915050565b6000806040838503121561385d57600080fd5b600061386b85828601613715565b925050602061387c85828601613715565b9150509250929050565b60006020828403121561389857600080fd5b60006138a68482850161373f565b91505092915050565b6000806000606084860312156138c457600080fd5b60006138d28682870161373f565b93505060206138e386828701613715565b92505060406138f486828701613715565b9150509250925092565b600061390a838361392e565b60208301905092915050565b60006139228383613c21565b60208301905092915050565b61393781614303565b82525050565b61394681614303565b82525050565b60006139578261417a565b61396181856141b5565b935061396c8361415a565b8060005b8381101561399d57815161398488826138fe565b975061398f8361419b565b925050600181019050613970565b5085935050505092915050565b60006139b582614185565b6139bf81856141c6565b93506139ca8361416a565b8060005b838110156139fb5781516139e28882613916565b97506139ed836141a8565b9250506001810190506139ce565b5085935050505092915050565b613a1181614315565b82525050565b613a208161437f565b82525050565b613a2f816143a3565b82525050565b613a3e816143c7565b82525050565b6000613a4f82614190565b613a5981856141d7565b9350613a698185602086016143fd565b613a7281614504565b840191505092915050565b6000613a8a601b836141d7565b9150613a9582614515565b602082019050919050565b6000613aad600f836141d7565b9150613ab88261453e565b602082019050919050565b6000613ad06026836141d7565b9150613adb82614567565b604082019050919050565b6000613af36029836141d7565b9150613afe826145b6565b604082019050919050565b6000613b166020836141d7565b9150613b2182614605565b602082019050919050565b6000613b39600f836141d7565b9150613b448261462e565b602082019050919050565b6000613b5c600a836141d7565b9150613b6782614657565b602082019050919050565b6000613b7f6020836141d7565b9150613b8a82614680565b602082019050919050565b6000613ba26009836141d7565b9150613bad826146a9565b602082019050919050565b6000613bc56024836141d7565b9150613bd0826146d2565b604082019050919050565b6000613be8600d836141d7565b9150613bf382614721565b602082019050919050565b6000613c0b6012836141d7565b9150613c168261474a565b602082019050919050565b613c2a81614365565b82525050565b613c3981614365565b82525050565b613c48816143eb565b82525050565b613c578161436f565b82525050565b6000602082019050613c72600083018461393d565b92915050565b6000606082019050613c8d600083018661393d565b613c9a602083018561393d565b613ca76040830184613c30565b949350505050565b6000604082019050613cc4600083018561393d565b613cd16020830184613c30565b9392505050565b600060e0820190508181036000830152613cf2818a61394c565b90508181036020830152613d0681896139aa565b90508181036040830152613d1a818861394c565b90508181036060830152613d2e81876139aa565b90508181036080830152613d42818661394c565b905081810360a0830152613d5681856139aa565b9050613d6560c0830184613c30565b98975050505050505050565b6000602082019050613d866000830184613a17565b92915050565b6000602082019050613da16000830184613a26565b92915050565b6000602082019050613dbc6000830184613a35565b92915050565b60006020820190508181036000830152613ddb81613a7d565b9050919050565b60006020820190508181036000830152613dfb81613aa0565b9050919050565b60006020820190508181036000830152613e1b81613ac3565b9050919050565b60006020820190508181036000830152613e3b81613ae6565b9050919050565b60006020820190508181036000830152613e5b81613b09565b9050919050565b60006020820190508181036000830152613e7b81613b2c565b9050919050565b60006020820190508181036000830152613e9b81613b4f565b9050919050565b60006020820190508181036000830152613ebb81613b72565b9050919050565b60006020820190508181036000830152613edb81613b95565b9050919050565b60006020820190508181036000830152613efb81613bb8565b9050919050565b60006020820190508181036000830152613f1b81613bdb565b9050919050565b60006020820190508181036000830152613f3b81613bfe565b9050919050565b6000602082019050613f576000830184613c30565b92915050565b600061016082019050613f73600083018e613c30565b613f80602083018d613c30565b613f8d604083018c613c30565b8181036060830152613f9f818b61394c565b90508181036080830152613fb3818a6139aa565b905081810360a0830152613fc7818961394c565b905081810360c0830152613fdb81886139aa565b905081810360e0830152613fef818761394c565b905081810361010083015261400481866139aa565b9050614014610120830185613c30565b614022610140830184613c30565b9c9b505050505050505050505050565b60006020820190506140476000830184613c4e565b92915050565b60006040820190506140626000830185613c3f565b61406f6020830184613c30565b9392505050565b600060608201905061408b6000830186613c4e565b6140986020830185613c30565b81810360408301526140aa8184613a44565b9050949350505050565b60006060820190506140c96000830186613c4e565b6140d66020830185613c30565b6140e36040830184613c30565b949350505050565b600060e082019050614100600083018a613c4e565b61410d6020830189613c4e565b61411a6040830188613c30565b6141276060830187613c30565b6141346080830186613c30565b61414160a0830185613c30565b61414e60c0830184613a08565b98975050505050505050565b6000819050602082019050919050565b6000819050602082019050919050565b600081519050919050565b600081519050919050565b600081519050919050565b6000602082019050919050565b6000602082019050919050565b600082825260208201905092915050565b600082825260208201905092915050565b600082825260208201905092915050565b60006141f382614365565b91506141fe83614365565b9250827fffffffffffffffffffffffffffffffffffffffffffffffffffffffffffffffff03821115614233576142326144a6565b5b828201905092915050565b60006142498261436f565b91506142548361436f565b92508263ffffffff0382111561426d5761426c6144a6565b5b828201905092915050565b600061428382614365565b915061428e83614365565b92508261429e5761429d6144d5565b5b828204905092915050565b60006142b482614365565b91506142bf83614365565b9250817fffffffffffffffffffffffffffffffffffffffffffffffffffffffffffffffff04831182151516156142f8576142f76144a6565b5b828202905092915050565b600061430e82614345565b9050919050565b60008115159050919050565b600061432c82614303565b9050919050565b600061433e82614303565b9050919050565b600073ffffffffffffffffffffffffffffffffffffffff82169050919050565b6000819050919050565b600063ffffffff82169050919050565b600061438a82614391565b9050919050565b600061439c82614345565b9050919050565b60006143ae826143b5565b9050919050565b60006143c082614345565b9050919050565b60006143d2826143d9565b9050919050565b60006143e482614345565b9050919050565b60006143f68261436f565b9050919050565b60005b8381101561441b578082015181840152602081019050614400565b8381111561442a576000848401525b50505050565b600061443b82614365565b91507fffffffffffffffffffffffffffffffffffffffffffffffffffffffffffffffff82141561446e5761446d6144a6565b5b600182019050919050565b60006144848261436f565b915063ffffffff82141561449b5761449a6144a6565b5b600182019050919050565b7f4e487b7100000000000000000000000000000000000000000000000000000000600052601160045260246000fd5b7f4e487b7100000000000000000000000000000000000000000000000000000000600052601260045260246000fd5b6000601f19601f8301169050919050565b7f43686f6f736520612043686f6963652031206f722032206f7220330000000000600082015250565b7f636865636b20616c6c6f77616e63650000000000000000000000000000000000600082015250565b7f4f776e61626c653a206e6577206f776e657220697320746865207a65726f206160008201527f6464726573730000000000000000000000000000000000000000000000000000602082015250565b7f55736572496420616e642063616c6c696e672061646472657373206973206e6f60008201527f74206d6174636865640000000000000000000000000000000000000000000000602082015250565b7f42657420706c6163656420416c726561647920696e207468697320526f756e64600082015250565b7f556e617070726f76656420557365720000000000000000000000000000000000600082015250565b7f556e617070726f76656400000000000000000000000000000000000000000000600082015250565b7f4f776e61626c653a2063616c6c6572206973206e6f7420746865206f776e6572600082015250565b7f54696d65204f7665720000000000000000000000000000000000000000000000600082015250565b7f5761697420666f7220736f6d6574696d652052656761696e20736f6d6520656e60008201527f6572677900000000000000000000000000000000000000000000000000000000602082015250565b7f4163636573732064656e69656400000000000000000000000000000000000000600082015250565b7f576169742074696c6c20556e6c6f636b65640000000000000000000000000000600082015250565b61477c81614303565b811461478757600080fd5b50565b61479381614315565b811461479e57600080fd5b50565b6147aa81614321565b81146147b557600080fd5b50565b6147c181614333565b81146147cc57600080fd5b50565b6147d881614365565b81146147e357600080fd5b50565b6147ef8161436f565b81146147fa57600080fd5b5056fea26469706673582212203bfc9bd235c3740482f744796835b8b6f5a7fb9ccfd9d63be5c3b82ff69fc17b64736f6c63430008040033",
  "immutableReferences": {},
  "source": "// SPDX-License-Identifier: MIT\r\npragma solidity 0.8.4;\r\n\r\n\r\nimport \"@openzeppelin/contracts/access/Ownable.sol\";\r\nimport \"./interfaces/IController.sol\";\r\nimport \"./interfaces/IClient.sol\";\r\nimport \"./interfaces/IBSCV.sol\";\r\nimport \"./interfaces/IBANK.sol\";\r\n//import \"https://github.com/OpenZeppelin/openzeppelin-contracts/blob/master/contracts/security/Pausable.sol\";\r\n\r\ncontract Client is IClient,Ownable{\r\n    /* ========== States ========== */\r\n    //ERC-20\r\n    IBSCV public BSCV;\r\n\r\n    //BANK\r\n    IBANK public Bank;\r\n\r\n    //Controller\r\n    IController public Controller;\r\n\r\n    //Array of Rounds\r\n    round[] internal rounds;\r\n\r\n    //Array of Users\r\n    User[] internal users;\r\n\r\n    //Countdown for the rounds\r\n    uint32 public Countdown;\r\n\r\n    //track userId through address\r\n    mapping(address => uint32)private userId;\r\n\r\n    //validation\r\n    mapping(address => mapping(uint256 => uint256))private betAmounts;\r\n\r\n    //tax \r\n    uint256 public Tax = uint256(10);\r\n\r\n    //restTime after each bet\r\n    uint256 public restTime;\r\n    \r\n    /* ========== Structs ========== */\r\n\r\n    //struct containing all info for a round\r\n    struct round{\r\n        uint256 roundId;\r\n        uint32 start;\r\n        uint32 end;\r\n        address[] bettingAddressesOnOne;\r\n        uint256[] bettingAmountsOnOne;\r\n        address[] bettingAddressesOnTwo;\r\n        uint256[] bettingAmountsOnTwo;\r\n        address[] bettingAddressesOnThree;\r\n        uint256[] bettingAmountsOnThree;\r\n        uint256 winningChoice;\r\n        uint256 totalPrize;\r\n    }\r\n    \r\n    //struct containing all info for each user\r\n    struct User{\r\n        uint32 UserID;\r\n        uint32 Level;\r\n        uint256 PendingRewards;\r\n        uint256 CollectedRewards;\r\n        uint256 LockTill;\r\n        uint256 BetCounts;\r\n        bool Approved;\r\n    }\r\n\r\n    /* ========== Events ========== */\r\n\r\n    event betPlaced(uint32 userID,uint256 choice,uint256 _amount);\r\n    event roundCreated(uint256 roundId);\r\n    \r\n    /* ========== Constructor ========== */\r\n\r\n    constructor(IBSCV _token,IController _controller,uint32 _countdown,uint256 _restTime,IBANK _bank){\r\n        BSCV = _token;\r\n        Controller = _controller;\r\n        Countdown = _countdown;\r\n        restTime = _restTime;\r\n        Bank = _bank;\r\n    }\r\n\r\n    /* ========== Public Functions ========== */\r\n\r\n    /** * @dev used to bet in the current round\r\n    The user is registered if he/she is a new user and assigned a new userId\r\n    */ \r\n    function bet(uint256 _choice,uint256 _amount)public returns(uint32 _userID,uint256 amount,string memory result){\r\n        //should enter 1 or 2 or 3 to bet in a round\r\n        require(_choice > 0 && _choice < uint256(4),\"Choose a Choice 1 or 2 or 3\");\r\n\r\n        //should be given allowance of desired tokens to this contract to bet\r\n        require(BSCV._beforeBet(msg.sender,_amount) == true,\"check allowance\");\r\n\r\n        //get current roundID\r\n        uint256 roundId = Controller.getCurrentRoundId();\r\n\r\n        //a single address cant place a bet more than once in a round\r\n        require(betAmounts[msg.sender][roundId] == uint256(0),\"Bet placed Already in this Round\");\r\n\r\n        //Authorization\r\n        bool auth = authorize(msg.sender);\r\n\r\n        if(auth == true){\r\n            //Getting user id assigned to address\r\n            uint32 userID = userId[msg.sender];\r\n\r\n            //Getting Userinfo with userID\r\n            User storage info = users[userID];\r\n\r\n            //getting userLevel and betCounts\r\n            (uint32 level,uint256 betCounts) = (info.Level , info.BetCounts);\r\n\r\n            //levelManager manages the level of the user\r\n            levelManager(userID,level,betCounts);\r\n\r\n            //betManager manages betsPlaced\r\n            (uint256 tax)=betManager(userID,_choice,_amount);\r\n\r\n            //returning receipt for bet\r\n            (_userID,amount,result) = (userID,_amount+tax,\"Bid Placed\");\r\n\r\n        }else{\r\n            (_userID,amount,result) = (uint32(0),_amount,\"Placing Bid Failed\");\r\n        }\r\n\r\n    }\r\n\r\n\r\n    /** * @dev used to bet without any automated checking\r\n    */ \r\n    function betManager(uint32 _userId,uint256 _choice,uint256 _betAmount)public Approved Free returns(uint256){\r\n        require(_choice > 0 && _choice < uint256(4),\"Choose a Choice 1 or 2 or 3\");\r\n        require(userId[msg.sender] == _userId,\"UserId and calling address is not matched\");\r\n        //Get Current RoundID\r\n        uint256 roundId = Controller.getCurrentRoundId();\r\n\r\n        //getting Round Info\r\n        round storage spin = rounds[roundId];\r\n\r\n        //Bet should be placed before the round time ends\r\n        require(spin.end > uint32(block.number),\"Time Over\");\r\n\r\n        //Place bet if choice was 1\r\n        if(_choice == 1){\r\n        spin.bettingAddressesOnOne.push(msg.sender);\r\n        spin.bettingAmountsOnOne.push(_betAmount);\r\n        }\r\n        //Place bet if choice was 2\r\n        if(_choice == 2){\r\n            spin.bettingAddressesOnTwo.push(msg.sender);\r\n            spin.bettingAmountsOnTwo.push(_betAmount);\r\n        }\r\n        //Place bet if choice was 3\r\n        if(_choice == 3){\r\n            spin.bettingAddressesOnThree.push(msg.sender);\r\n            spin.bettingAmountsOnThree.push(_betAmount);\r\n        }\r\n\r\n        //tax on this bet\r\n        uint256 tax = _betAmount*Tax/100;\r\n\r\n        //ERC20 transfer betAmount to this contract\r\n        BSCV.transferFrom(msg.sender,address(this),_betAmount);\r\n\r\n        //ERC20 transfer taxAmount to Controller contract\r\n        BSCV.transferFrom(msg.sender,address(Controller),tax);\r\n\r\n        //add current bet to total prize\r\n        spin.totalPrize += _betAmount;\r\n\r\n        //locking the user for restTime blocks\r\n        users[_userId].LockTill = block.number + restTime;\r\n\r\n        //increasing the user bet counts\r\n        users[_userId].BetCounts++;\r\n\r\n        //saving the bet\r\n        betAmounts[msg.sender][roundId] = _betAmount;\r\n\r\n        emit betPlaced(_userId,_choice,_betAmount);\r\n        return tax;\r\n    }\r\n    \r\n    /** * @dev collect rewards you've won\r\n    accessed only by approvedUsers\r\n    */ \r\n    function collectRewards()public Approved {\r\n        //getting userID\r\n        uint256 userID = userId[msg.sender];\r\n        //getting pendingRewards\r\n        uint256 pending = getPendingRewards(msg.sender);\r\n        if(pending < BSCV.balanceOf(address(this))){\r\n            BSCV.transferFrom(address(this),msg.sender,pending);\r\n        }else{\r\n            Bank.withdraw(msg.sender, pending);\r\n        }\r\n        //transfer the rewards to the user\r\n        //saving the collection action\r\n        users[userID].CollectedRewards += pending;\r\n        users[userID].PendingRewards = uint256(0);\r\n    } \r\n\r\n    /** * @dev returns the roundinfo based on roundId\r\n    */ \r\n    function getRoundInfo(uint256 _roundId)public view returns( uint256 roundId,\r\n        uint256 start,\r\n        uint256 end,\r\n        address[] memory bettingAddressesOnOne,\r\n        uint256[] memory bettingAmountsOnOne,\r\n        address[] memory bettingAddressesOnTwo,\r\n        uint256[] memory bettingAmountsOnTwo,\r\n        address[] memory bettingAddressesOnThree,\r\n        uint256[] memory bettingAmountsOnThree,\r\n        uint256 winningChoice,\r\n        uint256 totalPrize){\r\n        \r\n        round storage spin = rounds[_roundId];\r\n        roundId = spin.roundId;\r\n        start = spin.start;\r\n        end = spin.end;\r\n        bettingAddressesOnOne = spin.bettingAddressesOnOne;\r\n        bettingAmountsOnOne = spin.bettingAmountsOnOne;\r\n        bettingAddressesOnTwo = spin.bettingAddressesOnTwo;\r\n        bettingAmountsOnTwo = spin.bettingAmountsOnTwo;\r\n        bettingAddressesOnThree = spin.bettingAddressesOnThree;\r\n        bettingAmountsOnThree = spin.bettingAmountsOnThree;\r\n        winningChoice = spin.winningChoice;\r\n        totalPrize = spin.totalPrize;\r\n    }\r\n    \r\n    /** * @dev returns pending Rewards of a user\r\n    */ \r\n    function getPendingRewards(address _user)public view Approved returns(uint256){\r\n        uint32 userID = uint32(userId[_user]);\r\n        User storage info = users[userID];\r\n        return info.PendingRewards;\r\n    }\r\n\r\n    /* ========== External Functions ========== */\r\n    /** * @dev returns number of placed bet in the round\r\n    */ \r\n    function currentInfo() external view override returns(address[]memory,uint256[]memory,address[]memory,uint256[]memory,address[]memory,uint256[]memory,uint256){\r\n        uint256 roundId = Controller.getCurrentRoundId();\r\n        round storage spin = rounds[roundId];\r\n        return (spin.bettingAddressesOnOne,spin.bettingAmountsOnOne,spin.bettingAddressesOnTwo,spin.bettingAmountsOnTwo,spin.bettingAddressesOnThree,spin.bettingAmountsOnThree,spin.totalPrize);\r\n    } \r\n    /** * @dev returns a userid registered to the address\r\n    */ \r\n    function getUserId(address _address)external view override returns(uint32){\r\n        return uint32(userId[_address]);\r\n    }\r\n    /** * @dev returns user struct of registered userInfo\r\n    */ \r\n    function getUserInfo(uint32 _userId)external override view returns(uint32 UserID,\r\n        uint32 Level,\r\n        uint256 PendingRewards,\r\n        uint256 CollectedRewards,\r\n        uint256 LockTill,\r\n        uint256 BetCounts,\r\n        bool Approve){\r\n        User storage info = users[_userId];\r\n        UserID = _userId;\r\n        Level = info.Level;\r\n        PendingRewards = info.PendingRewards;\r\n        CollectedRewards = info.CollectedRewards;\r\n        LockTill = info.LockTill;\r\n        BetCounts = info.BetCounts;\r\n        Approve = info.Approved;\r\n    }\r\n    /** * @dev return totalUsers \r\n    */ \r\n    function totalUsers()external view override returns(uint256){\r\n        return users.length;\r\n    }\r\n    \r\n    /* ========== OnlyControllerFunctions ========== */\r\n\r\n    function setWinningChoice(uint256 _choice) external override onlyController {\r\n        uint256 roundId = Controller.getCurrentRoundId();\r\n        round storage spin = rounds[roundId];\r\n        spin.winningChoice = _choice;\r\n    }\r\n\r\n    function unapproveUser(uint32 _userId)external override onlyController{\r\n        users[_userId].Approved = false;\r\n    }\r\n    \r\n    function approveUser(uint32 _userId)external override onlyController{\r\n        users[_userId].Approved = true;\r\n    }\r\n\r\n    /** * @dev Creates round controlled by owner\r\n    */ \r\n    function createRound() external override onlyController returns(uint256){\r\n        uint256 roundId = Controller.getCurrentRoundId();\r\n      round memory _round = round({\r\n          roundId: roundId,\r\n          start: uint32(block.number),\r\n          end : uint32(block.number) + Countdown,\r\n          bettingAddressesOnOne: new address[](0),\r\n          bettingAmountsOnOne: new uint256[](0),\r\n          bettingAddressesOnTwo: new address[](0),\r\n          bettingAmountsOnTwo: new uint256[](0),\r\n          bettingAddressesOnThree: new address[](0),\r\n          bettingAmountsOnThree: new uint256[](0),\r\n          winningChoice:  uint256(0),\r\n          totalPrize: uint256(0)\r\n      });\r\n      rounds.push(_round);\r\n      emit roundCreated(roundId);\r\n      return roundId;\r\n    }\r\n\r\n    function addRewards(uint256 _userId,uint256 _amounts) external override onlyController{\r\n        users[_userId].PendingRewards += _amounts;\r\n    }\r\n    \r\n    function setCountdown(uint32 _countdown)external override onlyController{\r\n        Countdown =_countdown;\r\n    }\r\n    \r\n\r\n    /* ==========OnlyOwner========== */\r\n    function setBSCV(IBSCV _token)public onlyOwner{\r\n        BSCV = _token;\r\n    }\r\n    \r\n    function setController(IController _controller) public onlyOwner{\r\n        Controller =_controller;\r\n    }\r\n\r\n    function setRestTime(uint256 _rest)public onlyOwner{\r\n        restTime = _rest;\r\n    }\r\n\r\n    /* ==========Internal========== */\r\n    function authorize(address _address)internal returns(bool){\r\n       if(userId[_address] == uint32(0)){\r\n           registerUser(_address);\r\n       }\r\n       uint32 userID = userId[_address];\r\n       User storage info = users[userID];\r\n       require(info.LockTill <= block.number,\"Wait for sometime Regain some energy\");\r\n       require(info.Approved == true,\"Unapproved User\");\r\n       return (true);\r\n    }\r\n    function registerUser(address _address)internal returns(string memory,uint256){\r\n        uint32 totalUser = uint32(users.length);\r\n        User memory info = User({\r\n        UserID: totalUser,\r\n        Level: uint32(0),\r\n        PendingRewards: uint32(0),\r\n        CollectedRewards: uint256(0),\r\n        LockTill: uint256(0),\r\n        BetCounts: uint256(0),\r\n        Approved: true\r\n        });\r\n        users.push(info);\r\n        userId[_address] = totalUser;\r\n        return(\"Created USERID\",totalUser);\r\n    }\r\n    function levelManager(uint32 _userId,uint32 _level,uint256 _betCounts)internal{\r\n        bool upgrade = Controller.levelRequirements(_level,_betCounts);\r\n        if(upgrade == true){\r\n            users[_userId].Level++;\r\n        }\r\n    }\r\n    \r\n    modifier Approved{\r\n        require(users[userId[msg.sender]].Approved == true,\"Unapproved\");\r\n        _;\r\n    }\r\n    modifier Free{\r\n        require(users[userId[msg.sender]].LockTill < block.number,\"Wait till Unlocked\");\r\n        _;\r\n    }\r\n    modifier onlyController{\r\n        require(msg.sender == address(Controller),\"Access denied\");\r\n        _;\r\n    }\r\n}",
  "sourcePath": "C:/Users/Bharath/Desktop/fortunetta-contracts/contracts/Client.sol",
  "compiler": {
    "name": "solc",
    "version": "0.8.4+commit.c7e474f2.Emscripten.clang"
  },
  "schemaVersion": "3.4.1",
  "updatedAt": "2021-07-05T14:08:43.155Z",
  "networkType": "ethereum",
  "devdoc": {
    "kind": "dev",
    "methods": {
      "bet(uint256,uint256)": {
        "details": "used to bet in the current round The user is registered if he/she is a new user and assigned a new userId"
      },
      "betManager(uint32,uint256,uint256)": {
        "details": "used to bet without any automated checking"
      },
      "collectRewards()": {
        "details": "collect rewards you've won accessed only by approvedUsers"
      },
      "createRound()": {
        "details": "Creates round controlled by owner"
      },
      "currentInfo()": {
        "details": "returns number of placed bet in the round"
      },
      "getPendingRewards(address)": {
        "details": "returns pending Rewards of a user"
      },
      "getRoundInfo(uint256)": {
        "details": "returns the roundinfo based on roundId"
      },
      "getUserId(address)": {
        "details": "returns a userid registered to the address"
      },
      "getUserInfo(uint32)": {
        "details": "returns user struct of registered userInfo"
      },
      "owner()": {
        "details": "Returns the address of the current owner."
      },
      "renounceOwnership()": {
        "details": "Leaves the contract without owner. It will not be possible to call `onlyOwner` functions anymore. Can only be called by the current owner. NOTE: Renouncing ownership will leave the contract without an owner, thereby removing any functionality that is only available to the owner."
      },
      "totalUsers()": {
        "details": "return totalUsers "
      },
      "transferOwnership(address)": {
        "details": "Transfers ownership of the contract to a new account (`newOwner`). Can only be called by the current owner."
      }
    },
    "version": 1
  },
  "userdoc": {
    "kind": "user",
    "methods": {},
    "version": 1
  }
}