{
  "contractName": "Controller",
  "abi": [
    {
      "inputs": [
        {
          "internalType": "address",
          "name": "_operator",
          "type": "address"
        },
        {
          "internalType": "contract IClient",
          "name": "_client",
          "type": "address"
        },
        {
          "internalType": "contract IBSCV",
          "name": "_bscv",
          "type": "address"
        }
      ],
      "stateMutability": "nonpayable",
      "type": "constructor"
    },
    {
      "anonymous": false,
      "inputs": [
        {
          "indexed": true,
          "internalType": "address",
          "name": "previousGuard",
          "type": "address"
        },
        {
          "indexed": true,
          "internalType": "address",
          "name": "newGuard",
          "type": "address"
        }
      ],
      "name": "GuardshipTransferred",
      "type": "event"
    },
    {
      "inputs": [],
      "name": "Round",
      "outputs": [
        {
          "internalType": "uint256",
          "name": "_value",
          "type": "uint256"
        }
      ],
      "stateMutability": "view",
      "type": "function"
    },
    {
      "inputs": [],
      "name": "dailyRewardInterval",
      "outputs": [
        {
          "internalType": "uint256",
          "name": "",
          "type": "uint256"
        }
      ],
      "stateMutability": "view",
      "type": "function"
    },
    {
      "inputs": [],
      "name": "dailyRewards",
      "outputs": [
        {
          "internalType": "uint256",
          "name": "",
          "type": "uint256"
        }
      ],
      "stateMutability": "view",
      "type": "function"
    },
    {
      "inputs": [],
      "name": "guard",
      "outputs": [
        {
          "internalType": "address",
          "name": "",
          "type": "address"
        }
      ],
      "stateMutability": "view",
      "type": "function"
    },
    {
      "inputs": [],
      "name": "nextdailyRewardAt",
      "outputs": [
        {
          "internalType": "uint256",
          "name": "",
          "type": "uint256"
        }
      ],
      "stateMutability": "view",
      "type": "function"
    },
    {
      "inputs": [],
      "name": "renounceGuardship",
      "outputs": [],
      "stateMutability": "nonpayable",
      "type": "function"
    },
    {
      "inputs": [
        {
          "internalType": "address",
          "name": "newGuard",
          "type": "address"
        }
      ],
      "name": "transferGuardship",
      "outputs": [],
      "stateMutability": "nonpayable",
      "type": "function"
    },
    {
      "inputs": [],
      "name": "createRound",
      "outputs": [
        {
          "internalType": "uint256",
          "name": "roundId",
          "type": "uint256"
        }
      ],
      "stateMutability": "nonpayable",
      "type": "function"
    },
    {
      "inputs": [
        {
          "internalType": "uint256",
          "name": "_choice",
          "type": "uint256"
        }
      ],
      "name": "finishRound",
      "outputs": [],
      "stateMutability": "nonpayable",
      "type": "function"
    },
    {
      "inputs": [
        {
          "internalType": "contract IClient",
          "name": "_client",
          "type": "address"
        }
      ],
      "name": "setClient",
      "outputs": [],
      "stateMutability": "nonpayable",
      "type": "function"
    },
    {
      "inputs": [],
      "name": "distributeDailyReward",
      "outputs": [],
      "stateMutability": "nonpayable",
      "type": "function"
    },
    {
      "inputs": [
        {
          "internalType": "uint256",
          "name": "_level",
          "type": "uint256"
        },
        {
          "internalType": "uint256",
          "name": "_condition",
          "type": "uint256"
        }
      ],
      "name": "editLevel",
      "outputs": [
        {
          "internalType": "string",
          "name": "message",
          "type": "string"
        }
      ],
      "stateMutability": "nonpayable",
      "type": "function"
    },
    {
      "inputs": [
        {
          "internalType": "contract IBSCV",
          "name": "_token",
          "type": "address"
        }
      ],
      "name": "setBSCV",
      "outputs": [],
      "stateMutability": "nonpayable",
      "type": "function"
    },
    {
      "inputs": [
        {
          "internalType": "address",
          "name": "_operator",
          "type": "address"
        }
      ],
      "name": "setOperator",
      "outputs": [],
      "stateMutability": "nonpayable",
      "type": "function"
    },
    {
      "inputs": [
        {
          "internalType": "address",
          "name": "_withdraw",
          "type": "address"
        }
      ],
      "name": "withdrawRevenue",
      "outputs": [],
      "stateMutability": "nonpayable",
      "type": "function"
    },
    {
      "inputs": [
        {
          "internalType": "address",
          "name": "_user",
          "type": "address"
        },
        {
          "internalType": "bool",
          "name": "_approved",
          "type": "bool"
        }
      ],
      "name": "changeUserStatus",
      "outputs": [],
      "stateMutability": "nonpayable",
      "type": "function"
    },
    {
      "inputs": [
        {
          "internalType": "uint32",
          "name": "_countDown",
          "type": "uint32"
        }
      ],
      "name": "setCountDown",
      "outputs": [],
      "stateMutability": "nonpayable",
      "type": "function"
    },
    {
      "inputs": [
        {
          "internalType": "uint256",
          "name": "_level",
          "type": "uint256"
        },
        {
          "internalType": "uint256",
          "name": "_betCounts",
          "type": "uint256"
        }
      ],
      "name": "levelRequirements",
      "outputs": [
        {
          "internalType": "bool",
          "name": "_result",
          "type": "bool"
        }
      ],
      "stateMutability": "view",
      "type": "function"
    },
    {
      "inputs": [],
      "name": "getCurrentRoundId",
      "outputs": [
        {
          "internalType": "uint256",
          "name": "",
          "type": "uint256"
        }
      ],
      "stateMutability": "view",
      "type": "function"
    }
  ],
  "bytecode": "0x6080604052678ac7230489e80000600855620151806009553480156200002457600080fd5b50604051620031373803806200313783398181016040528101906200004a91906200035e565b6200006a6200005e6200024d60201b60201c565b6200025560201b60201c565b82600160006101000a81548173ffffffffffffffffffffffffffffffffffffffff021916908373ffffffffffffffffffffffffffffffffffffffff16021790555081600260006101000a81548173ffffffffffffffffffffffffffffffffffffffff021916908373ffffffffffffffffffffffffffffffffffffffff16021790555080600360006101000a81548173ffffffffffffffffffffffffffffffffffffffff021916908373ffffffffffffffffffffffffffffffffffffffff1602179055506002600460008081526020019081526020016000208190555060066004600060018152602001908152602001600020819055506008600460006002815260200190815260200160002081905550600c600460006003815260200190815260200160002081905550600f600460006004815260200190815260200160002081905550600060056000808152602001908152602001600020819055506001600560006001815260200190815260200160002081905550600260056000600281526020019081526020016000208190555060036005600060038152602001908152602001600020819055506004600560006004815260200190815260200160002081905550600a436200023e9190620003b4565b600781905550505050620004f4565b600033905090565b60008060009054906101000a900473ffffffffffffffffffffffffffffffffffffffff169050816000806101000a81548173ffffffffffffffffffffffffffffffffffffffff021916908373ffffffffffffffffffffffffffffffffffffffff1602179055508173ffffffffffffffffffffffffffffffffffffffff168173ffffffffffffffffffffffffffffffffffffffff167f4fd5ebbe9a811d1659c379f6e2841843ffa877c7c3a271324a6c41c33bc1d9cc60405160405180910390a35050565b6000815190506200032a81620004a6565b92915050565b6000815190506200034181620004c0565b92915050565b6000815190506200035881620004da565b92915050565b6000806000606084860312156200037457600080fd5b6000620003848682870162000319565b9350506020620003978682870162000347565b9250506040620003aa8682870162000330565b9150509250925092565b6000620003c1826200046d565b9150620003ce836200046d565b9250827fffffffffffffffffffffffffffffffffffffffffffffffffffffffffffffffff0382111562000406576200040562000477565b5b828201905092915050565b60006200041e826200044d565b9050919050565b6000620004328262000411565b9050919050565b6000620004468262000411565b9050919050565b600073ffffffffffffffffffffffffffffffffffffffff82169050919050565b6000819050919050565b7f4e487b7100000000000000000000000000000000000000000000000000000000600052601160045260246000fd5b620004b18162000411565b8114620004bd57600080fd5b50565b620004cb8162000425565b8114620004d757600080fd5b50565b620004e58162000439565b8114620004f157600080fd5b50565b612c3380620005046000396000f3fe608060405234801561001057600080fd5b50600436106101215760003560e01c80637ceab3b1116100ad578063c8bfef7711610071578063c8bfef7714610294578063d7bc2eb5146102b2578063d84c2aa2146102e2578063e4179d0414610312578063f95981281461033057610121565b80637ceab3b1146102165780638526690a14610234578063916df92a14610250578063b3ab15fb1461026e578063c0e9d76c1461028a57610121565b806336a1fb5f116100f457806336a1fb5f1461019857806349bf4d67146101b45780635727e25d146101d25780635e420f4c146101f05780637bf1200e1461020c57610121565b80631b411fc8146101265780631fe0ff58146101445780632c2a39891461016057806336366d5e1461017c575b600080fd5b61012e61034c565b60405161013b9190612694565b60405180910390f35b61015e60048036038101906101599190612279565b610485565b005b61017a6004803603810190610175919061206b565b610c34565b005b61019660048036038101906101919190612307565b610d2c565b005b6101b260048036038101906101ad9190612094565b610e38565b005b6101bc611095565b6040516101c99190612694565b60405180910390f35b6101da61109b565b6040516101e79190612694565b60405180910390f35b61020a6004803603810190610205919061206b565b6110ac565b005b610214611287565b005b61021e61130f565b60405161022b9190612534565b60405180910390f35b61024e60048036038101906102499190612250565b611338565b005b61025861140c565b6040516102659190612694565b60405180910390f35b6102886004803603810190610283919061206b565b611418565b005b6102926114d8565b005b61029c611824565b6040516102a99190612694565b60405180910390f35b6102cc60048036038101906102c791906122cb565b61182a565b6040516102d99190612586565b60405180910390f35b6102fc60048036038101906102f791906122cb565b611860565b60405161030991906125f2565b60405180910390f35b61031a611934565b6040516103279190612694565b60405180910390f35b61034a60048036038101906103459190612227565b61193a565b005b6000600160009054906101000a900473ffffffffffffffffffffffffffffffffffffffff1673ffffffffffffffffffffffffffffffffffffffff163373ffffffffffffffffffffffffffffffffffffffff16146103de576040517f08c379a00000000000000000000000000000000000000000000000000000000081526004016103d590612674565b60405180910390fd5b600260009054906101000a900473ffffffffffffffffffffffffffffffffffffffff1673ffffffffffffffffffffffffffffffffffffffff16631b411fc86040518163ffffffff1660e01b8152600401602060405180830381600087803b15801561044857600080fd5b505af115801561045c573d6000803e3d6000fd5b505050506040513d601f19601f8201168201806040525081019061048091906122a2565b905090565b600160009054906101000a900473ffffffffffffffffffffffffffffffffffffffff1673ffffffffffffffffffffffffffffffffffffffff163373ffffffffffffffffffffffffffffffffffffffff1614610515576040517f08c379a000000000000000000000000000000000000000000000000000000000815260040161050c90612674565b60405180910390fd5b6000811180156105255750600481105b61052e57600080fd5b6000806000806000806000600260009054906101000a900473ffffffffffffffffffffffffffffffffffffffff1673ffffffffffffffffffffffffffffffffffffffff1663c4fc78c36040518163ffffffff1660e01b815260040160006040518083038186803b1580156105a157600080fd5b505afa1580156105b5573d6000803e3d6000fd5b505050506040513d6000823e3d601f19601f820116820180604052508101906105de91906120d0565b965096509650965096509650965060018814156107c7576000806106038989856119fa565b91509150600260009054906101000a900473ffffffffffffffffffffffffffffffffffffffff1673ffffffffffffffffffffffffffffffffffffffff16637f16cf7860016040518263ffffffff1660e01b815260040161066391906125a1565b600060405180830381600087803b15801561067d57600080fd5b505af1158015610691573d6000803e3d6000fd5b5050505060005b89518110156107c357600260009054906101000a900473ffffffffffffffffffffffffffffffffffffffff1673ffffffffffffffffffffffffffffffffffffffff1663fc41aa09848381518110610718577f4e487b7100000000000000000000000000000000000000000000000000000000600052603260045260246000fd5b6020026020010151848481518110610759577f4e487b7100000000000000000000000000000000000000000000000000000000600052603260045260246000fd5b60200260200101516040518363ffffffff1660e01b815260040161077e9291906126ca565b600060405180830381600087803b15801561079857600080fd5b505af11580156107ac573d6000803e3d6000fd5b5050505080806107bb90612995565b915050610698565b5050505b60028814156109a2576000806107de8787856119fa565b91509150600260009054906101000a900473ffffffffffffffffffffffffffffffffffffffff1673ffffffffffffffffffffffffffffffffffffffff16637f16cf7860026040518263ffffffff1660e01b815260040161083e91906125bc565b600060405180830381600087803b15801561085857600080fd5b505af115801561086c573d6000803e3d6000fd5b5050505060005b875181101561099e57600260009054906101000a900473ffffffffffffffffffffffffffffffffffffffff1673ffffffffffffffffffffffffffffffffffffffff1663fc41aa098483815181106108f3577f4e487b7100000000000000000000000000000000000000000000000000000000600052603260045260246000fd5b6020026020010151848481518110610934577f4e487b7100000000000000000000000000000000000000000000000000000000600052603260045260246000fd5b60200260200101516040518363ffffffff1660e01b81526004016109599291906126ca565b600060405180830381600087803b15801561097357600080fd5b505af1158015610987573d6000803e3d6000fd5b50505050808061099690612995565b915050610873565b5050505b6003881415610b7d576000806109b98585856119fa565b91509150600260009054906101000a900473ffffffffffffffffffffffffffffffffffffffff1673ffffffffffffffffffffffffffffffffffffffff16637f16cf7860036040518263ffffffff1660e01b8152600401610a1991906125d7565b600060405180830381600087803b158015610a3357600080fd5b505af1158015610a47573d6000803e3d6000fd5b5050505060005b8551811015610b7957600260009054906101000a900473ffffffffffffffffffffffffffffffffffffffff1673ffffffffffffffffffffffffffffffffffffffff1663fc41aa09848381518110610ace577f4e487b7100000000000000000000000000000000000000000000000000000000600052603260045260246000fd5b6020026020010151848481518110610b0f577f4e487b7100000000000000000000000000000000000000000000000000000000600052603260045260246000fd5b60200260200101516040518363ffffffff1660e01b8152600401610b349291906126ca565b600060405180830381600087803b158015610b4e57600080fd5b505af1158015610b62573d6000803e3d6000fd5b505050508080610b7190612995565b915050610a4e565b5050505b600260009054906101000a900473ffffffffffffffffffffffffffffffffffffffff1673ffffffffffffffffffffffffffffffffffffffff16631b411fc86040518163ffffffff1660e01b8152600401602060405180830381600087803b158015610be757600080fd5b505af1158015610bfb573d6000803e3d6000fd5b505050506040513d601f19601f82011682018060405250810190610c1f91906122a2565b50610c2a6006611d7d565b5050505050505050565b610c3c611d93565b73ffffffffffffffffffffffffffffffffffffffff16610c5a61130f565b73ffffffffffffffffffffffffffffffffffffffff1614610cb0576040517f08c379a0000000000000000000000000000000000000000000000000000000008152600401610ca790612654565b60405180910390fd5b600073ffffffffffffffffffffffffffffffffffffffff168173ffffffffffffffffffffffffffffffffffffffff161415610d20576040517f08c379a0000000000000000000000000000000000000000000000000000000008152600401610d1790612614565b60405180910390fd5b610d2981611d9b565b50565b610d34611d93565b73ffffffffffffffffffffffffffffffffffffffff16610d5261130f565b73ffffffffffffffffffffffffffffffffffffffff1614610da8576040517f08c379a0000000000000000000000000000000000000000000000000000000008152600401610d9f90612654565b60405180910390fd5b600260009054906101000a900473ffffffffffffffffffffffffffffffffffffffff1673ffffffffffffffffffffffffffffffffffffffff166375492744826040518263ffffffff1660e01b8152600401610e0391906126af565b600060405180830381600087803b158015610e1d57600080fd5b505af1158015610e31573d6000803e3d6000fd5b5050505050565b610e40611d93565b73ffffffffffffffffffffffffffffffffffffffff16610e5e61130f565b73ffffffffffffffffffffffffffffffffffffffff1614610eb4576040517f08c379a0000000000000000000000000000000000000000000000000000000008152600401610eab90612654565b60405180910390fd5b6000600260009054906101000a900473ffffffffffffffffffffffffffffffffffffffff1673ffffffffffffffffffffffffffffffffffffffff16632b956ff7846040518263ffffffff1660e01b8152600401610f119190612534565b60206040518083038186803b158015610f2957600080fd5b505afa158015610f3d573d6000803e3d6000fd5b505050506040513d601f19601f82011682018060405250810190610f619190612330565b905060011515821515141561100257600260009054906101000a900473ffffffffffffffffffffffffffffffffffffffff1673ffffffffffffffffffffffffffffffffffffffff16635edf8a6c826040518263ffffffff1660e01b8152600401610fcb91906126af565b600060405180830381600087803b158015610fe557600080fd5b505af1158015610ff9573d6000803e3d6000fd5b50505050611090565b600260009054906101000a900473ffffffffffffffffffffffffffffffffffffffff1673ffffffffffffffffffffffffffffffffffffffff1663e9a16d6c826040518263ffffffff1660e01b815260040161105d91906126af565b600060405180830381600087803b15801561107757600080fd5b505af115801561108b573d6000803e3d6000fd5b505050505b505050565b60095481565b60006110a76006611e5f565b905090565b6110b4611d93565b73ffffffffffffffffffffffffffffffffffffffff166110d261130f565b73ffffffffffffffffffffffffffffffffffffffff1614611128576040517f08c379a000000000000000000000000000000000000000000000000000000000815260040161111f90612654565b60405180910390fd5b600360009054906101000a900473ffffffffffffffffffffffffffffffffffffffff1673ffffffffffffffffffffffffffffffffffffffff166323b872dd3083600360009054906101000a900473ffffffffffffffffffffffffffffffffffffffff1673ffffffffffffffffffffffffffffffffffffffff166370a08231306040518263ffffffff1660e01b81526004016111c39190612534565b60206040518083038186803b1580156111db57600080fd5b505afa1580156111ef573d6000803e3d6000fd5b505050506040513d601f19601f8201168201806040525081019061121391906122a2565b6040518463ffffffff1660e01b81526004016112319392919061254f565b602060405180830381600087803b15801561124b57600080fd5b505af115801561125f573d6000803e3d6000fd5b505050506040513d601f19601f8201168201806040525081019061128391906121fe565b5050565b61128f611d93565b73ffffffffffffffffffffffffffffffffffffffff166112ad61130f565b73ffffffffffffffffffffffffffffffffffffffff1614611303576040517f08c379a00000000000000000000000000000000000000000000000000000000081526004016112fa90612654565b60405180910390fd5b61130d6000611d9b565b565b60008060009054906101000a900473ffffffffffffffffffffffffffffffffffffffff16905090565b600160009054906101000a900473ffffffffffffffffffffffffffffffffffffffff1673ffffffffffffffffffffffffffffffffffffffff163373ffffffffffffffffffffffffffffffffffffffff16146113c8576040517f08c379a00000000000000000000000000000000000000000000000000000000081526004016113bf90612674565b60405180910390fd5b80600260006101000a81548173ffffffffffffffffffffffffffffffffffffffff021916908373ffffffffffffffffffffffffffffffffffffffff16021790555050565b60068060000154905081565b611420611d93565b73ffffffffffffffffffffffffffffffffffffffff1661143e61130f565b73ffffffffffffffffffffffffffffffffffffffff1614611494576040517f08c379a000000000000000000000000000000000000000000000000000000000815260040161148b90612654565b60405180910390fd5b80600160006101000a81548173ffffffffffffffffffffffffffffffffffffffff021916908373ffffffffffffffffffffffffffffffffffffffff16021790555050565b600160009054906101000a900473ffffffffffffffffffffffffffffffffffffffff1673ffffffffffffffffffffffffffffffffffffffff163373ffffffffffffffffffffffffffffffffffffffff1614611568576040517f08c379a000000000000000000000000000000000000000000000000000000000815260040161155f90612674565b60405180910390fd5b4360075411156115ad576040517f08c379a00000000000000000000000000000000000000000000000000000000081526004016115a490612634565b60405180910390fd5b6000600260009054906101000a900473ffffffffffffffffffffffffffffffffffffffff1673ffffffffffffffffffffffffffffffffffffffff1663bff1f9e16040518163ffffffff1660e01b8152600401602060405180830381600087803b15801561161957600080fd5b505af115801561162d573d6000803e3d6000fd5b505050506040513d601f19601f8201168201806040525081019061165191906122a2565b905060005b818163ffffffff16101561180c57600080600260009054906101000a900473ffffffffffffffffffffffffffffffffffffffff1673ffffffffffffffffffffffffffffffffffffffff16634d788a4c846040518263ffffffff1660e01b81526004016116c291906126af565b60e06040518083038186803b1580156116da57600080fd5b505afa1580156116ee573d6000803e3d6000fd5b505050506040513d601f19601f820116820180604052508101906117129190612359565b96505050505063ffffffff1692505060008214158015611736575060011515811515145b156117ef57600260009054906101000a900473ffffffffffffffffffffffffffffffffffffffff1673ffffffffffffffffffffffffffffffffffffffff1663fc41aa0984600560008681526020019081526020016000205460085461179b9190612813565b6040518363ffffffff1660e01b81526004016117b89291906126ca565b600060405180830381600087803b1580156117d257600080fd5b505af11580156117e6573d6000803e3d6000fd5b505050506117f6565b50506117f9565b50505b8080611804906129de565b915050611656565b506009544361181b919061278c565b60078190555050565b60085481565b60008083905082600460008381526020019081526020016000205414156118545760019150611859565b600091505b5092915050565b606061186a611d93565b73ffffffffffffffffffffffffffffffffffffffff1661188861130f565b73ffffffffffffffffffffffffffffffffffffffff16146118de576040517f08c379a00000000000000000000000000000000000000000000000000000000081526004016118d590612654565b60405180910390fd5b8160046000858152602001908152602001600020819055506040518060400160405280601781526020017f4c6576656c20636f6e646974696f6e206368616e676564000000000000000000815250905092915050565b60075481565b611942611d93565b73ffffffffffffffffffffffffffffffffffffffff1661196061130f565b73ffffffffffffffffffffffffffffffffffffffff16146119b6576040517f08c379a00000000000000000000000000000000000000000000000000000000081526004016119ad90612654565b60405180910390fd5b80600360006101000a81548173ffffffffffffffffffffffffffffffffffffffff021916908373ffffffffffffffffffffffffffffffffffffffff16021790555050565b606080600080865167ffffffffffffffff811115611a41577f4e487b7100000000000000000000000000000000000000000000000000000000600052604160045260246000fd5b604051908082528060200260200182016040528015611a6f5781602001602082028036833780820191505090505b5090506000875167ffffffffffffffff811115611ab5577f4e487b7100000000000000000000000000000000000000000000000000000000600052604160045260246000fd5b604051908082528060200260200182016040528015611ae35781602001602082028036833780820191505090505b50905060005b8851811015611c9157878181518110611b2b577f4e487b7100000000000000000000000000000000000000000000000000000000600052603260045260246000fd5b602002602001015184611b3e919061278c565b9350600260009054906101000a900473ffffffffffffffffffffffffffffffffffffffff1673ffffffffffffffffffffffffffffffffffffffff16632b956ff78a8381518110611bb7577f4e487b7100000000000000000000000000000000000000000000000000000000600052603260045260246000fd5b60200260200101516040518263ffffffff1660e01b8152600401611bdb9190612534565b60206040518083038186803b158015611bf357600080fd5b505afa158015611c07573d6000803e3d6000fd5b505050506040513d601f19601f82011682018060405250810190611c2b9190612330565b828281518110611c64577f4e487b7100000000000000000000000000000000000000000000000000000000600052603260045260246000fd5b602002602001019063ffffffff16908163ffffffff16815250508080611c8990612995565b915050611ae9565b5060005b8851811015611d6b5760006064858a8481518110611cdc577f4e487b7100000000000000000000000000000000000000000000000000000000600052603260045260246000fd5b6020026020010151611cee91906127e2565b611cf89190612813565b905087606482611d0891906127e2565b611d129190612813565b848381518110611d4b577f4e487b7100000000000000000000000000000000000000000000000000000000600052603260045260246000fd5b602002602001018181525050508080611d6390612995565b915050611c95565b50808294509450505050935093915050565b6001816000016000828254019250508190555050565b600033905090565b60008060009054906101000a900473ffffffffffffffffffffffffffffffffffffffff169050816000806101000a81548173ffffffffffffffffffffffffffffffffffffffff021916908373ffffffffffffffffffffffffffffffffffffffff1602179055508173ffffffffffffffffffffffffffffffffffffffff168173ffffffffffffffffffffffffffffffffffffffff167f4fd5ebbe9a811d1659c379f6e2841843ffa877c7c3a271324a6c41c33bc1d9cc60405160405180910390a35050565b600081600001549050919050565b6000611e80611e7b84612718565b6126f3565b90508083825260208201905082856020860282011115611e9f57600080fd5b60005b85811015611ecf5781611eb58882611f5a565b845260208401935060208301925050600181019050611ea2565b5050509392505050565b6000611eec611ee784612744565b6126f3565b90508083825260208201905082856020860282011115611f0b57600080fd5b60005b85811015611f3b5781611f21888261202c565b845260208401935060208301925050600181019050611f0e565b5050509392505050565b600081359050611f5481612b73565b92915050565b600081519050611f6981612b73565b92915050565b600082601f830112611f8057600080fd5b8151611f90848260208601611e6d565b91505092915050565b600082601f830112611faa57600080fd5b8151611fba848260208601611ed9565b91505092915050565b600081359050611fd281612b8a565b92915050565b600081519050611fe781612b8a565b92915050565b600081359050611ffc81612ba1565b92915050565b60008135905061201181612bb8565b92915050565b60008135905061202681612bcf565b92915050565b60008151905061203b81612bcf565b92915050565b60008135905061205081612be6565b92915050565b60008151905061206581612be6565b92915050565b60006020828403121561207d57600080fd5b600061208b84828501611f45565b91505092915050565b600080604083850312156120a757600080fd5b60006120b585828601611f45565b92505060206120c685828601611fc3565b9150509250929050565b600080600080600080600060e0888a0312156120eb57600080fd5b600088015167ffffffffffffffff81111561210557600080fd5b6121118a828b01611f6f565b975050602088015167ffffffffffffffff81111561212e57600080fd5b61213a8a828b01611f99565b965050604088015167ffffffffffffffff81111561215757600080fd5b6121638a828b01611f6f565b955050606088015167ffffffffffffffff81111561218057600080fd5b61218c8a828b01611f99565b945050608088015167ffffffffffffffff8111156121a957600080fd5b6121b58a828b01611f6f565b93505060a088015167ffffffffffffffff8111156121d257600080fd5b6121de8a828b01611f99565b92505060c06121ef8a828b0161202c565b91505092959891949750929550565b60006020828403121561221057600080fd5b600061221e84828501611fd8565b91505092915050565b60006020828403121561223957600080fd5b600061224784828501611fed565b91505092915050565b60006020828403121561226257600080fd5b600061227084828501612002565b91505092915050565b60006020828403121561228b57600080fd5b600061229984828501612017565b91505092915050565b6000602082840312156122b457600080fd5b60006122c28482850161202c565b91505092915050565b600080604083850312156122de57600080fd5b60006122ec85828601612017565b92505060206122fd85828601612017565b9150509250929050565b60006020828403121561231957600080fd5b600061232784828501612041565b91505092915050565b60006020828403121561234257600080fd5b600061235084828501612056565b91505092915050565b600080600080600080600060e0888a03121561237457600080fd5b60006123828a828b01612056565b97505060206123938a828b01612056565b96505060406123a48a828b0161202c565b95505060606123b58a828b0161202c565b94505060806123c68a828b0161202c565b93505060a06123d78a828b0161202c565b92505060c06123e88a828b01611fd8565b91505092959891949750929550565b6124008161286d565b82525050565b61240f8161287f565b82525050565b61241e816128e9565b82525050565b61242d816128fb565b82525050565b61243c8161290d565b82525050565b600061244d82612770565b612457818561277b565b9350612467818560208601612931565b61247081612a98565b840191505092915050565b600061248860268361277b565b915061249382612aa9565b604082019050919050565b60006124ab60078361277b565b91506124b682612af8565b602082019050919050565b60006124ce60208361277b565b91506124d982612b21565b602082019050919050565b60006124f1600d8361277b565b91506124fc82612b4a565b602082019050919050565b612510816128cf565b82525050565b61251f8161291f565b82525050565b61252e816128d9565b82525050565b600060208201905061254960008301846123f7565b92915050565b600060608201905061256460008301866123f7565b61257160208301856123f7565b61257e6040830184612507565b949350505050565b600060208201905061259b6000830184612406565b92915050565b60006020820190506125b66000830184612415565b92915050565b60006020820190506125d16000830184612424565b92915050565b60006020820190506125ec6000830184612433565b92915050565b6000602082019050818103600083015261260c8184612442565b905092915050565b6000602082019050818103600083015261262d8161247b565b9050919050565b6000602082019050818103600083015261264d8161249e565b9050919050565b6000602082019050818103600083015261266d816124c1565b9050919050565b6000602082019050818103600083015261268d816124e4565b9050919050565b60006020820190506126a96000830184612507565b92915050565b60006020820190506126c46000830184612525565b92915050565b60006040820190506126df6000830185612516565b6126ec6020830184612507565b9392505050565b60006126fd61270e565b90506127098282612964565b919050565b6000604051905090565b600067ffffffffffffffff82111561273357612732612a69565b5b602082029050602081019050919050565b600067ffffffffffffffff82111561275f5761275e612a69565b5b602082029050602081019050919050565b600081519050919050565b600082825260208201905092915050565b6000612797826128cf565b91506127a2836128cf565b9250827fffffffffffffffffffffffffffffffffffffffffffffffffffffffffffffffff038211156127d7576127d6612a0b565b5b828201905092915050565b60006127ed826128cf565b91506127f8836128cf565b92508261280857612807612a3a565b5b828204905092915050565b600061281e826128cf565b9150612829836128cf565b9250817fffffffffffffffffffffffffffffffffffffffffffffffffffffffffffffffff048311821515161561286257612861612a0b565b5b828202905092915050565b6000612878826128af565b9050919050565b60008115159050919050565b60006128968261286d565b9050919050565b60006128a88261286d565b9050919050565b600073ffffffffffffffffffffffffffffffffffffffff82169050919050565b6000819050919050565b600063ffffffff82169050919050565b60006128f4826128cf565b9050919050565b6000612906826128cf565b9050919050565b6000612918826128cf565b9050919050565b600061292a826128d9565b9050919050565b60005b8381101561294f578082015181840152602081019050612934565b8381111561295e576000848401525b50505050565b61296d82612a98565b810181811067ffffffffffffffff8211171561298c5761298b612a69565b5b80604052505050565b60006129a0826128cf565b91507fffffffffffffffffffffffffffffffffffffffffffffffffffffffffffffffff8214156129d3576129d2612a0b565b5b600182019050919050565b60006129e9826128d9565b915063ffffffff821415612a00576129ff612a0b565b5b600182019050919050565b7f4e487b7100000000000000000000000000000000000000000000000000000000600052601160045260246000fd5b7f4e487b7100000000000000000000000000000000000000000000000000000000600052601260045260246000fd5b7f4e487b7100000000000000000000000000000000000000000000000000000000600052604160045260246000fd5b6000601f19601f8301169050919050565b7f4f776e61626c653a206e6577206f776e657220697320746865207a65726f206160008201527f6464726573730000000000000000000000000000000000000000000000000000602082015250565b7f4e6f742059657400000000000000000000000000000000000000000000000000600082015250565b7f4f776e61626c653a2063616c6c6572206973206e6f7420746865206f776e6572600082015250565b7f6163636573732064656e69656400000000000000000000000000000000000000600082015250565b612b7c8161286d565b8114612b8757600080fd5b50565b612b938161287f565b8114612b9e57600080fd5b50565b612baa8161288b565b8114612bb557600080fd5b50565b612bc18161289d565b8114612bcc57600080fd5b50565b612bd8816128cf565b8114612be357600080fd5b50565b612bef816128d9565b8114612bfa57600080fd5b5056fea2646970667358221220f2dc25fe20842e148155b751aaabbb4d50d1deb7c313d1a04a383d4c10add59264736f6c63430008040033",
  "immutableReferences": {},
  "source": "// SPDX-License-Identifier: MIT\r\npragma solidity 0.8.4;\r\n\r\nimport \"./interfaces/IController.sol\";\r\nimport \"./interfaces/IBSCV.sol\";\r\nimport \"./interfaces/IClient.sol\";\r\nimport \"@openzeppelin/contracts/utils/Counters.sol\";\r\nimport \"./lib/Guarded.sol\";\r\n\r\n\r\ncontract Controller is IController,Guarded{\r\n    using Counters for Counters.Counter;\r\n    //address of the operator\r\n    address operator;\r\n\r\n    //address of the Client\r\n    IClient Client;\r\n\r\n    //address of the ERC20\r\n    IBSCV BSCV;\r\n\r\n    //mapping of levelConditions used to upgrade levels\r\n    mapping(uint256 => uint256)levelConditions;\r\n\r\n    //mapping of levelMultiplier used in distributing daily rewards based on level\r\n    mapping(uint256 => uint256)levelMultiplier;\r\n\r\n    //Round index\r\n    Counters.Counter public Round;\r\n    \r\n    //timestamp used to know the nextDailyReward\r\n    uint256 public nextdailyRewardAt;\r\n    //dailyReward base amount\r\n    uint256 public dailyRewards = uint256(10*10**18);\r\n    //dailyRewardInterval\r\n    uint256 public dailyRewardInterval = uint256(1 days);\r\n    \r\n    \r\n    constructor(address _operator,IClient _client,IBSCV _bscv){\r\n        operator = _operator;\r\n        Client = _client;\r\n        BSCV = _bscv;\r\n        levelConditions[0] = 2;\r\n        levelConditions[1] = 6;\r\n        levelConditions[2] = 8;\r\n        levelConditions[3] = 12;\r\n        levelConditions[4] = 15;\r\n        levelMultiplier[0] = 0;\r\n        levelMultiplier[1] = 1;\r\n        levelMultiplier[2] = 2;\r\n        levelMultiplier[3] = 3;\r\n        levelMultiplier[4] = 4;\r\n        \r\n        nextdailyRewardAt = block.number + 10;\r\n    }\r\n    /* ========== OnlyOperator Functions ========== */\r\n    function createRound()public onlyOperator returns(uint256 roundId){\r\n        roundId = Client.createRound();\r\n    }\r\n\r\n     /** * @dev finishtheRound based on random choice called via operator\r\n    */ \r\n    function finishRound(uint256 _choice)public onlyOperator{\r\n        require(_choice > 0 && _choice < uint256(4));\r\n         (address[] memory oneAddress,uint256[] memory oneAmounts,\r\n         address[] memory twoAddress,uint256[]memory twoAmounts,\r\n         address[]memory threeAddress,uint256[]memory threeAmounts,uint256 total) = Client.currentInfo();\r\n         \r\n        if(_choice == 1){\r\n            (uint32[] memory ids,uint256[] memory payments)= processPaymentInfo(oneAddress,oneAmounts,total);\r\n             Client.setWinningChoice(1);\r\n            for(uint256 i=0 ; i < oneAddress.length ; i++){\r\n               Client.addRewards(ids[i],payments[i]);\r\n            }\r\n        }\r\n        if(_choice == 2){\r\n            (uint32[] memory ids,uint256[] memory payments)= processPaymentInfo(twoAddress,twoAmounts,total);\r\n             Client.setWinningChoice(2);\r\n            for(uint256 i=0 ; i < twoAddress.length ; i++){\r\n               Client.addRewards(ids[i],payments[i]);\r\n            }\r\n        }\r\n        if(_choice == 3){\r\n            (uint32[] memory ids,uint256[] memory payments)= processPaymentInfo(threeAddress,threeAmounts,total);\r\n             Client.setWinningChoice(3);\r\n            for(uint256 i=0 ; i < threeAddress.length ; i++){\r\n               Client.addRewards(ids[i],payments[i]);\r\n            }\r\n        }\r\n        Client.createRound();\r\n        Round.increment();\r\n    }\r\n\r\n    /** * @dev Change to newClient\r\n    */\r\n    function setClient(IClient _client)public onlyOperator{\r\n        Client = _client;\r\n    }\r\n    \r\n    function distributeDailyReward()external onlyOperator{\r\n        require(nextdailyRewardAt <= block.number,\"Not Yet\");\r\n        uint256 totalUsers = Client.totalUsers();\r\n        for(uint32 i=0;i<totalUsers;i++){\r\n           (,uint256 level,,,,,bool Approved) = Client.getUserInfo(i);\r\n           if(level != 0 && Approved == true){\r\n              Client.addRewards(i,dailyRewards*levelMultiplier[level]);\r\n            }else{\r\n                continue;\r\n            }\r\n        }\r\n        nextdailyRewardAt = block.number + dailyRewardInterval;\r\n    }\r\n\r\n    /* ========== OnlyGuard Functions ========== */\r\n    \r\n    /** * @dev edit the level conditions \r\n       @param _level choose a level to edit its condition\r\n       @param _condition enter the condition to be changed\r\n       Use this function wisely as this would messup the levels of the users and other level requirements\r\n    */\r\n    function editLevel(uint256 _level,uint256 _condition)public onlyGuard returns(string memory message){\r\n        levelConditions[_level] = _condition;\r\n        return(\"Level condition changed\");\r\n    }\r\n\r\n    /** * @dev Change ERC20\r\n    */\r\n    function setBSCV(IBSCV _token)public onlyGuard{\r\n        BSCV = _token;\r\n    }\r\n\r\n    /** * @dev Change operator\r\n    */\r\n    function setOperator(address _operator)public onlyGuard{\r\n        operator = _operator;\r\n    }\r\n\r\n    function withdrawRevenue(address _withdraw)public onlyGuard{\r\n        BSCV.transferFrom(address(this),address(_withdraw),BSCV.balanceOf(address(this)));\r\n    }\r\n    \r\n    function changeUserStatus(address _user,bool _approved)public onlyGuard{\r\n        uint32 Userid = Client.getUserId(_user);\r\n        if(_approved == true){\r\n            Client.approveUser(Userid);\r\n        }else{\r\n            Client.unapproveUser(Userid);\r\n        }\r\n    }\r\n\r\n    function setCountDown(uint32 _countDown)public onlyGuard{\r\n        Client.setCountdown(_countDown);\r\n    }\r\n\r\n\r\n    /* ========== External Functions ========== */\r\n\r\n    /** * @dev returns true when the levelrequirements met by the user.Used by levelManager\r\n    */\r\n    function levelRequirements(uint256 _level,uint256 _betCounts)external view override returns(bool _result){\r\n        uint256 level = _level;\r\n        if(levelConditions[level] == _betCounts){\r\n            _result = true;\r\n        }else{\r\n            _result = false;\r\n        }\r\n    }\r\n    /** * @dev returns the current roundId\r\n    */\r\n    function getCurrentRoundId()external view override returns(uint256){\r\n        return Round.current();\r\n    }\r\n\r\n    /* ========== Internal Functions ========== */\r\n    function processPaymentInfo(address[]memory _addresses,uint256[]memory _amounts,uint256 _totalAmount)view internal returns(uint32[]memory,uint256[] memory){\r\n      uint256 total = 0;\r\n      uint256[] memory prizeAmounts = new uint256[](_addresses.length);\r\n      uint32[] memory ids = new uint32[](_addresses.length);\r\n      for(uint256 i = 0;i< _addresses.length;i++){\r\n          total += _amounts[i];\r\n          ids[i] = Client.getUserId(_addresses[i]);\r\n      }\r\n      for(uint256 j = 0; j < _addresses.length;j++){\r\n          //uint256 x = _amounts[j]/total*100;\r\n          uint256 x =(_amounts[j]/total)*(100);\r\n          prizeAmounts[j]=(x/100*_totalAmount);\r\n      }\r\n      return (ids,prizeAmounts);\r\n    }\r\n  \r\n    modifier onlyOperator{\r\n        require(msg.sender == operator,\"access denied\");\r\n        _;\r\n    }\r\n}",
  "sourcePath": "C:/Users/Bharath/Desktop/fortunetta-contracts/contracts/Controller.sol",
  "compiler": {
    "name": "solc",
    "version": "0.8.4+commit.c7e474f2.Emscripten.clang"
  },
  "schemaVersion": "3.4.1",
  "updatedAt": "2021-06-24T11:30:32.842Z",
  "devdoc": {
    "kind": "dev",
    "methods": {
      "editLevel(uint256,uint256)": {
        "details": "edit the level conditions ",
        "params": {
          "_condition": "enter the condition to be changed Use this function wisely as this would messup the levels of the users and other level requirements",
          "_level": "choose a level to edit its condition"
        }
      },
      "finishRound(uint256)": {
        "details": "finishtheRound based on random choice called via operator"
      },
      "getCurrentRoundId()": {
        "details": "returns the current roundId"
      },
      "guard()": {
        "details": "Returns the address of the current owner."
      },
      "levelRequirements(uint256,uint256)": {
        "details": "returns true when the levelrequirements met by the user.Used by levelManager"
      },
      "renounceGuardship()": {
        "details": "Leaves the contract without owner. It will not be possible to call `onlyOwner` functions anymore. Can only be called by the current owner. NOTE: Renouncing ownership will leave the contract without an owner, thereby removing any functionality that is only available to the owner."
      },
      "setBSCV(address)": {
        "details": "Change ERC20"
      },
      "setClient(address)": {
        "details": "Change to newClient"
      },
      "setOperator(address)": {
        "details": "Change operator"
      },
      "transferGuardship(address)": {
        "details": "Transfers ownership of the contract to a new account (`newOwner`). Can only be called by the current owner."
      }
    },
    "version": 1
  },
  "userdoc": {
    "kind": "user",
    "methods": {},
    "version": 1
  }
}