{
  "contractName": "Controller",
  "abi": [
    {
      "inputs": [
        {
          "internalType": "address",
          "name": "_operator",
          "type": "address"
        },
        {
          "internalType": "contract IClient",
          "name": "_client",
          "type": "address"
        },
        {
          "internalType": "contract IBSCV",
          "name": "_bscv",
          "type": "address"
        }
      ],
      "stateMutability": "nonpayable",
      "type": "constructor"
    },
    {
      "anonymous": false,
      "inputs": [
        {
          "indexed": true,
          "internalType": "address",
          "name": "previousGuard",
          "type": "address"
        },
        {
          "indexed": true,
          "internalType": "address",
          "name": "newGuard",
          "type": "address"
        }
      ],
      "name": "GuardshipTransferred",
      "type": "event"
    },
    {
      "anonymous": false,
      "inputs": [
        {
          "indexed": false,
          "internalType": "uint256",
          "name": "_id",
          "type": "uint256"
        }
      ],
      "name": "finishedRound",
      "type": "event"
    },
    {
      "inputs": [],
      "name": "BSCV",
      "outputs": [
        {
          "internalType": "contract IBSCV",
          "name": "",
          "type": "address"
        }
      ],
      "stateMutability": "view",
      "type": "function",
      "constant": true
    },
    {
      "inputs": [],
      "name": "Client",
      "outputs": [
        {
          "internalType": "contract IClient",
          "name": "",
          "type": "address"
        }
      ],
      "stateMutability": "view",
      "type": "function",
      "constant": true
    },
    {
      "inputs": [],
      "name": "Round",
      "outputs": [
        {
          "internalType": "uint256",
          "name": "_value",
          "type": "uint256"
        }
      ],
      "stateMutability": "view",
      "type": "function",
      "constant": true
    },
    {
      "inputs": [],
      "name": "dailyRewardInterval",
      "outputs": [
        {
          "internalType": "uint256",
          "name": "",
          "type": "uint256"
        }
      ],
      "stateMutability": "view",
      "type": "function",
      "constant": true
    },
    {
      "inputs": [],
      "name": "dailyRewards",
      "outputs": [
        {
          "internalType": "uint256",
          "name": "",
          "type": "uint256"
        }
      ],
      "stateMutability": "view",
      "type": "function",
      "constant": true
    },
    {
      "inputs": [],
      "name": "guard",
      "outputs": [
        {
          "internalType": "address",
          "name": "",
          "type": "address"
        }
      ],
      "stateMutability": "view",
      "type": "function",
      "constant": true
    },
    {
      "inputs": [],
      "name": "nextdailyRewardAt",
      "outputs": [
        {
          "internalType": "uint256",
          "name": "",
          "type": "uint256"
        }
      ],
      "stateMutability": "view",
      "type": "function",
      "constant": true
    },
    {
      "inputs": [],
      "name": "operator",
      "outputs": [
        {
          "internalType": "address",
          "name": "",
          "type": "address"
        }
      ],
      "stateMutability": "view",
      "type": "function",
      "constant": true
    },
    {
      "inputs": [],
      "name": "renounceGuardship",
      "outputs": [],
      "stateMutability": "nonpayable",
      "type": "function"
    },
    {
      "inputs": [
        {
          "internalType": "address",
          "name": "newGuard",
          "type": "address"
        }
      ],
      "name": "transferGuardship",
      "outputs": [],
      "stateMutability": "nonpayable",
      "type": "function"
    },
    {
      "inputs": [],
      "name": "createRound",
      "outputs": [
        {
          "internalType": "uint256",
          "name": "roundId",
          "type": "uint256"
        }
      ],
      "stateMutability": "nonpayable",
      "type": "function"
    },
    {
      "inputs": [
        {
          "internalType": "uint256",
          "name": "_choice",
          "type": "uint256"
        }
      ],
      "name": "finishRound",
      "outputs": [],
      "stateMutability": "nonpayable",
      "type": "function"
    },
    {
      "inputs": [
        {
          "internalType": "contract IClient",
          "name": "_client",
          "type": "address"
        }
      ],
      "name": "setClient",
      "outputs": [],
      "stateMutability": "nonpayable",
      "type": "function"
    },
    {
      "inputs": [],
      "name": "distributeDailyReward",
      "outputs": [],
      "stateMutability": "nonpayable",
      "type": "function"
    },
    {
      "inputs": [
        {
          "internalType": "uint256",
          "name": "_level",
          "type": "uint256"
        },
        {
          "internalType": "uint256",
          "name": "_condition",
          "type": "uint256"
        }
      ],
      "name": "editLevel",
      "outputs": [
        {
          "internalType": "string",
          "name": "message",
          "type": "string"
        }
      ],
      "stateMutability": "nonpayable",
      "type": "function"
    },
    {
      "inputs": [
        {
          "internalType": "contract IBSCV",
          "name": "_token",
          "type": "address"
        }
      ],
      "name": "setBSCV",
      "outputs": [],
      "stateMutability": "nonpayable",
      "type": "function"
    },
    {
      "inputs": [
        {
          "internalType": "address",
          "name": "_operator",
          "type": "address"
        }
      ],
      "name": "setOperator",
      "outputs": [],
      "stateMutability": "nonpayable",
      "type": "function"
    },
    {
      "inputs": [
        {
          "internalType": "address",
          "name": "_withdraw",
          "type": "address"
        }
      ],
      "name": "withdrawRevenue",
      "outputs": [],
      "stateMutability": "nonpayable",
      "type": "function"
    },
    {
      "inputs": [
        {
          "internalType": "address",
          "name": "_user",
          "type": "address"
        },
        {
          "internalType": "bool",
          "name": "_approved",
          "type": "bool"
        }
      ],
      "name": "changeUserStatus",
      "outputs": [],
      "stateMutability": "nonpayable",
      "type": "function"
    },
    {
      "inputs": [
        {
          "internalType": "uint32",
          "name": "_countDown",
          "type": "uint32"
        }
      ],
      "name": "setCountDown",
      "outputs": [],
      "stateMutability": "nonpayable",
      "type": "function"
    },
    {
      "inputs": [
        {
          "internalType": "uint256",
          "name": "_level",
          "type": "uint256"
        },
        {
          "internalType": "uint256",
          "name": "_betCounts",
          "type": "uint256"
        }
      ],
      "name": "levelRequirements",
      "outputs": [
        {
          "internalType": "bool",
          "name": "_result",
          "type": "bool"
        }
      ],
      "stateMutability": "view",
      "type": "function",
      "constant": true
    },
    {
      "inputs": [],
      "name": "getCurrentRoundId",
      "outputs": [
        {
          "internalType": "uint256",
          "name": "",
          "type": "uint256"
        }
      ],
      "stateMutability": "view",
      "type": "function",
      "constant": true
    }
  ],
  "bytecode": "0x6080604052678ac7230489e80000600855620151806009553480156200002457600080fd5b50604051620033003803806200330083398181016040528101906200004a91906200035e565b6200006a6200005e6200024d60201b60201c565b6200025560201b60201c565b82600160006101000a81548173ffffffffffffffffffffffffffffffffffffffff021916908373ffffffffffffffffffffffffffffffffffffffff16021790555081600260006101000a81548173ffffffffffffffffffffffffffffffffffffffff021916908373ffffffffffffffffffffffffffffffffffffffff16021790555080600360006101000a81548173ffffffffffffffffffffffffffffffffffffffff021916908373ffffffffffffffffffffffffffffffffffffffff1602179055506002600460008081526020019081526020016000208190555060066004600060018152602001908152602001600020819055506008600460006002815260200190815260200160002081905550600c600460006003815260200190815260200160002081905550600f600460006004815260200190815260200160002081905550600060056000808152602001908152602001600020819055506001600560006001815260200190815260200160002081905550600260056000600281526020019081526020016000208190555060036005600060038152602001908152602001600020819055506004600560006004815260200190815260200160002081905550600a436200023e9190620003b4565b600781905550505050620004f4565b600033905090565b60008060009054906101000a900473ffffffffffffffffffffffffffffffffffffffff169050816000806101000a81548173ffffffffffffffffffffffffffffffffffffffff021916908373ffffffffffffffffffffffffffffffffffffffff1602179055508173ffffffffffffffffffffffffffffffffffffffff168173ffffffffffffffffffffffffffffffffffffffff167f4fd5ebbe9a811d1659c379f6e2841843ffa877c7c3a271324a6c41c33bc1d9cc60405160405180910390a35050565b6000815190506200032a81620004a6565b92915050565b6000815190506200034181620004c0565b92915050565b6000815190506200035881620004da565b92915050565b6000806000606084860312156200037457600080fd5b6000620003848682870162000319565b9350506020620003978682870162000347565b9250506040620003aa8682870162000330565b9150509250925092565b6000620003c1826200046d565b9150620003ce836200046d565b9250827fffffffffffffffffffffffffffffffffffffffffffffffffffffffffffffffff0382111562000406576200040562000477565b5b828201905092915050565b60006200041e826200044d565b9050919050565b6000620004328262000411565b9050919050565b6000620004468262000411565b9050919050565b600073ffffffffffffffffffffffffffffffffffffffff82169050919050565b6000819050919050565b7f4e487b7100000000000000000000000000000000000000000000000000000000600052601160045260246000fd5b620004b18162000411565b8114620004bd57600080fd5b50565b620004cb8162000425565b8114620004d757600080fd5b50565b620004e58162000439565b8114620004f157600080fd5b50565b612dfc80620005046000396000f3fe608060405234801561001057600080fd5b50600436106101425760003560e01c80637ceab3b1116100b8578063c0e9d76c1161007c578063c0e9d76c14610305578063c8bfef771461030f578063d7bc2eb51461032d578063d84c2aa21461035d578063e4179d041461038d578063f9598128146103ab57610142565b80637ceab3b1146102735780638526690a146102915780638eaa9c91146102ad578063916df92a146102cb578063b3ab15fb146102e957610142565b806336a1fb5f1161010a57806336a1fb5f146101d757806349bf4d67146101f3578063570ca735146102115780635727e25d1461022f5780635e420f4c1461024d5780637bf1200e1461026957610142565b80631b411fc8146101475780631dfc2185146101655780631fe0ff58146101835780632c2a39891461019f57806336366d5e146101bb575b600080fd5b61014f6103c7565b60405161015c9190612815565b60405180910390f35b61016d610500565b60405161017a91906126ec565b60405180910390f35b61019d600480360381019061019891906123a6565b610526565b005b6101b960048036038101906101b49190612198565b610d15565b005b6101d560048036038101906101d09190612434565b610e0d565b005b6101f160048036038101906101ec91906121c1565b610f19565b005b6101fb611176565b6040516102089190612815565b60405180910390f35b61021961117c565b604051610226919061267f565b60405180910390f35b6102376111a2565b6040516102449190612815565b60405180910390f35b61026760048036038101906102629190612198565b6111b3565b005b61027161138e565b005b61027b611416565b604051610288919061267f565b60405180910390f35b6102ab60048036038101906102a6919061237d565b61143f565b005b6102b5611513565b6040516102c29190612707565b60405180910390f35b6102d3611539565b6040516102e09190612815565b60405180910390f35b61030360048036038101906102fe9190612198565b611545565b005b61030d611605565b005b610317611951565b6040516103249190612815565b60405180910390f35b610347600480360381019061034291906123f8565b611957565b60405161035491906126d1565b60405180910390f35b610377600480360381019061037291906123f8565b61198d565b6040516103849190612773565b60405180910390f35b610395611a61565b6040516103a29190612815565b60405180910390f35b6103c560048036038101906103c09190612354565b611a67565b005b6000600160009054906101000a900473ffffffffffffffffffffffffffffffffffffffff1673ffffffffffffffffffffffffffffffffffffffff163373ffffffffffffffffffffffffffffffffffffffff1614610459576040517f08c379a0000000000000000000000000000000000000000000000000000000008152600401610450906127f5565b60405180910390fd5b600260009054906101000a900473ffffffffffffffffffffffffffffffffffffffff1673ffffffffffffffffffffffffffffffffffffffff16631b411fc86040518163ffffffff1660e01b8152600401602060405180830381600087803b1580156104c357600080fd5b505af11580156104d7573d6000803e3d6000fd5b505050506040513d601f19601f820116820180604052508101906104fb91906123cf565b905090565b600360009054906101000a900473ffffffffffffffffffffffffffffffffffffffff1681565b600160009054906101000a900473ffffffffffffffffffffffffffffffffffffffff1673ffffffffffffffffffffffffffffffffffffffff163373ffffffffffffffffffffffffffffffffffffffff16146105b6576040517f08c379a00000000000000000000000000000000000000000000000000000000081526004016105ad906127f5565b60405180910390fd5b6000811180156105c65750600481105b6105cf57600080fd5b6000806000806000806000600260009054906101000a900473ffffffffffffffffffffffffffffffffffffffff1673ffffffffffffffffffffffffffffffffffffffff1663c4fc78c36040518163ffffffff1660e01b815260040160006040518083038186803b15801561064257600080fd5b505afa158015610656573d6000803e3d6000fd5b505050506040513d6000823e3d601f19601f8201168201806040525081019061067f91906121fd565b96509650965096509650965096506001881415610868576000806106a4898985611b27565b91509150600260009054906101000a900473ffffffffffffffffffffffffffffffffffffffff1673ffffffffffffffffffffffffffffffffffffffff16637f16cf7860016040518263ffffffff1660e01b81526004016107049190612722565b600060405180830381600087803b15801561071e57600080fd5b505af1158015610732573d6000803e3d6000fd5b5050505060005b895181101561086457600260009054906101000a900473ffffffffffffffffffffffffffffffffffffffff1673ffffffffffffffffffffffffffffffffffffffff1663fc41aa098483815181106107b9577f4e487b7100000000000000000000000000000000000000000000000000000000600052603260045260246000fd5b60200260200101518484815181106107fa577f4e487b7100000000000000000000000000000000000000000000000000000000600052603260045260246000fd5b60200260200101516040518363ffffffff1660e01b815260040161081f92919061284b565b600060405180830381600087803b15801561083957600080fd5b505af115801561084d573d6000803e3d6000fd5b50505050808061085c90612b5e565b915050610739565b5050505b6002881415610a435760008061087f878785611b27565b91509150600260009054906101000a900473ffffffffffffffffffffffffffffffffffffffff1673ffffffffffffffffffffffffffffffffffffffff16637f16cf7860026040518263ffffffff1660e01b81526004016108df919061273d565b600060405180830381600087803b1580156108f957600080fd5b505af115801561090d573d6000803e3d6000fd5b5050505060005b8751811015610a3f57600260009054906101000a900473ffffffffffffffffffffffffffffffffffffffff1673ffffffffffffffffffffffffffffffffffffffff1663fc41aa09848381518110610994577f4e487b7100000000000000000000000000000000000000000000000000000000600052603260045260246000fd5b60200260200101518484815181106109d5577f4e487b7100000000000000000000000000000000000000000000000000000000600052603260045260246000fd5b60200260200101516040518363ffffffff1660e01b81526004016109fa92919061284b565b600060405180830381600087803b158015610a1457600080fd5b505af1158015610a28573d6000803e3d6000fd5b505050508080610a3790612b5e565b915050610914565b5050505b6003881415610c1e57600080610a5a858585611b27565b91509150600260009054906101000a900473ffffffffffffffffffffffffffffffffffffffff1673ffffffffffffffffffffffffffffffffffffffff16637f16cf7860036040518263ffffffff1660e01b8152600401610aba9190612758565b600060405180830381600087803b158015610ad457600080fd5b505af1158015610ae8573d6000803e3d6000fd5b5050505060005b8551811015610c1a57600260009054906101000a900473ffffffffffffffffffffffffffffffffffffffff1673ffffffffffffffffffffffffffffffffffffffff1663fc41aa09848381518110610b6f577f4e487b7100000000000000000000000000000000000000000000000000000000600052603260045260246000fd5b6020026020010151848481518110610bb0577f4e487b7100000000000000000000000000000000000000000000000000000000600052603260045260246000fd5b60200260200101516040518363ffffffff1660e01b8152600401610bd592919061284b565b600060405180830381600087803b158015610bef57600080fd5b505af1158015610c03573d6000803e3d6000fd5b505050508080610c1290612b5e565b915050610aef565b5050505b600260009054906101000a900473ffffffffffffffffffffffffffffffffffffffff1673ffffffffffffffffffffffffffffffffffffffff16631b411fc86040518163ffffffff1660e01b8152600401602060405180830381600087803b158015610c8857600080fd5b505af1158015610c9c573d6000803e3d6000fd5b505050506040513d601f19601f82011682018060405250810190610cc091906123cf565b507ff5552d9844dc88fdf756cb9504335e27d681f4310cfb67d18c81b629f480d06b610cec6006611eaa565b604051610cf99190612815565b60405180910390a1610d0b6006611eb8565b5050505050505050565b610d1d611ece565b73ffffffffffffffffffffffffffffffffffffffff16610d3b611416565b73ffffffffffffffffffffffffffffffffffffffff1614610d91576040517f08c379a0000000000000000000000000000000000000000000000000000000008152600401610d88906127d5565b60405180910390fd5b600073ffffffffffffffffffffffffffffffffffffffff168173ffffffffffffffffffffffffffffffffffffffff161415610e01576040517f08c379a0000000000000000000000000000000000000000000000000000000008152600401610df890612795565b60405180910390fd5b610e0a81611ed6565b50565b610e15611ece565b73ffffffffffffffffffffffffffffffffffffffff16610e33611416565b73ffffffffffffffffffffffffffffffffffffffff1614610e89576040517f08c379a0000000000000000000000000000000000000000000000000000000008152600401610e80906127d5565b60405180910390fd5b600260009054906101000a900473ffffffffffffffffffffffffffffffffffffffff1673ffffffffffffffffffffffffffffffffffffffff166375492744826040518263ffffffff1660e01b8152600401610ee49190612830565b600060405180830381600087803b158015610efe57600080fd5b505af1158015610f12573d6000803e3d6000fd5b5050505050565b610f21611ece565b73ffffffffffffffffffffffffffffffffffffffff16610f3f611416565b73ffffffffffffffffffffffffffffffffffffffff1614610f95576040517f08c379a0000000000000000000000000000000000000000000000000000000008152600401610f8c906127d5565b60405180910390fd5b6000600260009054906101000a900473ffffffffffffffffffffffffffffffffffffffff1673ffffffffffffffffffffffffffffffffffffffff16632b956ff7846040518263ffffffff1660e01b8152600401610ff2919061267f565b60206040518083038186803b15801561100a57600080fd5b505afa15801561101e573d6000803e3d6000fd5b505050506040513d601f19601f82011682018060405250810190611042919061245d565b90506001151582151514156110e357600260009054906101000a900473ffffffffffffffffffffffffffffffffffffffff1673ffffffffffffffffffffffffffffffffffffffff16635edf8a6c826040518263ffffffff1660e01b81526004016110ac9190612830565b600060405180830381600087803b1580156110c657600080fd5b505af11580156110da573d6000803e3d6000fd5b50505050611171565b600260009054906101000a900473ffffffffffffffffffffffffffffffffffffffff1673ffffffffffffffffffffffffffffffffffffffff1663e9a16d6c826040518263ffffffff1660e01b815260040161113e9190612830565b600060405180830381600087803b15801561115857600080fd5b505af115801561116c573d6000803e3d6000fd5b505050505b505050565b60095481565b600160009054906101000a900473ffffffffffffffffffffffffffffffffffffffff1681565b60006111ae6006611eaa565b905090565b6111bb611ece565b73ffffffffffffffffffffffffffffffffffffffff166111d9611416565b73ffffffffffffffffffffffffffffffffffffffff161461122f576040517f08c379a0000000000000000000000000000000000000000000000000000000008152600401611226906127d5565b60405180910390fd5b600360009054906101000a900473ffffffffffffffffffffffffffffffffffffffff1673ffffffffffffffffffffffffffffffffffffffff166323b872dd3083600360009054906101000a900473ffffffffffffffffffffffffffffffffffffffff1673ffffffffffffffffffffffffffffffffffffffff166370a08231306040518263ffffffff1660e01b81526004016112ca919061267f565b60206040518083038186803b1580156112e257600080fd5b505afa1580156112f6573d6000803e3d6000fd5b505050506040513d601f19601f8201168201806040525081019061131a91906123cf565b6040518463ffffffff1660e01b81526004016113389392919061269a565b602060405180830381600087803b15801561135257600080fd5b505af1158015611366573d6000803e3d6000fd5b505050506040513d601f19601f8201168201806040525081019061138a919061232b565b5050565b611396611ece565b73ffffffffffffffffffffffffffffffffffffffff166113b4611416565b73ffffffffffffffffffffffffffffffffffffffff161461140a576040517f08c379a0000000000000000000000000000000000000000000000000000000008152600401611401906127d5565b60405180910390fd5b6114146000611ed6565b565b60008060009054906101000a900473ffffffffffffffffffffffffffffffffffffffff16905090565b600160009054906101000a900473ffffffffffffffffffffffffffffffffffffffff1673ffffffffffffffffffffffffffffffffffffffff163373ffffffffffffffffffffffffffffffffffffffff16146114cf576040517f08c379a00000000000000000000000000000000000000000000000000000000081526004016114c6906127f5565b60405180910390fd5b80600260006101000a81548173ffffffffffffffffffffffffffffffffffffffff021916908373ffffffffffffffffffffffffffffffffffffffff16021790555050565b600260009054906101000a900473ffffffffffffffffffffffffffffffffffffffff1681565b60068060000154905081565b61154d611ece565b73ffffffffffffffffffffffffffffffffffffffff1661156b611416565b73ffffffffffffffffffffffffffffffffffffffff16146115c1576040517f08c379a00000000000000000000000000000000000000000000000000000000081526004016115b8906127d5565b60405180910390fd5b80600160006101000a81548173ffffffffffffffffffffffffffffffffffffffff021916908373ffffffffffffffffffffffffffffffffffffffff16021790555050565b600160009054906101000a900473ffffffffffffffffffffffffffffffffffffffff1673ffffffffffffffffffffffffffffffffffffffff163373ffffffffffffffffffffffffffffffffffffffff1614611695576040517f08c379a000000000000000000000000000000000000000000000000000000000815260040161168c906127f5565b60405180910390fd5b4360075411156116da576040517f08c379a00000000000000000000000000000000000000000000000000000000081526004016116d1906127b5565b60405180910390fd5b6000600260009054906101000a900473ffffffffffffffffffffffffffffffffffffffff1673ffffffffffffffffffffffffffffffffffffffff1663bff1f9e16040518163ffffffff1660e01b8152600401602060405180830381600087803b15801561174657600080fd5b505af115801561175a573d6000803e3d6000fd5b505050506040513d601f19601f8201168201806040525081019061177e91906123cf565b905060005b818163ffffffff16101561193957600080600260009054906101000a900473ffffffffffffffffffffffffffffffffffffffff1673ffffffffffffffffffffffffffffffffffffffff16634d788a4c846040518263ffffffff1660e01b81526004016117ef9190612830565b60e06040518083038186803b15801561180757600080fd5b505afa15801561181b573d6000803e3d6000fd5b505050506040513d601f19601f8201168201806040525081019061183f9190612486565b96505050505063ffffffff1692505060008214158015611863575060011515811515145b1561191c57600260009054906101000a900473ffffffffffffffffffffffffffffffffffffffff1673ffffffffffffffffffffffffffffffffffffffff1663fc41aa098460056000868152602001908152602001600020546008546118c89190612994565b6040518363ffffffff1660e01b81526004016118e592919061284b565b600060405180830381600087803b1580156118ff57600080fd5b505af1158015611913573d6000803e3d6000fd5b50505050611923565b5050611926565b50505b808061193190612ba7565b915050611783565b5060095443611948919061290d565b60078190555050565b60085481565b60008083905082600460008381526020019081526020016000205414156119815760019150611986565b600091505b5092915050565b6060611997611ece565b73ffffffffffffffffffffffffffffffffffffffff166119b5611416565b73ffffffffffffffffffffffffffffffffffffffff1614611a0b576040517f08c379a0000000000000000000000000000000000000000000000000000000008152600401611a02906127d5565b60405180910390fd5b8160046000858152602001908152602001600020819055506040518060400160405280601781526020017f4c6576656c20636f6e646974696f6e206368616e676564000000000000000000815250905092915050565b60075481565b611a6f611ece565b73ffffffffffffffffffffffffffffffffffffffff16611a8d611416565b73ffffffffffffffffffffffffffffffffffffffff1614611ae3576040517f08c379a0000000000000000000000000000000000000000000000000000000008152600401611ada906127d5565b60405180910390fd5b80600360006101000a81548173ffffffffffffffffffffffffffffffffffffffff021916908373ffffffffffffffffffffffffffffffffffffffff16021790555050565b606080600080865167ffffffffffffffff811115611b6e577f4e487b7100000000000000000000000000000000000000000000000000000000600052604160045260246000fd5b604051908082528060200260200182016040528015611b9c5781602001602082028036833780820191505090505b5090506000875167ffffffffffffffff811115611be2577f4e487b7100000000000000000000000000000000000000000000000000000000600052604160045260246000fd5b604051908082528060200260200182016040528015611c105781602001602082028036833780820191505090505b50905060005b8851811015611dbe57878181518110611c58577f4e487b7100000000000000000000000000000000000000000000000000000000600052603260045260246000fd5b602002602001015184611c6b919061290d565b9350600260009054906101000a900473ffffffffffffffffffffffffffffffffffffffff1673ffffffffffffffffffffffffffffffffffffffff16632b956ff78a8381518110611ce4577f4e487b7100000000000000000000000000000000000000000000000000000000600052603260045260246000fd5b60200260200101516040518263ffffffff1660e01b8152600401611d08919061267f565b60206040518083038186803b158015611d2057600080fd5b505afa158015611d34573d6000803e3d6000fd5b505050506040513d601f19601f82011682018060405250810190611d58919061245d565b828281518110611d91577f4e487b7100000000000000000000000000000000000000000000000000000000600052603260045260246000fd5b602002602001019063ffffffff16908163ffffffff16815250508080611db690612b5e565b915050611c16565b5060005b8851811015611e985760006064858a8481518110611e09577f4e487b7100000000000000000000000000000000000000000000000000000000600052603260045260246000fd5b6020026020010151611e1b9190612963565b611e259190612994565b905087606482611e359190612963565b611e3f9190612994565b848381518110611e78577f4e487b7100000000000000000000000000000000000000000000000000000000600052603260045260246000fd5b602002602001018181525050508080611e9090612b5e565b915050611dc2565b50808294509450505050935093915050565b600081600001549050919050565b6001816000016000828254019250508190555050565b600033905090565b60008060009054906101000a900473ffffffffffffffffffffffffffffffffffffffff169050816000806101000a81548173ffffffffffffffffffffffffffffffffffffffff021916908373ffffffffffffffffffffffffffffffffffffffff1602179055508173ffffffffffffffffffffffffffffffffffffffff168173ffffffffffffffffffffffffffffffffffffffff167f4fd5ebbe9a811d1659c379f6e2841843ffa877c7c3a271324a6c41c33bc1d9cc60405160405180910390a35050565b6000611fad611fa884612899565b612874565b90508083825260208201905082856020860282011115611fcc57600080fd5b60005b85811015611ffc5781611fe28882612087565b845260208401935060208301925050600181019050611fcf565b5050509392505050565b6000612019612014846128c5565b612874565b9050808382526020820190508285602086028201111561203857600080fd5b60005b85811015612068578161204e8882612159565b84526020840193506020830192505060018101905061203b565b5050509392505050565b60008135905061208181612d3c565b92915050565b60008151905061209681612d3c565b92915050565b600082601f8301126120ad57600080fd5b81516120bd848260208601611f9a565b91505092915050565b600082601f8301126120d757600080fd5b81516120e7848260208601612006565b91505092915050565b6000813590506120ff81612d53565b92915050565b60008151905061211481612d53565b92915050565b60008135905061212981612d6a565b92915050565b60008135905061213e81612d81565b92915050565b60008135905061215381612d98565b92915050565b60008151905061216881612d98565b92915050565b60008135905061217d81612daf565b92915050565b60008151905061219281612daf565b92915050565b6000602082840312156121aa57600080fd5b60006121b884828501612072565b91505092915050565b600080604083850312156121d457600080fd5b60006121e285828601612072565b92505060206121f3858286016120f0565b9150509250929050565b600080600080600080600060e0888a03121561221857600080fd5b600088015167ffffffffffffffff81111561223257600080fd5b61223e8a828b0161209c565b975050602088015167ffffffffffffffff81111561225b57600080fd5b6122678a828b016120c6565b965050604088015167ffffffffffffffff81111561228457600080fd5b6122908a828b0161209c565b955050606088015167ffffffffffffffff8111156122ad57600080fd5b6122b98a828b016120c6565b945050608088015167ffffffffffffffff8111156122d657600080fd5b6122e28a828b0161209c565b93505060a088015167ffffffffffffffff8111156122ff57600080fd5b61230b8a828b016120c6565b92505060c061231c8a828b01612159565b91505092959891949750929550565b60006020828403121561233d57600080fd5b600061234b84828501612105565b91505092915050565b60006020828403121561236657600080fd5b60006123748482850161211a565b91505092915050565b60006020828403121561238f57600080fd5b600061239d8482850161212f565b91505092915050565b6000602082840312156123b857600080fd5b60006123c684828501612144565b91505092915050565b6000602082840312156123e157600080fd5b60006123ef84828501612159565b91505092915050565b6000806040838503121561240b57600080fd5b600061241985828601612144565b925050602061242a85828601612144565b9150509250929050565b60006020828403121561244657600080fd5b60006124548482850161216e565b91505092915050565b60006020828403121561246f57600080fd5b600061247d84828501612183565b91505092915050565b600080600080600080600060e0888a0312156124a157600080fd5b60006124af8a828b01612183565b97505060206124c08a828b01612183565b96505060406124d18a828b01612159565b95505060606124e28a828b01612159565b94505060806124f38a828b01612159565b93505060a06125048a828b01612159565b92505060c06125158a828b01612105565b91505092959891949750929550565b61252d816129ee565b82525050565b61253c81612a00565b82525050565b61254b81612a6a565b82525050565b61255a81612a8e565b82525050565b61256981612ab2565b82525050565b61257881612ac4565b82525050565b61258781612ad6565b82525050565b6000612598826128f1565b6125a281856128fc565b93506125b2818560208601612afa565b6125bb81612c61565b840191505092915050565b60006125d36026836128fc565b91506125de82612c72565b604082019050919050565b60006125f66007836128fc565b915061260182612cc1565b602082019050919050565b60006126196020836128fc565b915061262482612cea565b602082019050919050565b600061263c600d836128fc565b915061264782612d13565b602082019050919050565b61265b81612a50565b82525050565b61266a81612ae8565b82525050565b61267981612a5a565b82525050565b60006020820190506126946000830184612524565b92915050565b60006060820190506126af6000830186612524565b6126bc6020830185612524565b6126c96040830184612652565b949350505050565b60006020820190506126e66000830184612533565b92915050565b60006020820190506127016000830184612542565b92915050565b600060208201905061271c6000830184612551565b92915050565b60006020820190506127376000830184612560565b92915050565b6000602082019050612752600083018461256f565b92915050565b600060208201905061276d600083018461257e565b92915050565b6000602082019050818103600083015261278d818461258d565b905092915050565b600060208201905081810360008301526127ae816125c6565b9050919050565b600060208201905081810360008301526127ce816125e9565b9050919050565b600060208201905081810360008301526127ee8161260c565b9050919050565b6000602082019050818103600083015261280e8161262f565b9050919050565b600060208201905061282a6000830184612652565b92915050565b60006020820190506128456000830184612670565b92915050565b60006040820190506128606000830185612661565b61286d6020830184612652565b9392505050565b600061287e61288f565b905061288a8282612b2d565b919050565b6000604051905090565b600067ffffffffffffffff8211156128b4576128b3612c32565b5b602082029050602081019050919050565b600067ffffffffffffffff8211156128e0576128df612c32565b5b602082029050602081019050919050565b600081519050919050565b600082825260208201905092915050565b600061291882612a50565b915061292383612a50565b9250827fffffffffffffffffffffffffffffffffffffffffffffffffffffffffffffffff0382111561295857612957612bd4565b5b828201905092915050565b600061296e82612a50565b915061297983612a50565b92508261298957612988612c03565b5b828204905092915050565b600061299f82612a50565b91506129aa83612a50565b9250817fffffffffffffffffffffffffffffffffffffffffffffffffffffffffffffffff04831182151516156129e3576129e2612bd4565b5b828202905092915050565b60006129f982612a30565b9050919050565b60008115159050919050565b6000612a17826129ee565b9050919050565b6000612a29826129ee565b9050919050565b600073ffffffffffffffffffffffffffffffffffffffff82169050919050565b6000819050919050565b600063ffffffff82169050919050565b6000612a7582612a7c565b9050919050565b6000612a8782612a30565b9050919050565b6000612a9982612aa0565b9050919050565b6000612aab82612a30565b9050919050565b6000612abd82612a50565b9050919050565b6000612acf82612a50565b9050919050565b6000612ae182612a50565b9050919050565b6000612af382612a5a565b9050919050565b60005b83811015612b18578082015181840152602081019050612afd565b83811115612b27576000848401525b50505050565b612b3682612c61565b810181811067ffffffffffffffff82111715612b5557612b54612c32565b5b80604052505050565b6000612b6982612a50565b91507fffffffffffffffffffffffffffffffffffffffffffffffffffffffffffffffff821415612b9c57612b9b612bd4565b5b600182019050919050565b6000612bb282612a5a565b915063ffffffff821415612bc957612bc8612bd4565b5b600182019050919050565b7f4e487b7100000000000000000000000000000000000000000000000000000000600052601160045260246000fd5b7f4e487b7100000000000000000000000000000000000000000000000000000000600052601260045260246000fd5b7f4e487b7100000000000000000000000000000000000000000000000000000000600052604160045260246000fd5b6000601f19601f8301169050919050565b7f4f776e61626c653a206e6577206f776e657220697320746865207a65726f206160008201527f6464726573730000000000000000000000000000000000000000000000000000602082015250565b7f4e6f742059657400000000000000000000000000000000000000000000000000600082015250565b7f4f776e61626c653a2063616c6c6572206973206e6f7420746865206f776e6572600082015250565b7f6163636573732064656e69656400000000000000000000000000000000000000600082015250565b612d45816129ee565b8114612d5057600080fd5b50565b612d5c81612a00565b8114612d6757600080fd5b50565b612d7381612a0c565b8114612d7e57600080fd5b50565b612d8a81612a1e565b8114612d9557600080fd5b50565b612da181612a50565b8114612dac57600080fd5b50565b612db881612a5a565b8114612dc357600080fd5b5056fea26469706673582212206df64919f0fea573701d38ad5eef64da70ca6ea06c3b1741404c0344e25cc33064736f6c63430008040033",
  "immutableReferences": {},
  "source": "// SPDX-License-Identifier: MIT\r\npragma solidity 0.8.4;\r\n\r\nimport \"./interfaces/IController.sol\";\r\nimport \"./interfaces/IBSCV.sol\";\r\nimport \"./interfaces/IClient.sol\";\r\nimport \"@openzeppelin/contracts/utils/Counters.sol\";\r\nimport \"./lib/Guarded.sol\";\r\n\r\n\r\ncontract Controller is IController,Guarded{\r\n    using Counters for Counters.Counter;\r\n    //address of the operator\r\n    address public operator;\r\n\r\n    //address of the Client\r\n    IClient public Client;\r\n\r\n    //address of the ERC20\r\n    IBSCV public BSCV;\r\n\r\n    //mapping of levelConditions used to upgrade levels\r\n    mapping(uint256 => uint256)levelConditions;\r\n\r\n    //mapping of levelMultiplier used in distributing daily rewards based on level\r\n    mapping(uint256 => uint256)levelMultiplier;\r\n\r\n    //Round index\r\n    Counters.Counter public Round;\r\n    \r\n    //timestamp used to know the nextDailyReward\r\n    uint256 public nextdailyRewardAt;\r\n    //dailyReward base amount\r\n    uint256 public dailyRewards = uint256(10*10**18);\r\n    //dailyRewardInterval\r\n    uint256 public dailyRewardInterval = uint256(1 days);\r\n    \r\n    event finishedRound(uint256 _id);\r\n    \r\n    constructor(address _operator,IClient _client,IBSCV _bscv){\r\n        operator = _operator;\r\n        Client = _client;\r\n        BSCV = _bscv;\r\n        levelConditions[0] = 2;\r\n        levelConditions[1] = 6;\r\n        levelConditions[2] = 8;\r\n        levelConditions[3] = 12;\r\n        levelConditions[4] = 15;\r\n        levelMultiplier[0] = 0;\r\n        levelMultiplier[1] = 1;\r\n        levelMultiplier[2] = 2;\r\n        levelMultiplier[3] = 3;\r\n        levelMultiplier[4] = 4;\r\n        \r\n        nextdailyRewardAt = block.number + 10;\r\n    }\r\n    /* ========== OnlyOperator Functions ========== */\r\n    function createRound()public onlyOperator returns(uint256 roundId){\r\n        roundId = Client.createRound();\r\n    }\r\n\r\n     /** * @dev finishtheRound based on random choice called via operator\r\n    */ \r\n    function finishRound(uint256 _choice)public onlyOperator{\r\n        require(_choice > 0 && _choice < uint256(4));\r\n         (address[] memory oneAddress,uint256[] memory oneAmounts,\r\n         address[] memory twoAddress,uint256[]memory twoAmounts,\r\n         address[]memory threeAddress,uint256[]memory threeAmounts,uint256 total) = Client.currentInfo();\r\n         \r\n        if(_choice == 1){\r\n            (uint32[] memory ids,uint256[] memory payments)= processPaymentInfo(oneAddress,oneAmounts,total);\r\n             Client.setWinningChoice(1);\r\n            for(uint256 i=0 ; i < oneAddress.length ; i++){\r\n               Client.addRewards(ids[i],payments[i]);\r\n            }\r\n        }\r\n        if(_choice == 2){\r\n            (uint32[] memory ids,uint256[] memory payments)= processPaymentInfo(twoAddress,twoAmounts,total);\r\n             Client.setWinningChoice(2);\r\n            for(uint256 i=0 ; i < twoAddress.length ; i++){\r\n               Client.addRewards(ids[i],payments[i]);\r\n            }\r\n        }\r\n        if(_choice == 3){\r\n            (uint32[] memory ids,uint256[] memory payments)= processPaymentInfo(threeAddress,threeAmounts,total);\r\n             Client.setWinningChoice(3);\r\n            for(uint256 i=0 ; i < threeAddress.length ; i++){\r\n               Client.addRewards(ids[i],payments[i]);\r\n            }\r\n        }\r\n        Client.createRound();\r\n        emit finishedRound(Round.current());\r\n        Round.increment();\r\n    }\r\n\r\n    /** * @dev Change to newClient\r\n    */\r\n    function setClient(IClient _client)public onlyOperator{\r\n        Client = _client;\r\n    }\r\n    \r\n    function distributeDailyReward()external onlyOperator{\r\n        require(nextdailyRewardAt <= block.number,\"Not Yet\");\r\n        uint256 totalUsers = Client.totalUsers();\r\n        for(uint32 i=0;i<totalUsers;i++){\r\n           (,uint256 level,,,,,bool Approved) = Client.getUserInfo(i);\r\n           if(level != 0 && Approved == true){\r\n              Client.addRewards(i,dailyRewards*levelMultiplier[level]);\r\n            }else{\r\n                continue;\r\n            }\r\n        }\r\n        nextdailyRewardAt = block.number + dailyRewardInterval;\r\n    }\r\n\r\n    /* ========== OnlyGuard Functions ========== */\r\n    \r\n    /** * @dev edit the level conditions \r\n       @param _level choose a level to edit its condition\r\n       @param _condition enter the condition to be changed\r\n       Use this function wisely as this would messup the levels of the users and other level requirements\r\n    */\r\n    function editLevel(uint256 _level,uint256 _condition)public onlyGuard returns(string memory message){\r\n        levelConditions[_level] = _condition;\r\n        return(\"Level condition changed\");\r\n    }\r\n\r\n    /** * @dev Change ERC20\r\n    */\r\n    function setBSCV(IBSCV _token)public onlyGuard{\r\n        BSCV = _token;\r\n    }\r\n\r\n    /** * @dev Change operator\r\n    */\r\n    function setOperator(address _operator)public onlyGuard{\r\n        operator = _operator;\r\n    }\r\n\r\n    function withdrawRevenue(address _withdraw)public onlyGuard{\r\n        BSCV.transferFrom(address(this),address(_withdraw),BSCV.balanceOf(address(this)));\r\n    }\r\n    \r\n    function changeUserStatus(address _user,bool _approved)public onlyGuard{\r\n        uint32 Userid = Client.getUserId(_user);\r\n        if(_approved == true){\r\n            Client.approveUser(Userid);\r\n        }else{\r\n            Client.unapproveUser(Userid);\r\n        }\r\n    }\r\n\r\n    function setCountDown(uint32 _countDown)public onlyGuard{\r\n        Client.setCountdown(_countDown);\r\n    }\r\n\r\n\r\n    /* ========== External Functions ========== */\r\n\r\n    /** * @dev returns true when the levelrequirements met by the user.Used by levelManager\r\n    */\r\n    function levelRequirements(uint256 _level,uint256 _betCounts)external view override returns(bool _result){\r\n        uint256 level = _level;\r\n        if(levelConditions[level] == _betCounts){\r\n            _result = true;\r\n        }else{\r\n            _result = false;\r\n        }\r\n    }\r\n    /** * @dev returns the current roundId\r\n    */\r\n    function getCurrentRoundId()external view override returns(uint256){\r\n        return Round.current();\r\n    }\r\n\r\n    /* ========== Internal Functions ========== */\r\n    function processPaymentInfo(address[]memory _addresses,uint256[]memory _amounts,uint256 _totalAmount)view internal returns(uint32[]memory,uint256[] memory){\r\n      uint256 total = 0;\r\n      uint256[] memory prizeAmounts = new uint256[](_addresses.length);\r\n      uint32[] memory ids = new uint32[](_addresses.length);\r\n      for(uint256 i = 0;i< _addresses.length;i++){\r\n          total += _amounts[i];\r\n          ids[i] = Client.getUserId(_addresses[i]);\r\n      }\r\n      for(uint256 j = 0; j < _addresses.length;j++){\r\n          //uint256 x = _amounts[j]/total*100;\r\n          uint256 x =(_amounts[j]/total)*(100);\r\n          prizeAmounts[j]=(x/100*_totalAmount);\r\n      }\r\n      return (ids,prizeAmounts);\r\n    }\r\n  \r\n    modifier onlyOperator{\r\n        require(msg.sender == operator,\"access denied\");\r\n        _;\r\n    }\r\n}",
  "sourcePath": "C:/Users/Bharath/Desktop/fortunetta-contracts/contracts/Controller.sol",
  "compiler": {
    "name": "solc",
    "version": "0.8.4+commit.c7e474f2.Emscripten.clang"
  },
  "schemaVersion": "3.4.1",
  "updatedAt": "2021-07-05T14:08:43.210Z",
  "networkType": "ethereum",
  "devdoc": {
    "kind": "dev",
    "methods": {
      "editLevel(uint256,uint256)": {
        "details": "edit the level conditions ",
        "params": {
          "_condition": "enter the condition to be changed Use this function wisely as this would messup the levels of the users and other level requirements",
          "_level": "choose a level to edit its condition"
        }
      },
      "finishRound(uint256)": {
        "details": "finishtheRound based on random choice called via operator"
      },
      "getCurrentRoundId()": {
        "details": "returns the current roundId"
      },
      "guard()": {
        "details": "Returns the address of the current owner."
      },
      "levelRequirements(uint256,uint256)": {
        "details": "returns true when the levelrequirements met by the user.Used by levelManager"
      },
      "renounceGuardship()": {
        "details": "Leaves the contract without owner. It will not be possible to call `onlyOwner` functions anymore. Can only be called by the current owner. NOTE: Renouncing ownership will leave the contract without an owner, thereby removing any functionality that is only available to the owner."
      },
      "setBSCV(address)": {
        "details": "Change ERC20"
      },
      "setClient(address)": {
        "details": "Change to newClient"
      },
      "setOperator(address)": {
        "details": "Change operator"
      },
      "transferGuardship(address)": {
        "details": "Transfers ownership of the contract to a new account (`newOwner`). Can only be called by the current owner."
      }
    },
    "version": 1
  },
  "userdoc": {
    "kind": "user",
    "methods": {},
    "version": 1
  }
}